{
  "_format": "hh-sol-artifact-1",
  "contractName": "EducationGrades",
  "sourceName": "contracts/EducationGrades.sol",
  "abi": [
    {
      "inputs": [],
      "stateMutability": "nonpayable",
      "type": "constructor"
    },
    {
      "anonymous": false,
      "inputs": [
        {
          "indexed": true,
          "internalType": "string",
          "name": "gradeId",
          "type": "string"
        },
        {
          "indexed": false,
          "internalType": "string",
          "name": "newStatus",
          "type": "string"
        }
      ],
      "name": "GradeStatusUpdated",
      "type": "event"
    },
    {
      "anonymous": false,
      "inputs": [
        {
          "indexed": true,
          "internalType": "string",
          "name": "gradeId",
          "type": "string"
        },
        {
          "indexed": false,
          "internalType": "string",
          "name": "studentId",
          "type": "string"
        },
        {
          "indexed": false,
          "internalType": "string",
          "name": "course",
          "type": "string"
        },
        {
          "indexed": false,
          "internalType": "uint8",
          "name": "score",
          "type": "uint8"
        },
        {
          "indexed": false,
          "internalType": "address",
          "name": "teacher",
          "type": "address"
        }
      ],
      "name": "GradeUploaded",
      "type": "event"
    },
    {
      "anonymous": false,
      "inputs": [
        {
          "indexed": true,
          "internalType": "address",
          "name": "user",
          "type": "address"
        },
        {
          "indexed": false,
          "internalType": "enum EducationGrades.Role",
          "name": "role",
          "type": "uint8"
        }
      ],
      "name": "RoleAssigned",
      "type": "event"
    },
    {
      "anonymous": false,
      "inputs": [
        {
          "indexed": true,
          "internalType": "address",
          "name": "user",
          "type": "address"
        },
        {
          "indexed": false,
          "internalType": "string",
          "name": "username",
          "type": "string"
        },
        {
          "indexed": false,
          "internalType": "string",
          "name": "email",
          "type": "string"
        },
        {
          "indexed": false,
          "internalType": "string",
          "name": "contactNumber",
          "type": "string"
        }
      ],
      "name": "UserRegistered",
      "type": "event"
    },
    {
      "anonymous": false,
      "inputs": [
        {
          "indexed": true,
          "internalType": "address",
          "name": "user",
          "type": "address"
        }
      ],
      "name": "UserRemoved",
      "type": "event"
    },
    {
      "inputs": [
        {
          "internalType": "address",
          "name": "_teacher",
          "type": "address"
        }
      ],
      "name": "addTeacher",
      "outputs": [],
      "stateMutability": "nonpayable",
      "type": "function"
    },
    {
      "inputs": [],
      "name": "admin",
      "outputs": [
        {
          "internalType": "address",
          "name": "",
          "type": "address"
        }
      ],
      "stateMutability": "view",
      "type": "function"
    },
    {
      "inputs": [
        {
          "internalType": "address",
          "name": "_user",
          "type": "address"
        },
        {
          "internalType": "enum EducationGrades.Role",
          "name": "_role",
          "type": "uint8"
        }
      ],
      "name": "assignRole",
      "outputs": [],
      "stateMutability": "nonpayable",
      "type": "function"
    },
    {
      "inputs": [],
      "name": "getAllUsers",
      "outputs": [
        {
          "internalType": "address[]",
          "name": "",
          "type": "address[]"
        }
      ],
      "stateMutability": "view",
      "type": "function"
    },
    {
      "inputs": [
        {
          "internalType": "string",
          "name": "studentId",
          "type": "string"
        }
      ],
      "name": "getGrades",
      "outputs": [
        {
          "components": [
            {
              "internalType": "string",
              "name": "gradeId",
              "type": "string"
            },
            {
              "internalType": "string",
              "name": "studentId",
              "type": "string"
            },
            {
              "internalType": "string",
              "name": "course",
              "type": "string"
            },
            {
              "internalType": "uint8",
              "name": "score",
              "type": "uint8"
            },
            {
              "internalType": "uint256",
              "name": "timestamp",
              "type": "uint256"
            },
            {
              "internalType": "address",
              "name": "teacher",
              "type": "address"
            },
            {
              "internalType": "string",
              "name": "status",
              "type": "string"
            },
            {
              "internalType": "string",
              "name": "remark",
              "type": "string"
            }
          ],
          "internalType": "struct EducationGrades.Grade[]",
          "name": "",
          "type": "tuple[]"
        }
      ],
      "stateMutability": "view",
      "type": "function"
    },
    {
      "inputs": [
        {
          "internalType": "address",
          "name": "_user",
          "type": "address"
        }
      ],
      "name": "getUserInfo",
      "outputs": [
        {
          "components": [
            {
              "internalType": "string",
              "name": "username",
              "type": "string"
            },
            {
              "internalType": "string",
              "name": "email",
              "type": "string"
            },
            {
              "internalType": "string",
              "name": "contactNumber",
              "type": "string"
            },
            {
              "internalType": "enum EducationGrades.Role",
              "name": "role",
              "type": "uint8"
            },
            {
              "internalType": "bool",
              "name": "isRegistered",
              "type": "bool"
            }
          ],
          "internalType": "struct EducationGrades.User",
          "name": "",
          "type": "tuple"
        }
      ],
      "stateMutability": "view",
      "type": "function"
    },
    {
      "inputs": [
        {
          "internalType": "address",
          "name": "_user",
          "type": "address"
        }
      ],
      "name": "getUserRole",
      "outputs": [
        {
          "internalType": "enum EducationGrades.Role",
          "name": "",
          "type": "uint8"
        }
      ],
      "stateMutability": "view",
      "type": "function"
    },
    {
      "inputs": [],
      "name": "isAdmin",
      "outputs": [
        {
          "internalType": "bool",
          "name": "",
          "type": "bool"
        }
      ],
      "stateMutability": "view",
      "type": "function"
    },
    {
      "inputs": [],
      "name": "isGradeManager",
      "outputs": [
        {
          "internalType": "bool",
          "name": "",
          "type": "bool"
        }
      ],
      "stateMutability": "view",
      "type": "function"
    },
    {
      "inputs": [],
      "name": "isStudent",
      "outputs": [
        {
          "internalType": "bool",
          "name": "",
          "type": "bool"
        }
      ],
      "stateMutability": "view",
      "type": "function"
    },
    {
      "inputs": [],
      "name": "isTeacher",
      "outputs": [
        {
          "internalType": "bool",
          "name": "",
          "type": "bool"
        }
      ],
      "stateMutability": "view",
      "type": "function"
    },
    {
      "inputs": [
        {
          "internalType": "string",
          "name": "username",
          "type": "string"
        },
        {
          "internalType": "string",
          "name": "email",
          "type": "string"
        },
        {
          "internalType": "string",
          "name": "contactNumber",
          "type": "string"
        }
      ],
      "name": "registerUser",
      "outputs": [],
      "stateMutability": "nonpayable",
      "type": "function"
    },
    {
      "inputs": [
        {
          "internalType": "address",
          "name": "_teacher",
          "type": "address"
        }
      ],
      "name": "removeTeacher",
      "outputs": [],
      "stateMutability": "nonpayable",
      "type": "function"
    },
    {
      "inputs": [
        {
          "internalType": "address",
          "name": "_user",
          "type": "address"
        }
      ],
      "name": "removeUser",
      "outputs": [],
      "stateMutability": "nonpayable",
      "type": "function"
    },
    {
      "inputs": [
        {
          "internalType": "string",
          "name": "studentId",
          "type": "string"
        },
        {
          "internalType": "uint256",
          "name": "index",
          "type": "uint256"
        },
        {
          "internalType": "string",
          "name": "newStatus",
          "type": "string"
        }
      ],
      "name": "updateGradeStatus",
      "outputs": [],
      "stateMutability": "nonpayable",
      "type": "function"
    },
    {
      "inputs": [
        {
          "internalType": "string",
          "name": "gradeId",
          "type": "string"
        },
        {
          "internalType": "string",
          "name": "studentId",
          "type": "string"
        },
        {
          "internalType": "string",
          "name": "course",
          "type": "string"
        },
        {
          "internalType": "uint8",
          "name": "score",
          "type": "uint8"
        },
        {
          "internalType": "string",
          "name": "remark",
          "type": "string"
        }
      ],
      "name": "uploadGrade",
      "outputs": [],
      "stateMutability": "nonpayable",
      "type": "function"
    },
    {
      "inputs": [
        {
          "internalType": "address",
          "name": "",
          "type": "address"
        }
      ],
      "name": "userRoles",
      "outputs": [
        {
          "internalType": "enum EducationGrades.Role",
          "name": "",
          "type": "uint8"
        }
      ],
      "stateMutability": "view",
      "type": "function"
    },
    {
      "inputs": [
        {
          "internalType": "address",
          "name": "",
          "type": "address"
        }
      ],
      "name": "users",
      "outputs": [
        {
          "internalType": "string",
          "name": "username",
          "type": "string"
        },
        {
          "internalType": "string",
          "name": "email",
          "type": "string"
        },
        {
          "internalType": "string",
          "name": "contactNumber",
          "type": "string"
        },
        {
          "internalType": "enum EducationGrades.Role",
          "name": "role",
          "type": "uint8"
        },
        {
          "internalType": "bool",
          "name": "isRegistered",
          "type": "bool"
        }
      ],
      "stateMutability": "view",
      "type": "function"
    }
  ],
  "bytecode": "0x60806040523480156200001157600080fd5b50336000806101000a81548173ffffffffffffffffffffffffffffffffffffffff021916908373ffffffffffffffffffffffffffffffffffffffff1602179055506000600260008060009054906101000a900473ffffffffffffffffffffffffffffffffffffffff1673ffffffffffffffffffffffffffffffffffffffff1673ffffffffffffffffffffffffffffffffffffffff16815260200190815260200160002060006101000a81548160ff02191690836003811115620000d957620000d8620000e4565b5b021790555062000113565b7f4e487b7100000000000000000000000000000000000000000000000000000000600052602160045260246000fd5b6136b180620001236000396000f3fe608060405234801561001057600080fd5b50600436106101165760003560e01c80639622e1f6116100a2578063b6db75a011610071578063b6db75a0146102f3578063c64a4bad14610311578063d637dcfa1461032f578063e2842d791461034b578063f851a4401461036957610116565b80639622e1f614610269578063963e44f11461028557806398575188146102a3578063a87430ba146102bf57610116565b806352ff6846116100e957806352ff6846146101b5578063630a195b146101d15780636386c1c7146101ed57806374d5e1001461021d57806384702fb51461024d57610116565b8063278208511461011b5780632c4755a71461014b5780633bc6e3091461017b57806351e0a6eb14610197575b600080fd5b61013560048036038101906101309190612365565b610387565b6040516101429190612409565b60405180910390f35b61016560048036038101906101609190612489565b6103dd565b6040516101729190612738565b60405180910390f35b61019560048036038101906101909190612365565b6107b5565b005b61019f61098c565b6040516101ac9190612775565b60405180910390f35b6101cf60048036038101906101ca9190612365565b610a07565b005b6101eb60048036038101906101e691906127b5565b610bde565b005b61020760048036038101906102029190612365565b610db4565b6040516102149190612897565b60405180910390f35b61023760048036038101906102329190612365565b611019565b6040516102449190612409565b60405180910390f35b610267600480360381019061026291906128e5565b611039565b005b610283600480360381019061027e9190612a0d565b611460565b005b61028d611663565b60405161029a9190612775565b60405180910390f35b6102bd60048036038101906102b89190612365565b6116dd565b005b6102d960048036038101906102d49190612365565b61196a565b6040516102ea959493929190612aec565b60405180910390f35b6102fb611b52565b6040516103089190612775565b60405180910390f35b610319611bcc565b6040516103269190612775565b60405180910390f35b61034960048036038101906103449190612b54565b611c47565b005b61035361202a565b6040516103609190612cb7565b60405180910390f35b61037161216b565b60405161037e9190612ce8565b60405180910390f35b6000600260008373ffffffffffffffffffffffffffffffffffffffff1673ffffffffffffffffffffffffffffffffffffffff16815260200190815260200160002060009054906101000a900460ff169050919050565b6060600383836040516103f1929190612d42565b9081526020016040518091039020805480602002602001604051908101604052809291908181526020016000905b828210156107a957838290600052602060002090600802016040518061010001604052908160008201805461045390612d8a565b80601f016020809104026020016040519081016040528092919081815260200182805461047f90612d8a565b80156104cc5780601f106104a1576101008083540402835291602001916104cc565b820191906000526020600020905b8154815290600101906020018083116104af57829003601f168201915b505050505081526020016001820180546104e590612d8a565b80601f016020809104026020016040519081016040528092919081815260200182805461051190612d8a565b801561055e5780601f106105335761010080835404028352916020019161055e565b820191906000526020600020905b81548152906001019060200180831161054157829003601f168201915b5050505050815260200160028201805461057790612d8a565b80601f01602080910402602001604051908101604052809291908181526020018280546105a390612d8a565b80156105f05780601f106105c5576101008083540402835291602001916105f0565b820191906000526020600020905b8154815290600101906020018083116105d357829003601f168201915b505050505081526020016003820160009054906101000a900460ff1660ff1660ff168152602001600482015481526020016005820160009054906101000a900473ffffffffffffffffffffffffffffffffffffffff1673ffffffffffffffffffffffffffffffffffffffff1673ffffffffffffffffffffffffffffffffffffffff16815260200160068201805461068690612d8a565b80601f01602080910402602001604051908101604052809291908181526020018280546106b290612d8a565b80156106ff5780601f106106d4576101008083540402835291602001916106ff565b820191906000526020600020905b8154815290600101906020018083116106e257829003601f168201915b5050505050815260200160078201805461071890612d8a565b80601f016020809104026020016040519081016040528092919081815260200182805461074490612d8a565b80156107915780601f1061076657610100808354040283529160200191610791565b820191906000526020600020905b81548152906001019060200180831161077457829003601f168201915b5050505050815250508152602001906001019061041f565b50505050905092915050565b600060038111156107c9576107c8612392565b5b600260003373ffffffffffffffffffffffffffffffffffffffff1673ffffffffffffffffffffffffffffffffffffffff16815260200190815260200160002060009054906101000a900460ff16600381111561082857610827612392565b5b14610868576040517f08c379a000000000000000000000000000000000000000000000000000000000815260040161085f90612e2d565b60405180910390fd5b6001600260008373ffffffffffffffffffffffffffffffffffffffff1673ffffffffffffffffffffffffffffffffffffffff16815260200190815260200160002060006101000a81548160ff021916908360038111156108cb576108ca612392565b5b021790555060018060008373ffffffffffffffffffffffffffffffffffffffff1673ffffffffffffffffffffffffffffffffffffffff16815260200190815260200160002060030160006101000a81548160ff0219169083600381111561093557610934612392565b5b02179055508073ffffffffffffffffffffffffffffffffffffffff167f4ac36fa53f167ceb85964be512e01de2a3b8bdb9862f917da079deeeff689b3860016040516109819190612409565b60405180910390a250565b6000600260038111156109a2576109a1612392565b5b600260003373ffffffffffffffffffffffffffffffffffffffff1673ffffffffffffffffffffffffffffffffffffffff16815260200190815260200160002060009054906101000a900460ff166003811115610a0157610a00612392565b5b14905090565b60006003811115610a1b57610a1a612392565b5b600260003373ffffffffffffffffffffffffffffffffffffffff1673ffffffffffffffffffffffffffffffffffffffff16815260200190815260200160002060009054906101000a900460ff166003811115610a7a57610a79612392565b5b14610aba576040517f08c379a0000000000000000000000000000000000000000000000000000000008152600401610ab190612e2d565b60405180910390fd5b60028060008373ffffffffffffffffffffffffffffffffffffffff1673ffffffffffffffffffffffffffffffffffffffff16815260200190815260200160002060006101000a81548160ff02191690836003811115610b1c57610b1b612392565b5b02179055506002600160008373ffffffffffffffffffffffffffffffffffffffff1673ffffffffffffffffffffffffffffffffffffffff16815260200190815260200160002060030160006101000a81548160ff02191690836003811115610b8757610b86612392565b5b02179055508073ffffffffffffffffffffffffffffffffffffffff167f4ac36fa53f167ceb85964be512e01de2a3b8bdb9862f917da079deeeff689b386002604051610bd39190612409565b60405180910390a250565b60006003811115610bf257610bf1612392565b5b600260003373ffffffffffffffffffffffffffffffffffffffff1673ffffffffffffffffffffffffffffffffffffffff16815260200190815260200160002060009054906101000a900460ff166003811115610c5157610c50612392565b5b14610c91576040517f08c379a0000000000000000000000000000000000000000000000000000000008152600401610c8890612e2d565b60405180910390fd5b80600260008473ffffffffffffffffffffffffffffffffffffffff1673ffffffffffffffffffffffffffffffffffffffff16815260200190815260200160002060006101000a81548160ff02191690836003811115610cf357610cf2612392565b5b021790555080600160008473ffffffffffffffffffffffffffffffffffffffff1673ffffffffffffffffffffffffffffffffffffffff16815260200190815260200160002060030160006101000a81548160ff02191690836003811115610d5d57610d5c612392565b5b02179055508173ffffffffffffffffffffffffffffffffffffffff167f4ac36fa53f167ceb85964be512e01de2a3b8bdb9862f917da079deeeff689b3882604051610da89190612409565b60405180910390a25050565b610dbc61218f565b600160008373ffffffffffffffffffffffffffffffffffffffff1673ffffffffffffffffffffffffffffffffffffffff1681526020019081526020016000206040518060a0016040529081600082018054610e1690612d8a565b80601f0160208091040260200160405190810160405280929190818152602001828054610e4290612d8a565b8015610e8f5780601f10610e6457610100808354040283529160200191610e8f565b820191906000526020600020905b815481529060010190602001808311610e7257829003601f168201915b50505050508152602001600182018054610ea890612d8a565b80601f0160208091040260200160405190810160405280929190818152602001828054610ed490612d8a565b8015610f215780601f10610ef657610100808354040283529160200191610f21565b820191906000526020600020905b815481529060010190602001808311610f0457829003601f168201915b50505050508152602001600282018054610f3a90612d8a565b80601f0160208091040260200160405190810160405280929190818152602001828054610f6690612d8a565b8015610fb35780601f10610f8857610100808354040283529160200191610fb3565b820191906000526020600020905b815481529060010190602001808311610f9657829003601f168201915b505050505081526020016003820160009054906101000a900460ff166003811115610fe157610fe0612392565b5b6003811115610ff357610ff2612392565b5b81526020016003820160019054906101000a900460ff1615151515815250509050919050565b60026020528060005260406000206000915054906101000a900460ff1681565b6001600381111561104d5761104c612392565b5b600260003373ffffffffffffffffffffffffffffffffffffffff1673ffffffffffffffffffffffffffffffffffffffff16815260200190815260200160002060009054906101000a900460ff1660038111156110ac576110ab612392565b5b146110ec576040517f08c379a00000000000000000000000000000000000000000000000000000000081526004016110e390612ebf565b60405180910390fd5b60648360ff161115611133576040517f08c379a000000000000000000000000000000000000000000000000000000000815260040161112a90612f2b565b60405180910390fd5b60006040518061010001604052808b8b8080601f016020809104026020016040519081016040528093929190818152602001838380828437600081840152601f19601f82011690508083019250505050505050815260200189898080601f016020809104026020016040519081016040528093929190818152602001838380828437600081840152601f19601f82011690508083019250505050505050815260200187878080601f016020809104026020016040519081016040528093929190818152602001838380828437600081840152601f19601f8201169050808301925050505050505081526020018560ff1681526020014281526020013373ffffffffffffffffffffffffffffffffffffffff1681526020016040518060400160405280600681526020017f6163746976650000000000000000000000000000000000000000000000000000815250815260200184848080601f016020809104026020016040519081016040528093929190818152602001838380828437600081840152601f19601f820116905080830192505050505050508152509050600388886040516112e1929190612d42565b9081526020016040518091039020819080600181540180825580915050600190039060005260206000209060080201600090919091909150600082015181600001908161132e9190613126565b5060208201518160010190816113449190613126565b50604082015181600201908161135a9190613126565b5060608201518160030160006101000a81548160ff021916908360ff1602179055506080820151816004015560a08201518160050160006101000a81548173ffffffffffffffffffffffffffffffffffffffff021916908373ffffffffffffffffffffffffffffffffffffffff16021790555060c08201518160060190816113e29190613126565b5060e08201518160070190816113f89190613126565b505050898960405161140b929190612d42565b60405180910390207f627963807a8bf04ead78ad4ce670ae62ce55900c4fade3cc8e2a4d166cec29ad89898989893360405161144c96959493929190613234565b60405180910390a250505050505050505050565b6000600381111561147457611473612392565b5b600260003373ffffffffffffffffffffffffffffffffffffffff1673ffffffffffffffffffffffffffffffffffffffff16815260200190815260200160002060009054906101000a900460ff1660038111156114d3576114d2612392565b5b14611513576040517f08c379a000000000000000000000000000000000000000000000000000000000815260040161150a90612e2d565b60405180910390fd5b60038585604051611525929190612d42565b9081526020016040518091039020805490508310611578576040517f08c379a000000000000000000000000000000000000000000000000000000000815260040161156f906132d7565b60405180910390fd5b81816003878760405161158c929190612d42565b908152602001604051809103902085815481106115ac576115ab6132f7565b5b906000526020600020906008020160060191826115ca929190613331565b50600385856040516115dd929190612d42565b908152602001604051809103902083815481106115fd576115fc6132f7565b5b906000526020600020906008020160000160405161161b9190613484565b60405180910390207fc165a69394bea88b86166a0fdb532b300f7248e34bde1800c3be1ce6ae82ac6d838360405161165492919061349b565b60405180910390a25050505050565b600060038081111561167857611677612392565b5b600260003373ffffffffffffffffffffffffffffffffffffffff1673ffffffffffffffffffffffffffffffffffffffff16815260200190815260200160002060009054906101000a900460ff1660038111156116d7576116d6612392565b5b14905090565b600060038111156116f1576116f0612392565b5b600260003373ffffffffffffffffffffffffffffffffffffffff1673ffffffffffffffffffffffffffffffffffffffff16815260200190815260200160002060009054906101000a900460ff1660038111156117505761174f612392565b5b14611790576040517f08c379a000000000000000000000000000000000000000000000000000000000815260040161178790612e2d565b60405180910390fd5b600160008273ffffffffffffffffffffffffffffffffffffffff1673ffffffffffffffffffffffffffffffffffffffff16815260200190815260200160002060030160019054906101000a900460ff1661181f576040517f08c379a00000000000000000000000000000000000000000000000000000000081526004016118169061350b565b60405180910390fd5b6003600160008373ffffffffffffffffffffffffffffffffffffffff1673ffffffffffffffffffffffffffffffffffffffff1681526020019081526020016000206000016040516118709190613484565b9081526020016040518091039020600061188a91906121d2565b600160008273ffffffffffffffffffffffffffffffffffffffff1673ffffffffffffffffffffffffffffffffffffffff168152602001908152602001600020600080820160006118da91906121f6565b6001820160006118ea91906121f6565b6002820160006118fa91906121f6565b6003820160006101000a81549060ff02191690556003820160016101000a81549060ff021916905550508073ffffffffffffffffffffffffffffffffffffffff167fe9dce8c992623ce791725b21e857e33248d1f190a25b5168313420eebdaae99d60405160405180910390a250565b600160205280600052604060002060009150905080600001805461198d90612d8a565b80601f01602080910402602001604051908101604052809291908181526020018280546119b990612d8a565b8015611a065780601f106119db57610100808354040283529160200191611a06565b820191906000526020600020905b8154815290600101906020018083116119e957829003601f168201915b505050505090806001018054611a1b90612d8a565b80601f0160208091040260200160405190810160405280929190818152602001828054611a4790612d8a565b8015611a945780601f10611a6957610100808354040283529160200191611a94565b820191906000526020600020905b815481529060010190602001808311611a7757829003601f168201915b505050505090806002018054611aa990612d8a565b80601f0160208091040260200160405190810160405280929190818152602001828054611ad590612d8a565b8015611b225780601f10611af757610100808354040283529160200191611b22565b820191906000526020600020905b815481529060010190602001808311611b0557829003601f168201915b5050505050908060030160009054906101000a900460ff16908060030160019054906101000a900460ff16905085565b6000806003811115611b6757611b66612392565b5b600260003373ffffffffffffffffffffffffffffffffffffffff1673ffffffffffffffffffffffffffffffffffffffff16815260200190815260200160002060009054906101000a900460ff166003811115611bc657611bc5612392565b5b14905090565b600060016003811115611be257611be1612392565b5b600260003373ffffffffffffffffffffffffffffffffffffffff1673ffffffffffffffffffffffffffffffffffffffff16815260200190815260200160002060009054906101000a900460ff166003811115611c4157611c40612392565b5b14905090565b60006003811115611c5b57611c5a612392565b5b600260003373ffffffffffffffffffffffffffffffffffffffff1673ffffffffffffffffffffffffffffffffffffffff16815260200190815260200160002060009054906101000a900460ff166003811115611cba57611cb9612392565b5b03611cfa576040517f08c379a0000000000000000000000000000000000000000000000000000000008152600401611cf190613577565b60405180910390fd5b600160003373ffffffffffffffffffffffffffffffffffffffff1673ffffffffffffffffffffffffffffffffffffffff16815260200190815260200160002060030160019054906101000a900460ff1615611d8a576040517f08c379a0000000000000000000000000000000000000000000000000000000008152600401611d8190613609565b60405180910390fd5b6040518060a0016040528087878080601f016020809104026020016040519081016040528093929190818152602001838380828437600081840152601f19601f82011690508083019250505050505050815260200185858080601f016020809104026020016040519081016040528093929190818152602001838380828437600081840152601f19601f82011690508083019250505050505050815260200183838080601f016020809104026020016040519081016040528093929190818152602001838380828437600081840152601f19601f82011690508083019250505050505050815260200160026003811115611e8757611e86612392565b5b815260200160011515815250600160003373ffffffffffffffffffffffffffffffffffffffff1673ffffffffffffffffffffffffffffffffffffffff1681526020019081526020016000206000820151816000019081611ee79190613126565b506020820151816001019081611efd9190613126565b506040820151816002019081611f139190613126565b5060608201518160030160006101000a81548160ff02191690836003811115611f3f57611f3e612392565b5b021790555060808201518160030160016101000a81548160ff0219169083151502179055509050506004339080600181540180825580915050600190039060005260206000200160009091909190916101000a81548173ffffffffffffffffffffffffffffffffffffffff021916908373ffffffffffffffffffffffffffffffffffffffff1602179055503373ffffffffffffffffffffffffffffffffffffffff167f509c70f523067009f7db7f46db6956d7af8b679323680dc3821a8bad001ac1e187878787878760405161201a96959493929190613629565b60405180910390a2505050505050565b6060600060038111156120405761203f612392565b5b600260003373ffffffffffffffffffffffffffffffffffffffff1673ffffffffffffffffffffffffffffffffffffffff16815260200190815260200160002060009054906101000a900460ff16600381111561209f5761209e612392565b5b146120df576040517f08c379a00000000000000000000000000000000000000000000000000000000081526004016120d690612e2d565b60405180910390fd5b600480548060200260200160405190810160405280929190818152602001828054801561216157602002820191906000526020600020905b8160009054906101000a900473ffffffffffffffffffffffffffffffffffffffff1673ffffffffffffffffffffffffffffffffffffffff1681526020019060010190808311612117575b5050505050905090565b60008054906101000a900473ffffffffffffffffffffffffffffffffffffffff1681565b6040518060a00160405280606081526020016060815260200160608152602001600060038111156121c3576121c2612392565b5b81526020016000151581525090565b50805460008255600802906000526020600020908101906121f39190612236565b50565b50805461220290612d8a565b6000825580601f106122145750612233565b601f01602090049060005260206000209081019061223291906122e0565b5b50565b5b808211156122dc576000808201600061225091906121f6565b60018201600061226091906121f6565b60028201600061227091906121f6565b6003820160006101000a81549060ff021916905560048201600090556005820160006101000a81549073ffffffffffffffffffffffffffffffffffffffff02191690556006820160006122c391906121f6565b6007820160006122d391906121f6565b50600801612237565b5090565b5b808211156122f95760008160009055506001016122e1565b5090565b600080fd5b600080fd5b600073ffffffffffffffffffffffffffffffffffffffff82169050919050565b600061233282612307565b9050919050565b61234281612327565b811461234d57600080fd5b50565b60008135905061235f81612339565b92915050565b60006020828403121561237b5761237a6122fd565b5b600061238984828501612350565b91505092915050565b7f4e487b7100000000000000000000000000000000000000000000000000000000600052602160045260246000fd5b600481106123d2576123d1612392565b5b50565b60008190506123e3826123c1565b919050565b60006123f3826123d5565b9050919050565b612403816123e8565b82525050565b600060208201905061241e60008301846123fa565b92915050565b600080fd5b600080fd5b600080fd5b60008083601f84011261244957612448612424565b5b8235905067ffffffffffffffff81111561246657612465612429565b5b6020830191508360018202830111156124825761248161242e565b5b9250929050565b600080602083850312156124a05761249f6122fd565b5b600083013567ffffffffffffffff8111156124be576124bd612302565b5b6124ca85828601612433565b92509250509250929050565b600081519050919050565b600082825260208201905092915050565b6000819050602082019050919050565b600081519050919050565b600082825260208201905092915050565b60005b8381101561253c578082015181840152602081019050612521565b60008484015250505050565b6000601f19601f8301169050919050565b600061256482612502565b61256e818561250d565b935061257e81856020860161251e565b61258781612548565b840191505092915050565b600060ff82169050919050565b6125a881612592565b82525050565b6000819050919050565b6125c1816125ae565b82525050565b6125d081612327565b82525050565b60006101008301600083015184820360008601526125f48282612559565b9150506020830151848203602086015261260e8282612559565b915050604083015184820360408601526126288282612559565b915050606083015161263d606086018261259f565b50608083015161265060808601826125b8565b5060a083015161266360a08601826125c7565b5060c083015184820360c086015261267b8282612559565b91505060e083015184820360e08601526126958282612559565b9150508091505092915050565b60006126ae83836125d6565b905092915050565b6000602082019050919050565b60006126ce826124d6565b6126d881856124e1565b9350836020820285016126ea856124f2565b8060005b85811015612726578484038952815161270785826126a2565b9450612712836126b6565b925060208a019950506001810190506126ee565b50829750879550505050505092915050565b6000602082019050818103600083015261275281846126c3565b905092915050565b60008115159050919050565b61276f8161275a565b82525050565b600060208201905061278a6000830184612766565b92915050565b6004811061279d57600080fd5b50565b6000813590506127af81612790565b92915050565b600080604083850312156127cc576127cb6122fd565b5b60006127da85828601612350565b92505060206127eb858286016127a0565b9150509250929050565b6127fe816123e8565b82525050565b61280d8161275a565b82525050565b600060a08301600083015184820360008601526128308282612559565b9150506020830151848203602086015261284a8282612559565b915050604083015184820360408601526128648282612559565b915050606083015161287960608601826127f5565b50608083015161288c6080860182612804565b508091505092915050565b600060208201905081810360008301526128b18184612813565b905092915050565b6128c281612592565b81146128cd57600080fd5b50565b6000813590506128df816128b9565b92915050565b600080600080600080600080600060a08a8c031215612907576129066122fd565b5b60008a013567ffffffffffffffff81111561292557612924612302565b5b6129318c828d01612433565b995099505060208a013567ffffffffffffffff81111561295457612953612302565b5b6129608c828d01612433565b975097505060408a013567ffffffffffffffff81111561298357612982612302565b5b61298f8c828d01612433565b955095505060606129a28c828d016128d0565b93505060808a013567ffffffffffffffff8111156129c3576129c2612302565b5b6129cf8c828d01612433565b92509250509295985092959850929598565b6129ea816125ae565b81146129f557600080fd5b50565b600081359050612a07816129e1565b92915050565b600080600080600060608688031215612a2957612a286122fd565b5b600086013567ffffffffffffffff811115612a4757612a46612302565b5b612a5388828901612433565b95509550506020612a66888289016129f8565b935050604086013567ffffffffffffffff811115612a8757612a86612302565b5b612a9388828901612433565b92509250509295509295909350565b600082825260208201905092915050565b6000612abe82612502565b612ac88185612aa2565b9350612ad881856020860161251e565b612ae181612548565b840191505092915050565b600060a0820190508181036000830152612b068188612ab3565b90508181036020830152612b1a8187612ab3565b90508181036040830152612b2e8186612ab3565b9050612b3d60608301856123fa565b612b4a6080830184612766565b9695505050505050565b60008060008060008060608789031215612b7157612b706122fd565b5b600087013567ffffffffffffffff811115612b8f57612b8e612302565b5b612b9b89828a01612433565b9650965050602087013567ffffffffffffffff811115612bbe57612bbd612302565b5b612bca89828a01612433565b9450945050604087013567ffffffffffffffff811115612bed57612bec612302565b5b612bf989828a01612433565b92509250509295509295509295565b600081519050919050565b600082825260208201905092915050565b6000819050602082019050919050565b6000612c4083836125c7565b60208301905092915050565b6000602082019050919050565b6000612c6482612c08565b612c6e8185612c13565b9350612c7983612c24565b8060005b83811015612caa578151612c918882612c34565b9750612c9c83612c4c565b925050600181019050612c7d565b5085935050505092915050565b60006020820190508181036000830152612cd18184612c59565b905092915050565b612ce281612327565b82525050565b6000602082019050612cfd6000830184612cd9565b92915050565b600081905092915050565b82818337600083830152505050565b6000612d298385612d03565b9350612d36838584612d0e565b82840190509392505050565b6000612d4f828486612d1d565b91508190509392505050565b7f4e487b7100000000000000000000000000000000000000000000000000000000600052602260045260246000fd5b60006002820490506001821680612da257607f821691505b602082108103612db557612db4612d5b565b5b50919050565b7f4f6e6c792061646d696e2063616e20706572666f726d2074686973206163746960008201527f6f6e000000000000000000000000000000000000000000000000000000000000602082015250565b6000612e17602283612aa2565b9150612e2282612dbb565b604082019050919050565b60006020820190508181036000830152612e4681612e0a565b9050919050565b7f4f6e6c7920746561636865722063616e20706572666f726d207468697320616360008201527f74696f6e00000000000000000000000000000000000000000000000000000000602082015250565b6000612ea9602483612aa2565b9150612eb482612e4d565b604082019050919050565b60006020820190508181036000830152612ed881612e9c565b9050919050565b7f496e76616c69642073636f726500000000000000000000000000000000000000600082015250565b6000612f15600d83612aa2565b9150612f2082612edf565b602082019050919050565b60006020820190508181036000830152612f4481612f08565b9050919050565b7f4e487b7100000000000000000000000000000000000000000000000000000000600052604160045260246000fd5b60008190508160005260206000209050919050565b60006020601f8301049050919050565b600082821b905092915050565b600060088302612fdc7fffffffffffffffffffffffffffffffffffffffffffffffffffffffffffffffff82612f9f565b612fe68683612f9f565b95508019841693508086168417925050509392505050565b6000819050919050565b600061302361301e613019846125ae565b612ffe565b6125ae565b9050919050565b6000819050919050565b61303d83613008565b6130516130498261302a565b848454612fac565b825550505050565b600090565b613066613059565b613071818484613034565b505050565b5b818110156130955761308a60008261305e565b600181019050613077565b5050565b601f8211156130da576130ab81612f7a565b6130b484612f8f565b810160208510156130c3578190505b6130d76130cf85612f8f565b830182613076565b50505b505050565b600082821c905092915050565b60006130fd600019846008026130df565b1980831691505092915050565b600061311683836130ec565b9150826002028217905092915050565b61312f82612502565b67ffffffffffffffff81111561314857613147612f4b565b5b6131528254612d8a565b61315d828285613099565b600060209050601f831160018114613190576000841561317e578287015190505b613188858261310a565b8655506131f0565b601f19841661319e86612f7a565b60005b828110156131c6578489015182556001820191506020850194506020810190506131a1565b868310156131e357848901516131df601f8916826130ec565b8355505b6001600288020188555050505b505050505050565b60006132048385612aa2565b9350613211838584612d0e565b61321a83612548565b840190509392505050565b61322e81612592565b82525050565b6000608082019050818103600083015261324f81888a6131f8565b905081810360208301526132648186886131f8565b90506132736040830185613225565b6132806060830184612cd9565b979650505050505050565b7f496e76616c696420696e64657800000000000000000000000000000000000000600082015250565b60006132c1600d83612aa2565b91506132cc8261328b565b602082019050919050565b600060208201905081810360008301526132f0816132b4565b9050919050565b7f4e487b7100000000000000000000000000000000000000000000000000000000600052603260045260246000fd5b600082905092915050565b61333b8383613326565b67ffffffffffffffff81111561335457613353612f4b565b5b61335e8254612d8a565b613369828285613099565b6000601f8311600181146133985760008415613386578287013590505b613390858261310a565b8655506133f8565b601f1984166133a686612f7a565b60005b828110156133ce578489013582556001820191506020850194506020810190506133a9565b868310156133eb57848901356133e7601f8916826130ec565b8355505b6001600288020188555050505b50505050505050565b6000815461340e81612d8a565b6134188186612d03565b9450600182166000811461343357600181146134485761347b565b60ff198316865281151582028601935061347b565b61345185612f7a565b60005b8381101561347357815481890152600182019150602081019050613454565b838801955050505b50505092915050565b60006134908284613401565b915081905092915050565b600060208201905081810360008301526134b68184866131f8565b90509392505050565b7f55736572206973206e6f7420726567697374657265642e000000000000000000600082015250565b60006134f5601783612aa2565b9150613500826134bf565b602082019050919050565b60006020820190508181036000830152613524816134e8565b9050919050565b7f41646d696e732063616e6e6f7420726567697374657200000000000000000000600082015250565b6000613561601683612aa2565b915061356c8261352b565b602082019050919050565b6000602082019050818103600083015261359081613554565b9050919050565b7f54686973206164647265737320697320616c726561647920726567697374657260008201527f65642e0000000000000000000000000000000000000000000000000000000000602082015250565b60006135f3602383612aa2565b91506135fe82613597565b604082019050919050565b60006020820190508181036000830152613622816135e6565b9050919050565b6000606082019050818103600083015261364481888a6131f8565b905081810360208301526136598186886131f8565b9050818103604083015261366e8184866131f8565b905097965050505050505056fea26469706673582212203b512da421262d7ff6cef1eaa2df76f88089ce502b8cac54dd6baef70489c54a64736f6c63430008140033",
  "linkReferences": {},
  "deployedLinkReferences": {}
}