{
  "_format": "hh-sol-artifact-1",
  "contractName": "EducationGrades",
  "sourceName": "contracts/EducationGrades.sol",
  "abi": [
    {
      "inputs": [],
      "stateMutability": "nonpayable",
      "type": "constructor"
    },
    {
      "anonymous": false,
      "inputs": [
        {
          "indexed": true,
          "internalType": "string",
          "name": "gradeId",
          "type": "string"
        },
        {
          "indexed": false,
          "internalType": "address",
          "name": "approvedBy",
          "type": "address"
        }
      ],
      "name": "GradeApproved",
      "type": "event"
    },
    {
      "anonymous": false,
      "inputs": [
        {
          "indexed": true,
          "internalType": "string",
          "name": "gradeId",
          "type": "string"
        },
        {
          "indexed": false,
          "internalType": "string",
          "name": "newStatus",
          "type": "string"
        }
      ],
      "name": "GradeStatusUpdated",
      "type": "event"
    },
    {
      "anonymous": false,
      "inputs": [
        {
          "indexed": true,
          "internalType": "string",
          "name": "gradeId",
          "type": "string"
        },
        {
          "indexed": false,
          "internalType": "string",
          "name": "studentId",
          "type": "string"
        },
        {
          "indexed": false,
          "internalType": "string",
          "name": "course",
          "type": "string"
        },
        {
          "indexed": false,
          "internalType": "uint8",
          "name": "score",
          "type": "uint8"
        },
        {
          "indexed": false,
          "internalType": "address",
          "name": "teacher",
          "type": "address"
        }
      ],
      "name": "GradeUploaded",
      "type": "event"
    },
    {
      "anonymous": false,
      "inputs": [
        {
          "indexed": true,
          "internalType": "address",
          "name": "user",
          "type": "address"
        },
        {
          "indexed": false,
          "internalType": "enum EducationGrades.Role",
          "name": "role",
          "type": "uint8"
        }
      ],
      "name": "RoleAssigned",
      "type": "event"
    },
    {
      "anonymous": false,
      "inputs": [
        {
          "indexed": true,
          "internalType": "address",
          "name": "user",
          "type": "address"
        },
        {
          "indexed": false,
          "internalType": "string",
          "name": "username",
          "type": "string"
        },
        {
          "indexed": false,
          "internalType": "string",
          "name": "email",
          "type": "string"
        },
        {
          "indexed": false,
          "internalType": "string",
          "name": "contactNumber",
          "type": "string"
        }
      ],
      "name": "UserRegistered",
      "type": "event"
    },
    {
      "anonymous": false,
      "inputs": [
        {
          "indexed": true,
          "internalType": "address",
          "name": "user",
          "type": "address"
        }
      ],
      "name": "UserRemoved",
      "type": "event"
    },
    {
      "inputs": [
        {
          "internalType": "address",
          "name": "_teacher",
          "type": "address"
        }
      ],
      "name": "addTeacher",
      "outputs": [],
      "stateMutability": "nonpayable",
      "type": "function"
    },
    {
      "inputs": [],
      "name": "admin",
      "outputs": [
        {
          "internalType": "address",
          "name": "",
          "type": "address"
        }
      ],
      "stateMutability": "view",
      "type": "function"
    },
    {
      "inputs": [
        {
          "internalType": "string",
          "name": "gradeId",
          "type": "string"
        }
      ],
      "name": "approveGrade",
      "outputs": [],
      "stateMutability": "nonpayable",
      "type": "function"
    },
    {
      "inputs": [
        {
          "internalType": "address",
          "name": "_user",
          "type": "address"
        },
        {
          "internalType": "enum EducationGrades.Role",
          "name": "_role",
          "type": "uint8"
        }
      ],
      "name": "assignRole",
      "outputs": [],
      "stateMutability": "nonpayable",
      "type": "function"
    },
    {
      "inputs": [],
      "name": "getAllUsers",
      "outputs": [
        {
          "internalType": "address[]",
          "name": "",
          "type": "address[]"
        }
      ],
      "stateMutability": "view",
      "type": "function"
    },
    {
      "inputs": [
        {
          "internalType": "address",
          "name": "studentAddress",
          "type": "address"
        }
      ],
      "name": "getGradesByAddress",
      "outputs": [
        {
          "components": [
            {
              "internalType": "string",
              "name": "gradeId",
              "type": "string"
            },
            {
              "internalType": "string",
              "name": "studentId",
              "type": "string"
            },
            {
              "internalType": "string",
              "name": "course",
              "type": "string"
            },
            {
              "internalType": "uint8",
              "name": "score",
              "type": "uint8"
            },
            {
              "internalType": "uint256",
              "name": "timestamp",
              "type": "uint256"
            },
            {
              "internalType": "address",
              "name": "teacher",
              "type": "address"
            },
            {
              "internalType": "string",
              "name": "status",
              "type": "string"
            },
            {
              "internalType": "string",
              "name": "remark",
              "type": "string"
            }
          ],
          "internalType": "struct EducationGrades.Grade[]",
          "name": "",
          "type": "tuple[]"
        }
      ],
      "stateMutability": "view",
      "type": "function"
    },
    {
      "inputs": [
        {
          "internalType": "string",
          "name": "studentId",
          "type": "string"
        }
      ],
      "name": "getGradesByStudentId",
      "outputs": [
        {
          "components": [
            {
              "internalType": "string",
              "name": "gradeId",
              "type": "string"
            },
            {
              "internalType": "string",
              "name": "studentId",
              "type": "string"
            },
            {
              "internalType": "string",
              "name": "course",
              "type": "string"
            },
            {
              "internalType": "uint8",
              "name": "score",
              "type": "uint8"
            },
            {
              "internalType": "uint256",
              "name": "timestamp",
              "type": "uint256"
            },
            {
              "internalType": "address",
              "name": "teacher",
              "type": "address"
            },
            {
              "internalType": "string",
              "name": "status",
              "type": "string"
            },
            {
              "internalType": "string",
              "name": "remark",
              "type": "string"
            }
          ],
          "internalType": "struct EducationGrades.Grade[]",
          "name": "",
          "type": "tuple[]"
        }
      ],
      "stateMutability": "view",
      "type": "function"
    },
    {
      "inputs": [
        {
          "internalType": "string",
          "name": "username",
          "type": "string"
        }
      ],
      "name": "getGradesByUsername",
      "outputs": [
        {
          "components": [
            {
              "internalType": "string",
              "name": "gradeId",
              "type": "string"
            },
            {
              "internalType": "string",
              "name": "studentId",
              "type": "string"
            },
            {
              "internalType": "string",
              "name": "course",
              "type": "string"
            },
            {
              "internalType": "uint8",
              "name": "score",
              "type": "uint8"
            },
            {
              "internalType": "uint256",
              "name": "timestamp",
              "type": "uint256"
            },
            {
              "internalType": "address",
              "name": "teacher",
              "type": "address"
            },
            {
              "internalType": "string",
              "name": "status",
              "type": "string"
            },
            {
              "internalType": "string",
              "name": "remark",
              "type": "string"
            }
          ],
          "internalType": "struct EducationGrades.Grade[]",
          "name": "",
          "type": "tuple[]"
        }
      ],
      "stateMutability": "view",
      "type": "function"
    },
    {
      "inputs": [
        {
          "internalType": "address",
          "name": "teacherAddress",
          "type": "address"
        }
      ],
      "name": "getPendingGradesByTeacher",
      "outputs": [
        {
          "components": [
            {
              "internalType": "string",
              "name": "gradeId",
              "type": "string"
            },
            {
              "internalType": "string",
              "name": "studentId",
              "type": "string"
            },
            {
              "internalType": "string",
              "name": "course",
              "type": "string"
            },
            {
              "internalType": "uint8",
              "name": "score",
              "type": "uint8"
            },
            {
              "internalType": "uint256",
              "name": "timestamp",
              "type": "uint256"
            },
            {
              "internalType": "address",
              "name": "teacher",
              "type": "address"
            },
            {
              "internalType": "string",
              "name": "status",
              "type": "string"
            },
            {
              "internalType": "string",
              "name": "remark",
              "type": "string"
            }
          ],
          "internalType": "struct EducationGrades.Grade[]",
          "name": "",
          "type": "tuple[]"
        }
      ],
      "stateMutability": "view",
      "type": "function"
    },
    {
      "inputs": [
        {
          "internalType": "address",
          "name": "_user",
          "type": "address"
        }
      ],
      "name": "getUserInfo",
      "outputs": [
        {
          "components": [
            {
              "internalType": "string",
              "name": "username",
              "type": "string"
            },
            {
              "internalType": "string",
              "name": "email",
              "type": "string"
            },
            {
              "internalType": "string",
              "name": "contactNumber",
              "type": "string"
            },
            {
              "internalType": "enum EducationGrades.Role",
              "name": "role",
              "type": "uint8"
            },
            {
              "internalType": "bool",
              "name": "isRegistered",
              "type": "bool"
            }
          ],
          "internalType": "struct EducationGrades.User",
          "name": "",
          "type": "tuple"
        }
      ],
      "stateMutability": "view",
      "type": "function"
    },
    {
      "inputs": [
        {
          "internalType": "address",
          "name": "_user",
          "type": "address"
        }
      ],
      "name": "getUserRole",
      "outputs": [
        {
          "internalType": "enum EducationGrades.Role",
          "name": "",
          "type": "uint8"
        }
      ],
      "stateMutability": "view",
      "type": "function"
    },
    {
      "inputs": [],
      "name": "isAdmin",
      "outputs": [
        {
          "internalType": "bool",
          "name": "",
          "type": "bool"
        }
      ],
      "stateMutability": "view",
      "type": "function"
    },
    {
      "inputs": [],
      "name": "isGradeManager",
      "outputs": [
        {
          "internalType": "bool",
          "name": "",
          "type": "bool"
        }
      ],
      "stateMutability": "view",
      "type": "function"
    },
    {
      "inputs": [],
      "name": "isStudent",
      "outputs": [
        {
          "internalType": "bool",
          "name": "",
          "type": "bool"
        }
      ],
      "stateMutability": "view",
      "type": "function"
    },
    {
      "inputs": [],
      "name": "isTeacher",
      "outputs": [
        {
          "internalType": "bool",
          "name": "",
          "type": "bool"
        }
      ],
      "stateMutability": "view",
      "type": "function"
    },
    {
      "inputs": [
        {
          "internalType": "string",
          "name": "username",
          "type": "string"
        },
        {
          "internalType": "string",
          "name": "email",
          "type": "string"
        },
        {
          "internalType": "string",
          "name": "contactNumber",
          "type": "string"
        }
      ],
      "name": "registerUser",
      "outputs": [],
      "stateMutability": "nonpayable",
      "type": "function"
    },
    {
      "inputs": [
        {
          "internalType": "address",
          "name": "_teacher",
          "type": "address"
        }
      ],
      "name": "removeTeacher",
      "outputs": [],
      "stateMutability": "nonpayable",
      "type": "function"
    },
    {
      "inputs": [
        {
          "internalType": "address",
          "name": "_user",
          "type": "address"
        }
      ],
      "name": "removeUser",
      "outputs": [],
      "stateMutability": "nonpayable",
      "type": "function"
    },
    {
      "inputs": [
        {
          "internalType": "string",
          "name": "gradeId",
          "type": "string"
        },
        {
          "internalType": "string",
          "name": "newStatus",
          "type": "string"
        }
      ],
      "name": "updateGradeStatus",
      "outputs": [],
      "stateMutability": "nonpayable",
      "type": "function"
    },
    {
      "inputs": [
        {
          "internalType": "string",
          "name": "gradeId",
          "type": "string"
        },
        {
          "internalType": "string",
          "name": "studentId",
          "type": "string"
        },
        {
          "internalType": "string",
          "name": "course",
          "type": "string"
        },
        {
          "internalType": "uint8",
          "name": "score",
          "type": "uint8"
        },
        {
          "internalType": "string",
          "name": "remark",
          "type": "string"
        },
        {
          "internalType": "address",
          "name": "studentAddress",
          "type": "address"
        }
      ],
      "name": "uploadGrade",
      "outputs": [],
      "stateMutability": "nonpayable",
      "type": "function"
    },
    {
      "inputs": [
        {
          "internalType": "address",
          "name": "",
          "type": "address"
        }
      ],
      "name": "userRoles",
      "outputs": [
        {
          "internalType": "enum EducationGrades.Role",
          "name": "",
          "type": "uint8"
        }
      ],
      "stateMutability": "view",
      "type": "function"
    },
    {
      "inputs": [
        {
          "internalType": "address",
          "name": "",
          "type": "address"
        }
      ],
      "name": "users",
      "outputs": [
        {
          "internalType": "string",
          "name": "username",
          "type": "string"
        },
        {
          "internalType": "string",
          "name": "email",
          "type": "string"
        },
        {
          "internalType": "string",
          "name": "contactNumber",
          "type": "string"
        },
        {
          "internalType": "enum EducationGrades.Role",
          "name": "role",
          "type": "uint8"
        },
        {
          "internalType": "bool",
          "name": "isRegistered",
          "type": "bool"
        }
      ],
      "stateMutability": "view",
      "type": "function"
    }
  ],
  "bytecode": "0x60806040523480156200001157600080fd5b50336000806101000a81548173ffffffffffffffffffffffffffffffffffffffff021916908373ffffffffffffffffffffffffffffffffffffffff1602179055506000600260008060009054906101000a900473ffffffffffffffffffffffffffffffffffffffff1673ffffffffffffffffffffffffffffffffffffffff1673ffffffffffffffffffffffffffffffffffffffff16815260200190815260200160002060006101000a81548160ff02191690836003811115620000d957620000d8620000e4565b5b021790555062000113565b7f4e487b7100000000000000000000000000000000000000000000000000000000600052602160045260246000fd5b61518680620001236000396000f3fe608060405234801561001057600080fd5b50600436106101425760003560e01c80639348f85b116100b8578063b6db75a01161007c578063b6db75a0146103af578063c64a4bad146103cd578063d637dcfa146103eb578063e2842d7914610407578063edf87ca114610425578063f851a4401461044157610142565b80639348f85b146102e1578063963e44f114610311578063985751881461032f578063a87430ba1461034b578063adad93301461037f57610142565b806352ff68461161010a57806352ff6846146101fd57806356eac99b14610219578063630a195b146102355780636386c1c7146102515780636ede0b2e1461028157806374d5e100146102b157610142565b80631109485b1461014757806327820851146101775780633465f00b146101a75780633bc6e309146101c357806351e0a6eb146101df575b600080fd5b610161600480360381019061015c9190613ce1565b61045f565b60405161016e9190613fc2565b60405180910390f35b610191600480360381019061018c9190614010565b610837565b60405161019e91906140b4565b60405180910390f35b6101c160048036038101906101bc9190613ce1565b61088d565b005b6101dd60048036038101906101d89190614010565b610c49565b005b6101e7610e20565b6040516101f491906140ea565b60405180910390f35b61021760048036038101906102129190614010565b610e9b565b005b610233600480360381019061022e9190614131565b611072565b005b61024f600480360381019061024a9190614266565b61192a565b005b61026b60048036038101906102669190614010565b611b00565b6040516102789190614348565b60405180910390f35b61029b60048036038101906102969190614010565b611d65565b6040516102a89190613fc2565b60405180910390f35b6102cb60048036038101906102c69190614010565b61215b565b6040516102d891906140b4565b60405180910390f35b6102fb60048036038101906102f69190613ce1565b61217b565b6040516103089190613fc2565b60405180910390f35b610319612553565b60405161032691906140ea565b60405180910390f35b61034960048036038101906103449190614010565b6125cd565b005b61036560048036038101906103609190614010565b61295b565b6040516103769594939291906143b4565b60405180910390f35b61039960048036038101906103949190614010565b612b43565b6040516103a69190613fc2565b60405180910390f35b6103b76130dc565b6040516103c491906140ea565b60405180910390f35b6103d5613156565b6040516103e291906140ea565b60405180910390f35b6104056004803603810190610400919061441c565b6131d1565b005b61040f6135b4565b60405161041c919061457f565b60405180910390f35b61043f600480360381019061043a91906145a1565b6136f5565b005b610449613a82565b6040516104569190614631565b60405180910390f35b60606004838360405161047392919061468b565b9081526020016040518091039020805480602002602001604051908101604052809291908181526020016000905b8282101561082b5783829060005260206000209060080201604051806101000160405290816000820180546104d5906146d3565b80601f0160208091040260200160405190810160405280929190818152602001828054610501906146d3565b801561054e5780601f106105235761010080835404028352916020019161054e565b820191906000526020600020905b81548152906001019060200180831161053157829003601f168201915b50505050508152602001600182018054610567906146d3565b80601f0160208091040260200160405190810160405280929190818152602001828054610593906146d3565b80156105e05780601f106105b5576101008083540402835291602001916105e0565b820191906000526020600020905b8154815290600101906020018083116105c357829003601f168201915b505050505081526020016002820180546105f9906146d3565b80601f0160208091040260200160405190810160405280929190818152602001828054610625906146d3565b80156106725780601f1061064757610100808354040283529160200191610672565b820191906000526020600020905b81548152906001019060200180831161065557829003601f168201915b505050505081526020016003820160009054906101000a900460ff1660ff1660ff168152602001600482015481526020016005820160009054906101000a900473ffffffffffffffffffffffffffffffffffffffff1673ffffffffffffffffffffffffffffffffffffffff1673ffffffffffffffffffffffffffffffffffffffff168152602001600682018054610708906146d3565b80601f0160208091040260200160405190810160405280929190818152602001828054610734906146d3565b80156107815780601f1061075657610100808354040283529160200191610781565b820191906000526020600020905b81548152906001019060200180831161076457829003601f168201915b5050505050815260200160078201805461079a906146d3565b80601f01602080910402602001604051908101604052809291908181526020018280546107c6906146d3565b80156108135780601f106107e857610100808354040283529160200191610813565b820191906000526020600020905b8154815290600101906020018083116107f657829003601f168201915b505050505081525050815260200190600101906104a1565b50505050905092915050565b6000600260008373ffffffffffffffffffffffffffffffffffffffff1673ffffffffffffffffffffffffffffffffffffffff16815260200190815260200160002060009054906101000a900460ff169050919050565b600060038111156108a1576108a061403d565b5b600260003373ffffffffffffffffffffffffffffffffffffffff1673ffffffffffffffffffffffffffffffffffffffff16815260200190815260200160002060009054906101000a900460ff166003811115610900576108ff61403d565b5b14610940576040517f08c379a000000000000000000000000000000000000000000000000000000000815260040161093790614776565b60405180910390fd5b6000805b600780549050811015610c035760006007828154811061096757610966614796565b5b9060005260206000200160009054906101000a900473ffffffffffffffffffffffffffffffffffffffff1690506000600160008373ffffffffffffffffffffffffffffffffffffffff1673ffffffffffffffffffffffffffffffffffffffff16815260200190815260200160002060000180546109e3906146d3565b80601f0160208091040260200160405190810160405280929190818152602001828054610a0f906146d3565b8015610a5c5780601f10610a3157610100808354040283529160200191610a5c565b820191906000526020600020905b815481529060010190602001808311610a3f57829003601f168201915b505050505090506000600382604051610a7591906147f6565b9081526020016040518091039020905060005b8180549050811015610bde578787604051602001610aa792919061468b565b60405160208183030381529060405280519060200120828281548110610ad057610acf614796565b5b9060005260206000209060080201600001604051602001610af191906148a5565b6040516020818303038152906040528051906020012003610bcb576040518060400160405280600881526020017f617070726f766564000000000000000000000000000000000000000000000000815250828281548110610b5557610b54614796565b5b90600052602060002090600802016006019081610b729190614a82565b50600195508787604051610b8792919061468b565b60405180910390207fe75e86cb9e51cad02578a8332dbe8043f42e845e4cda18dcd9f36b9ed4b14bcf33604051610bbe9190614631565b60405180910390a2610bde565b8080610bd690614b83565b915050610a88565b508415610bed57505050610c03565b5050508080610bfb90614b83565b915050610944565b5080610c44576040517f08c379a0000000000000000000000000000000000000000000000000000000008152600401610c3b90614c17565b60405180910390fd5b505050565b60006003811115610c5d57610c5c61403d565b5b600260003373ffffffffffffffffffffffffffffffffffffffff1673ffffffffffffffffffffffffffffffffffffffff16815260200190815260200160002060009054906101000a900460ff166003811115610cbc57610cbb61403d565b5b14610cfc576040517f08c379a0000000000000000000000000000000000000000000000000000000008152600401610cf390614776565b60405180910390fd5b6001600260008373ffffffffffffffffffffffffffffffffffffffff1673ffffffffffffffffffffffffffffffffffffffff16815260200190815260200160002060006101000a81548160ff02191690836003811115610d5f57610d5e61403d565b5b021790555060018060008373ffffffffffffffffffffffffffffffffffffffff1673ffffffffffffffffffffffffffffffffffffffff16815260200190815260200160002060030160006101000a81548160ff02191690836003811115610dc957610dc861403d565b5b02179055508073ffffffffffffffffffffffffffffffffffffffff167f4ac36fa53f167ceb85964be512e01de2a3b8bdb9862f917da079deeeff689b386001604051610e1591906140b4565b60405180910390a250565b600060026003811115610e3657610e3561403d565b5b600260003373ffffffffffffffffffffffffffffffffffffffff1673ffffffffffffffffffffffffffffffffffffffff16815260200190815260200160002060009054906101000a900460ff166003811115610e9557610e9461403d565b5b14905090565b60006003811115610eaf57610eae61403d565b5b600260003373ffffffffffffffffffffffffffffffffffffffff1673ffffffffffffffffffffffffffffffffffffffff16815260200190815260200160002060009054906101000a900460ff166003811115610f0e57610f0d61403d565b5b14610f4e576040517f08c379a0000000000000000000000000000000000000000000000000000000008152600401610f4590614776565b60405180910390fd5b60028060008373ffffffffffffffffffffffffffffffffffffffff1673ffffffffffffffffffffffffffffffffffffffff16815260200190815260200160002060006101000a81548160ff02191690836003811115610fb057610faf61403d565b5b02179055506002600160008373ffffffffffffffffffffffffffffffffffffffff1673ffffffffffffffffffffffffffffffffffffffff16815260200190815260200160002060030160006101000a81548160ff0219169083600381111561101b5761101a61403d565b5b02179055508073ffffffffffffffffffffffffffffffffffffffff167f4ac36fa53f167ceb85964be512e01de2a3b8bdb9862f917da079deeeff689b38600260405161106791906140b4565b60405180910390a250565b600160038111156110865761108561403d565b5b600260003373ffffffffffffffffffffffffffffffffffffffff1673ffffffffffffffffffffffffffffffffffffffff16815260200190815260200160002060009054906101000a900460ff1660038111156110e5576110e461403d565b5b14611125576040517f08c379a000000000000000000000000000000000000000000000000000000000815260040161111c90614ca9565b60405180910390fd5b60648460ff16111561116c576040517f08c379a000000000000000000000000000000000000000000000000000000000815260040161116390614d15565b60405180910390fd5b600160008273ffffffffffffffffffffffffffffffffffffffff1673ffffffffffffffffffffffffffffffffffffffff16815260200190815260200160002060030160019054906101000a900460ff166111fb576040517f08c379a00000000000000000000000000000000000000000000000000000000081526004016111f290614d81565b60405180910390fd5b60006040518061010001604052808c8c8080601f016020809104026020016040519081016040528093929190818152602001838380828437600081840152601f19601f8201169050808301925050505050505081526020018a8a8080601f016020809104026020016040519081016040528093929190818152602001838380828437600081840152601f19601f82011690508083019250505050505050815260200188888080601f016020809104026020016040519081016040528093929190818152602001838380828437600081840152601f19601f8201169050808301925050505050505081526020018660ff1681526020014281526020013373ffffffffffffffffffffffffffffffffffffffff1681526020016040518060400160405280600781526020017f70656e64696e6700000000000000000000000000000000000000000000000000815250815260200185858080601f016020809104026020016040519081016040528093929190818152602001838380828437600081840152601f19601f820116905080830192505050505050508152509050600389896040516113a992919061468b565b908152602001604051809103902081908060018154018082558091505060019003906000526020600020906008020160009091909190915060008201518160000190816113f69190614a82565b50602082015181600101908161140c9190614a82565b5060408201518160020190816114229190614a82565b5060608201518160030160006101000a81548160ff021916908360ff1602179055506080820151816004015560a08201518160050160006101000a81548173ffffffffffffffffffffffffffffffffffffffff021916908373ffffffffffffffffffffffffffffffffffffffff16021790555060c08201518160060190816114aa9190614a82565b5060e08201518160070190816114c09190614a82565b5050506004600160008473ffffffffffffffffffffffffffffffffffffffff1673ffffffffffffffffffffffffffffffffffffffff16815260200190815260200160002060000160405161151491906148a5565b908152602001604051809103902081908060018154018082558091505060019003906000526020600020906008020160009091909190915060008201518160000190816115619190614a82565b5060208201518160010190816115779190614a82565b50604082015181600201908161158d9190614a82565b5060608201518160030160006101000a81548160ff021916908360ff1602179055506080820151816004015560a08201518160050160006101000a81548173ffffffffffffffffffffffffffffffffffffffff021916908373ffffffffffffffffffffffffffffffffffffffff16021790555060c08201518160060190816116159190614a82565b5060e082015181600701908161162b9190614a82565b505050600560008373ffffffffffffffffffffffffffffffffffffffff1673ffffffffffffffffffffffffffffffffffffffff16815260200190815260200160002081908060018154018082558091505060019003906000526020600020906008020160009091909190915060008201518160000190816116ac9190614a82565b5060208201518160010190816116c29190614a82565b5060408201518160020190816116d89190614a82565b5060608201518160030160006101000a81548160ff021916908360ff1602179055506080820151816004015560a08201518160050160006101000a81548173ffffffffffffffffffffffffffffffffffffffff021916908373ffffffffffffffffffffffffffffffffffffffff16021790555060c08201518160060190816117609190614a82565b5060e08201518160070190816117769190614a82565b505050600660003373ffffffffffffffffffffffffffffffffffffffff1673ffffffffffffffffffffffffffffffffffffffff16815260200190815260200160002081908060018154018082558091505060019003906000526020600020906008020160009091909190915060008201518160000190816117f79190614a82565b50602082015181600101908161180d9190614a82565b5060408201518160020190816118239190614a82565b5060608201518160030160006101000a81548160ff021916908360ff1602179055506080820151816004015560a08201518160050160006101000a81548173ffffffffffffffffffffffffffffffffffffffff021916908373ffffffffffffffffffffffffffffffffffffffff16021790555060c08201518160060190816118ab9190614a82565b5060e08201518160070190816118c19190614a82565b5050508a8a6040516118d492919061468b565b60405180910390207f627963807a8bf04ead78ad4ce670ae62ce55900c4fade3cc8e2a4d166cec29ad8a8a8a8a8a3360405161191596959493929190614ddd565b60405180910390a25050505050505050505050565b6000600381111561193e5761193d61403d565b5b600260003373ffffffffffffffffffffffffffffffffffffffff1673ffffffffffffffffffffffffffffffffffffffff16815260200190815260200160002060009054906101000a900460ff16600381111561199d5761199c61403d565b5b146119dd576040517f08c379a00000000000000000000000000000000000000000000000000000000081526004016119d490614776565b60405180910390fd5b80600260008473ffffffffffffffffffffffffffffffffffffffff1673ffffffffffffffffffffffffffffffffffffffff16815260200190815260200160002060006101000a81548160ff02191690836003811115611a3f57611a3e61403d565b5b021790555080600160008473ffffffffffffffffffffffffffffffffffffffff1673ffffffffffffffffffffffffffffffffffffffff16815260200190815260200160002060030160006101000a81548160ff02191690836003811115611aa957611aa861403d565b5b02179055508173ffffffffffffffffffffffffffffffffffffffff167f4ac36fa53f167ceb85964be512e01de2a3b8bdb9862f917da079deeeff689b3882604051611af491906140b4565b60405180910390a25050565b611b08613aa6565b600160008373ffffffffffffffffffffffffffffffffffffffff1673ffffffffffffffffffffffffffffffffffffffff1681526020019081526020016000206040518060a0016040529081600082018054611b62906146d3565b80601f0160208091040260200160405190810160405280929190818152602001828054611b8e906146d3565b8015611bdb5780601f10611bb057610100808354040283529160200191611bdb565b820191906000526020600020905b815481529060010190602001808311611bbe57829003601f168201915b50505050508152602001600182018054611bf4906146d3565b80601f0160208091040260200160405190810160405280929190818152602001828054611c20906146d3565b8015611c6d5780601f10611c4257610100808354040283529160200191611c6d565b820191906000526020600020905b815481529060010190602001808311611c5057829003601f168201915b50505050508152602001600282018054611c86906146d3565b80601f0160208091040260200160405190810160405280929190818152602001828054611cb2906146d3565b8015611cff5780601f10611cd457610100808354040283529160200191611cff565b820191906000526020600020905b815481529060010190602001808311611ce257829003601f168201915b505050505081526020016003820160009054906101000a900460ff166003811115611d2d57611d2c61403d565b5b6003811115611d3f57611d3e61403d565b5b81526020016003820160019054906101000a900460ff1615151515815250509050919050565b6060600560008373ffffffffffffffffffffffffffffffffffffffff1673ffffffffffffffffffffffffffffffffffffffff168152602001908152602001600020805480602002602001604051908101604052809291908181526020016000905b82821015612150578382906000526020600020906008020160405180610100016040529081600082018054611dfa906146d3565b80601f0160208091040260200160405190810160405280929190818152602001828054611e26906146d3565b8015611e735780601f10611e4857610100808354040283529160200191611e73565b820191906000526020600020905b815481529060010190602001808311611e5657829003601f168201915b50505050508152602001600182018054611e8c906146d3565b80601f0160208091040260200160405190810160405280929190818152602001828054611eb8906146d3565b8015611f055780601f10611eda57610100808354040283529160200191611f05565b820191906000526020600020905b815481529060010190602001808311611ee857829003601f168201915b50505050508152602001600282018054611f1e906146d3565b80601f0160208091040260200160405190810160405280929190818152602001828054611f4a906146d3565b8015611f975780601f10611f6c57610100808354040283529160200191611f97565b820191906000526020600020905b815481529060010190602001808311611f7a57829003601f168201915b505050505081526020016003820160009054906101000a900460ff1660ff1660ff168152602001600482015481526020016005820160009054906101000a900473ffffffffffffffffffffffffffffffffffffffff1673ffffffffffffffffffffffffffffffffffffffff1673ffffffffffffffffffffffffffffffffffffffff16815260200160068201805461202d906146d3565b80601f0160208091040260200160405190810160405280929190818152602001828054612059906146d3565b80156120a65780601f1061207b576101008083540402835291602001916120a6565b820191906000526020600020905b81548152906001019060200180831161208957829003601f168201915b505050505081526020016007820180546120bf906146d3565b80601f01602080910402602001604051908101604052809291908181526020018280546120eb906146d3565b80156121385780601f1061210d57610100808354040283529160200191612138565b820191906000526020600020905b81548152906001019060200180831161211b57829003601f168201915b50505050508152505081526020019060010190611dc6565b505050509050919050565b60026020528060005260406000206000915054906101000a900460ff1681565b60606003838360405161218f92919061468b565b9081526020016040518091039020805480602002602001604051908101604052809291908181526020016000905b828210156125475783829060005260206000209060080201604051806101000160405290816000820180546121f1906146d3565b80601f016020809104026020016040519081016040528092919081815260200182805461221d906146d3565b801561226a5780601f1061223f5761010080835404028352916020019161226a565b820191906000526020600020905b81548152906001019060200180831161224d57829003601f168201915b50505050508152602001600182018054612283906146d3565b80601f01602080910402602001604051908101604052809291908181526020018280546122af906146d3565b80156122fc5780601f106122d1576101008083540402835291602001916122fc565b820191906000526020600020905b8154815290600101906020018083116122df57829003601f168201915b50505050508152602001600282018054612315906146d3565b80601f0160208091040260200160405190810160405280929190818152602001828054612341906146d3565b801561238e5780601f106123635761010080835404028352916020019161238e565b820191906000526020600020905b81548152906001019060200180831161237157829003601f168201915b505050505081526020016003820160009054906101000a900460ff1660ff1660ff168152602001600482015481526020016005820160009054906101000a900473ffffffffffffffffffffffffffffffffffffffff1673ffffffffffffffffffffffffffffffffffffffff1673ffffffffffffffffffffffffffffffffffffffff168152602001600682018054612424906146d3565b80601f0160208091040260200160405190810160405280929190818152602001828054612450906146d3565b801561249d5780601f106124725761010080835404028352916020019161249d565b820191906000526020600020905b81548152906001019060200180831161248057829003601f168201915b505050505081526020016007820180546124b6906146d3565b80601f01602080910402602001604051908101604052809291908181526020018280546124e2906146d3565b801561252f5780601f106125045761010080835404028352916020019161252f565b820191906000526020600020905b81548152906001019060200180831161251257829003601f168201915b505050505081525050815260200190600101906121bd565b50505050905092915050565b60006003808111156125685761256761403d565b5b600260003373ffffffffffffffffffffffffffffffffffffffff1673ffffffffffffffffffffffffffffffffffffffff16815260200190815260200160002060009054906101000a900460ff1660038111156125c7576125c661403d565b5b14905090565b600060038111156125e1576125e061403d565b5b600260003373ffffffffffffffffffffffffffffffffffffffff1673ffffffffffffffffffffffffffffffffffffffff16815260200190815260200160002060009054906101000a900460ff1660038111156126405761263f61403d565b5b14612680576040517f08c379a000000000000000000000000000000000000000000000000000000000815260040161267790614776565b60405180910390fd5b600160008273ffffffffffffffffffffffffffffffffffffffff1673ffffffffffffffffffffffffffffffffffffffff16815260200190815260200160002060030160019054906101000a900460ff1661270f576040517f08c379a000000000000000000000000000000000000000000000000000000000815260040161270690614e80565b60405180910390fd5b6003600160008373ffffffffffffffffffffffffffffffffffffffff1673ffffffffffffffffffffffffffffffffffffffff16815260200190815260200160002060000160405161276091906148a5565b9081526020016040518091039020600061277a9190613ae9565b6004600160008373ffffffffffffffffffffffffffffffffffffffff1673ffffffffffffffffffffffffffffffffffffffff1681526020019081526020016000206000016040516127cb91906148a5565b908152602001604051809103902060006127e59190613ae9565b600560008273ffffffffffffffffffffffffffffffffffffffff1673ffffffffffffffffffffffffffffffffffffffff16815260200190815260200160002060006128309190613ae9565b600660008273ffffffffffffffffffffffffffffffffffffffff1673ffffffffffffffffffffffffffffffffffffffff168152602001908152602001600020600061287b9190613ae9565b600160008273ffffffffffffffffffffffffffffffffffffffff1673ffffffffffffffffffffffffffffffffffffffff168152602001908152602001600020600080820160006128cb9190613b0d565b6001820160006128db9190613b0d565b6002820160006128eb9190613b0d565b6003820160006101000a81549060ff02191690556003820160016101000a81549060ff021916905550508073ffffffffffffffffffffffffffffffffffffffff167fe9dce8c992623ce791725b21e857e33248d1f190a25b5168313420eebdaae99d60405160405180910390a250565b600160205280600052604060002060009150905080600001805461297e906146d3565b80601f01602080910402602001604051908101604052809291908181526020018280546129aa906146d3565b80156129f75780601f106129cc576101008083540402835291602001916129f7565b820191906000526020600020905b8154815290600101906020018083116129da57829003601f168201915b505050505090806001018054612a0c906146d3565b80601f0160208091040260200160405190810160405280929190818152602001828054612a38906146d3565b8015612a855780601f10612a5a57610100808354040283529160200191612a85565b820191906000526020600020905b815481529060010190602001808311612a6857829003601f168201915b505050505090806002018054612a9a906146d3565b80601f0160208091040260200160405190810160405280929190818152602001828054612ac6906146d3565b8015612b135780601f10612ae857610100808354040283529160200191612b13565b820191906000526020600020905b815481529060010190602001808311612af657829003601f168201915b5050505050908060030160009054906101000a900460ff16908060030160019054906101000a900460ff16905085565b60606000600660008473ffffffffffffffffffffffffffffffffffffffff1673ffffffffffffffffffffffffffffffffffffffff16815260200190815260200160002090506000805b8280549050811015612c2e57604051602001612ba790614eec565b60405160208183030381529060405280519060200120838281548110612bd057612bcf614796565b5b9060005260206000209060080201600601604051602001612bf191906148a5565b6040516020818303038152906040528051906020012003612c1b578180612c1790614b83565b9250505b8080612c2690614b83565b915050612b8c565b5060008167ffffffffffffffff811115612c4b57612c4a6148bc565b5b604051908082528060200260200182016040528015612c8457816020015b612c71613b4d565b815260200190600190039081612c695790505b5090506000805b84805490508110156130cf57604051602001612ca690614eec565b60405160208183030381529060405280519060200120858281548110612ccf57612cce614796565b5b9060005260206000209060080201600601604051602001612cf091906148a5565b60405160208183030381529060405280519060200120036130bc57848181548110612d1e57612d1d614796565b5b906000526020600020906008020160405180610100016040529081600082018054612d48906146d3565b80601f0160208091040260200160405190810160405280929190818152602001828054612d74906146d3565b8015612dc15780601f10612d9657610100808354040283529160200191612dc1565b820191906000526020600020905b815481529060010190602001808311612da457829003601f168201915b50505050508152602001600182018054612dda906146d3565b80601f0160208091040260200160405190810160405280929190818152602001828054612e06906146d3565b8015612e535780601f10612e2857610100808354040283529160200191612e53565b820191906000526020600020905b815481529060010190602001808311612e3657829003601f168201915b50505050508152602001600282018054612e6c906146d3565b80601f0160208091040260200160405190810160405280929190818152602001828054612e98906146d3565b8015612ee55780601f10612eba57610100808354040283529160200191612ee5565b820191906000526020600020905b815481529060010190602001808311612ec857829003601f168201915b505050505081526020016003820160009054906101000a900460ff1660ff1660ff168152602001600482015481526020016005820160009054906101000a900473ffffffffffffffffffffffffffffffffffffffff1673ffffffffffffffffffffffffffffffffffffffff1673ffffffffffffffffffffffffffffffffffffffff168152602001600682018054612f7b906146d3565b80601f0160208091040260200160405190810160405280929190818152602001828054612fa7906146d3565b8015612ff45780601f10612fc957610100808354040283529160200191612ff4565b820191906000526020600020905b815481529060010190602001808311612fd757829003601f168201915b5050505050815260200160078201805461300d906146d3565b80601f0160208091040260200160405190810160405280929190818152602001828054613039906146d3565b80156130865780601f1061305b57610100808354040283529160200191613086565b820191906000526020600020905b81548152906001019060200180831161306957829003601f168201915b5050505050815250508383815181106130a2576130a1614796565b5b602002602001018190525081806130b890614b83565b9250505b80806130c790614b83565b915050612c8b565b5081945050505050919050565b60008060038111156130f1576130f061403d565b5b600260003373ffffffffffffffffffffffffffffffffffffffff1673ffffffffffffffffffffffffffffffffffffffff16815260200190815260200160002060009054906101000a900460ff1660038111156131505761314f61403d565b5b14905090565b60006001600381111561316c5761316b61403d565b5b600260003373ffffffffffffffffffffffffffffffffffffffff1673ffffffffffffffffffffffffffffffffffffffff16815260200190815260200160002060009054906101000a900460ff1660038111156131cb576131ca61403d565b5b14905090565b600060038111156131e5576131e461403d565b5b600260003373ffffffffffffffffffffffffffffffffffffffff1673ffffffffffffffffffffffffffffffffffffffff16815260200190815260200160002060009054906101000a900460ff1660038111156132445761324361403d565b5b03613284576040517f08c379a000000000000000000000000000000000000000000000000000000000815260040161327b90614f4d565b60405180910390fd5b600160003373ffffffffffffffffffffffffffffffffffffffff1673ffffffffffffffffffffffffffffffffffffffff16815260200190815260200160002060030160019054906101000a900460ff1615613314576040517f08c379a000000000000000000000000000000000000000000000000000000000815260040161330b90614fdf565b60405180910390fd5b6040518060a0016040528087878080601f016020809104026020016040519081016040528093929190818152602001838380828437600081840152601f19601f82011690508083019250505050505050815260200185858080601f016020809104026020016040519081016040528093929190818152602001838380828437600081840152601f19601f82011690508083019250505050505050815260200183838080601f016020809104026020016040519081016040528093929190818152602001838380828437600081840152601f19601f820116905080830192505050505050508152602001600260038111156134115761341061403d565b5b815260200160011515815250600160003373ffffffffffffffffffffffffffffffffffffffff1673ffffffffffffffffffffffffffffffffffffffff16815260200190815260200160002060008201518160000190816134719190614a82565b5060208201518160010190816134879190614a82565b50604082015181600201908161349d9190614a82565b5060608201518160030160006101000a81548160ff021916908360038111156134c9576134c861403d565b5b021790555060808201518160030160016101000a81548160ff0219169083151502179055509050506007339080600181540180825580915050600190039060005260206000200160009091909190916101000a81548173ffffffffffffffffffffffffffffffffffffffff021916908373ffffffffffffffffffffffffffffffffffffffff1602179055503373ffffffffffffffffffffffffffffffffffffffff167f509c70f523067009f7db7f46db6956d7af8b679323680dc3821a8bad001ac1e18787878787876040516135a496959493929190614fff565b60405180910390a2505050505050565b6060600060038111156135ca576135c961403d565b5b600260003373ffffffffffffffffffffffffffffffffffffffff1673ffffffffffffffffffffffffffffffffffffffff16815260200190815260200160002060009054906101000a900460ff1660038111156136295761362861403d565b5b14613669576040517f08c379a000000000000000000000000000000000000000000000000000000000815260040161366090614776565b60405180910390fd5b60078054806020026020016040519081016040528092919081815260200182805480156136eb57602002820191906000526020600020905b8160009054906101000a900473ffffffffffffffffffffffffffffffffffffffff1673ffffffffffffffffffffffffffffffffffffffff16815260200190600101908083116136a1575b5050505050905090565b600060038111156137095761370861403d565b5b600260003373ffffffffffffffffffffffffffffffffffffffff1673ffffffffffffffffffffffffffffffffffffffff16815260200190815260200160002060009054906101000a900460ff1660038111156137685761376761403d565b5b146137a8576040517f08c379a000000000000000000000000000000000000000000000000000000000815260040161379f90614776565b60405180910390fd5b6000805b600780549050811015613a3a576000600782815481106137cf576137ce614796565b5b9060005260206000200160009054906101000a900473ffffffffffffffffffffffffffffffffffffffff1690506000600160008373ffffffffffffffffffffffffffffffffffffffff1673ffffffffffffffffffffffffffffffffffffffff168152602001908152602001600020600001805461384b906146d3565b80601f0160208091040260200160405190810160405280929190818152602001828054613877906146d3565b80156138c45780601f10613899576101008083540402835291602001916138c4565b820191906000526020600020905b8154815290600101906020018083116138a757829003601f168201915b5050505050905060006003826040516138dd91906147f6565b9081526020016040518091039020905060005b8180549050811015613a1557898960405160200161390f92919061468b565b6040516020818303038152906040528051906020012082828154811061393857613937614796565b5b906000526020600020906008020160000160405160200161395991906148a5565b6040516020818303038152906040528051906020012003613a0257878783838154811061398957613988614796565b5b906000526020600020906008020160060191826139a792919061505c565b506001955089896040516139bc92919061468b565b60405180910390207fc165a69394bea88b86166a0fdb532b300f7248e34bde1800c3be1ce6ae82ac6d89896040516139f592919061512c565b60405180910390a2613a15565b8080613a0d90614b83565b9150506138f0565b508415613a2457505050613a3a565b5050508080613a3290614b83565b9150506137ac565b5080613a7b576040517f08c379a0000000000000000000000000000000000000000000000000000000008152600401613a7290614c17565b60405180910390fd5b5050505050565b60008054906101000a900473ffffffffffffffffffffffffffffffffffffffff1681565b6040518060a0016040528060608152602001606081526020016060815260200160006003811115613ada57613ad961403d565b5b81526020016000151581525090565b5080546000825560080290600052602060002090810190613b0a9190613bab565b50565b508054613b19906146d3565b6000825580601f10613b2b5750613b4a565b601f016020900490600052602060002090810190613b499190613c55565b5b50565b604051806101000160405280606081526020016060815260200160608152602001600060ff16815260200160008152602001600073ffffffffffffffffffffffffffffffffffffffff16815260200160608152602001606081525090565b5b80821115613c515760008082016000613bc59190613b0d565b600182016000613bd59190613b0d565b600282016000613be59190613b0d565b6003820160006101000a81549060ff021916905560048201600090556005820160006101000a81549073ffffffffffffffffffffffffffffffffffffffff0219169055600682016000613c389190613b0d565b600782016000613c489190613b0d565b50600801613bac565b5090565b5b80821115613c6e576000816000905550600101613c56565b5090565b600080fd5b600080fd5b600080fd5b600080fd5b600080fd5b60008083601f840112613ca157613ca0613c7c565b5b8235905067ffffffffffffffff811115613cbe57613cbd613c81565b5b602083019150836001820283011115613cda57613cd9613c86565b5b9250929050565b60008060208385031215613cf857613cf7613c72565b5b600083013567ffffffffffffffff811115613d1657613d15613c77565b5b613d2285828601613c8b565b92509250509250929050565b600081519050919050565b600082825260208201905092915050565b6000819050602082019050919050565b600081519050919050565b600082825260208201905092915050565b60005b83811015613d94578082015181840152602081019050613d79565b60008484015250505050565b6000601f19601f8301169050919050565b6000613dbc82613d5a565b613dc68185613d65565b9350613dd6818560208601613d76565b613ddf81613da0565b840191505092915050565b600060ff82169050919050565b613e0081613dea565b82525050565b6000819050919050565b613e1981613e06565b82525050565b600073ffffffffffffffffffffffffffffffffffffffff82169050919050565b6000613e4a82613e1f565b9050919050565b613e5a81613e3f565b82525050565b6000610100830160008301518482036000860152613e7e8282613db1565b91505060208301518482036020860152613e988282613db1565b91505060408301518482036040860152613eb28282613db1565b9150506060830151613ec76060860182613df7565b506080830151613eda6080860182613e10565b5060a0830151613eed60a0860182613e51565b5060c083015184820360c0860152613f058282613db1565b91505060e083015184820360e0860152613f1f8282613db1565b9150508091505092915050565b6000613f388383613e60565b905092915050565b6000602082019050919050565b6000613f5882613d2e565b613f628185613d39565b935083602082028501613f7485613d4a565b8060005b85811015613fb05784840389528151613f918582613f2c565b9450613f9c83613f40565b925060208a01995050600181019050613f78565b50829750879550505050505092915050565b60006020820190508181036000830152613fdc8184613f4d565b905092915050565b613fed81613e3f565b8114613ff857600080fd5b50565b60008135905061400a81613fe4565b92915050565b60006020828403121561402657614025613c72565b5b600061403484828501613ffb565b91505092915050565b7f4e487b7100000000000000000000000000000000000000000000000000000000600052602160045260246000fd5b6004811061407d5761407c61403d565b5b50565b600081905061408e8261406c565b919050565b600061409e82614080565b9050919050565b6140ae81614093565b82525050565b60006020820190506140c960008301846140a5565b92915050565b60008115159050919050565b6140e4816140cf565b82525050565b60006020820190506140ff60008301846140db565b92915050565b61410e81613dea565b811461411957600080fd5b50565b60008135905061412b81614105565b92915050565b60008060008060008060008060008060c08b8d03121561415457614153613c72565b5b60008b013567ffffffffffffffff81111561417257614171613c77565b5b61417e8d828e01613c8b565b9a509a505060208b013567ffffffffffffffff8111156141a1576141a0613c77565b5b6141ad8d828e01613c8b565b985098505060408b013567ffffffffffffffff8111156141d0576141cf613c77565b5b6141dc8d828e01613c8b565b965096505060606141ef8d828e0161411c565b94505060808b013567ffffffffffffffff8111156142105761420f613c77565b5b61421c8d828e01613c8b565b935093505060a061422f8d828e01613ffb565b9150509295989b9194979a5092959850565b6004811061424e57600080fd5b50565b60008135905061426081614241565b92915050565b6000806040838503121561427d5761427c613c72565b5b600061428b85828601613ffb565b925050602061429c85828601614251565b9150509250929050565b6142af81614093565b82525050565b6142be816140cf565b82525050565b600060a08301600083015184820360008601526142e18282613db1565b915050602083015184820360208601526142fb8282613db1565b915050604083015184820360408601526143158282613db1565b915050606083015161432a60608601826142a6565b50608083015161433d60808601826142b5565b508091505092915050565b6000602082019050818103600083015261436281846142c4565b905092915050565b600082825260208201905092915050565b600061438682613d5a565b614390818561436a565b93506143a0818560208601613d76565b6143a981613da0565b840191505092915050565b600060a08201905081810360008301526143ce818861437b565b905081810360208301526143e2818761437b565b905081810360408301526143f6818661437b565b905061440560608301856140a5565b61441260808301846140db565b9695505050505050565b6000806000806000806060878903121561443957614438613c72565b5b600087013567ffffffffffffffff81111561445757614456613c77565b5b61446389828a01613c8b565b9650965050602087013567ffffffffffffffff81111561448657614485613c77565b5b61449289828a01613c8b565b9450945050604087013567ffffffffffffffff8111156144b5576144b4613c77565b5b6144c189828a01613c8b565b92509250509295509295509295565b600081519050919050565b600082825260208201905092915050565b6000819050602082019050919050565b60006145088383613e51565b60208301905092915050565b6000602082019050919050565b600061452c826144d0565b61453681856144db565b9350614541836144ec565b8060005b8381101561457257815161455988826144fc565b975061456483614514565b925050600181019050614545565b5085935050505092915050565b600060208201905081810360008301526145998184614521565b905092915050565b600080600080604085870312156145bb576145ba613c72565b5b600085013567ffffffffffffffff8111156145d9576145d8613c77565b5b6145e587828801613c8b565b9450945050602085013567ffffffffffffffff81111561460857614607613c77565b5b61461487828801613c8b565b925092505092959194509250565b61462b81613e3f565b82525050565b60006020820190506146466000830184614622565b92915050565b600081905092915050565b82818337600083830152505050565b6000614672838561464c565b935061467f838584614657565b82840190509392505050565b6000614698828486614666565b91508190509392505050565b7f4e487b7100000000000000000000000000000000000000000000000000000000600052602260045260246000fd5b600060028204905060018216806146eb57607f821691505b6020821081036146fe576146fd6146a4565b5b50919050565b7f4f6e6c792061646d696e2063616e20706572666f726d2074686973206163746960008201527f6f6e000000000000000000000000000000000000000000000000000000000000602082015250565b600061476060228361436a565b915061476b82614704565b604082019050919050565b6000602082019050818103600083015261478f81614753565b9050919050565b7f4e487b7100000000000000000000000000000000000000000000000000000000600052603260045260246000fd5b60006147d082613d5a565b6147da818561464c565b93506147ea818560208601613d76565b80840191505092915050565b600061480282846147c5565b915081905092915050565b60008190508160005260206000209050919050565b6000815461482f816146d3565b614839818661464c565b9450600182166000811461485457600181146148695761489c565b60ff198316865281151582028601935061489c565b6148728561480d565b60005b8381101561489457815481890152600182019150602081019050614875565b838801955050505b50505092915050565b60006148b18284614822565b915081905092915050565b7f4e487b7100000000000000000000000000000000000000000000000000000000600052604160045260246000fd5b60006020601f8301049050919050565b600082821b905092915050565b6000600883026149387fffffffffffffffffffffffffffffffffffffffffffffffffffffffffffffffff826148fb565b61494286836148fb565b95508019841693508086168417925050509392505050565b6000819050919050565b600061497f61497a61497584613e06565b61495a565b613e06565b9050919050565b6000819050919050565b61499983614964565b6149ad6149a582614986565b848454614908565b825550505050565b600090565b6149c26149b5565b6149cd818484614990565b505050565b5b818110156149f1576149e66000826149ba565b6001810190506149d3565b5050565b601f821115614a3657614a078161480d565b614a10846148eb565b81016020851015614a1f578190505b614a33614a2b856148eb565b8301826149d2565b50505b505050565b600082821c905092915050565b6000614a5960001984600802614a3b565b1980831691505092915050565b6000614a728383614a48565b9150826002028217905092915050565b614a8b82613d5a565b67ffffffffffffffff811115614aa457614aa36148bc565b5b614aae82546146d3565b614ab98282856149f5565b600060209050601f831160018114614aec5760008415614ada578287015190505b614ae48582614a66565b865550614b4c565b601f198416614afa8661480d565b60005b82811015614b2257848901518255600182019150602085019450602081019050614afd565b86831015614b3f5784890151614b3b601f891682614a48565b8355505b6001600288020188555050505b505050505050565b7f4e487b7100000000000000000000000000000000000000000000000000000000600052601160045260246000fd5b6000614b8e82613e06565b91507fffffffffffffffffffffffffffffffffffffffffffffffffffffffffffffffff8203614bc057614bbf614b54565b5b600182019050919050565b7f4772616465206e6f7420666f756e640000000000000000000000000000000000600082015250565b6000614c01600f8361436a565b9150614c0c82614bcb565b602082019050919050565b60006020820190508181036000830152614c3081614bf4565b9050919050565b7f4f6e6c7920746561636865722063616e20706572666f726d207468697320616360008201527f74696f6e00000000000000000000000000000000000000000000000000000000602082015250565b6000614c9360248361436a565b9150614c9e82614c37565b604082019050919050565b60006020820190508181036000830152614cc281614c86565b9050919050565b7f496e76616c69642073636f726500000000000000000000000000000000000000600082015250565b6000614cff600d8361436a565b9150614d0a82614cc9565b602082019050919050565b60006020820190508181036000830152614d2e81614cf2565b9050919050565b7f53747564656e74206973206e6f74207265676973746572656400000000000000600082015250565b6000614d6b60198361436a565b9150614d7682614d35565b602082019050919050565b60006020820190508181036000830152614d9a81614d5e565b9050919050565b6000614dad838561436a565b9350614dba838584614657565b614dc383613da0565b840190509392505050565b614dd781613dea565b82525050565b60006080820190508181036000830152614df881888a614da1565b90508181036020830152614e0d818688614da1565b9050614e1c6040830185614dce565b614e296060830184614622565b979650505050505050565b7f55736572206973206e6f7420726567697374657265642e000000000000000000600082015250565b6000614e6a60178361436a565b9150614e7582614e34565b602082019050919050565b60006020820190508181036000830152614e9981614e5d565b9050919050565b7f70656e64696e6700000000000000000000000000000000000000000000000000600082015250565b6000614ed660078361464c565b9150614ee182614ea0565b600782019050919050565b6000614ef782614ec9565b9150819050919050565b7f41646d696e732063616e6e6f7420726567697374657200000000000000000000600082015250565b6000614f3760168361436a565b9150614f4282614f01565b602082019050919050565b60006020820190508181036000830152614f6681614f2a565b9050919050565b7f54686973206164647265737320697320616c726561647920726567697374657260008201527f65642e0000000000000000000000000000000000000000000000000000000000602082015250565b6000614fc960238361436a565b9150614fd482614f6d565b604082019050919050565b60006020820190508181036000830152614ff881614fbc565b9050919050565b6000606082019050818103600083015261501a81888a614da1565b9050818103602083015261502f818688614da1565b90508181036040830152615044818486614da1565b9050979650505050505050565b600082905092915050565b6150668383615051565b67ffffffffffffffff81111561507f5761507e6148bc565b5b61508982546146d3565b6150948282856149f5565b6000601f8311600181146150c357600084156150b1578287013590505b6150bb8582614a66565b865550615123565b601f1984166150d18661480d565b60005b828110156150f9578489013582556001820191506020850194506020810190506150d4565b868310156151165784890135615112601f891682614a48565b8355505b6001600288020188555050505b50505050505050565b60006020820190508181036000830152615147818486614da1565b9050939250505056fea26469706673582212205bc6886a664177c28362e3a10eb7afc4b186514f14a20533e4c937ba6dcff47e64736f6c63430008140033",
  "linkReferences": {},
  "deployedLinkReferences": {}
}