{
  "_format": "hh-sol-artifact-1",
  "contractName": "EducationGrades",
  "sourceName": "contracts/EducationGrades.sol",
  "abi": [
    {
      "inputs": [],
      "stateMutability": "nonpayable",
      "type": "constructor"
    },
    {
      "anonymous": false,
      "inputs": [
        {
          "indexed": true,
          "internalType": "uint256",
          "name": "gradeId",
          "type": "uint256"
        },
        {
          "indexed": false,
          "internalType": "address",
          "name": "approvedBy",
          "type": "address"
        }
      ],
      "name": "GradeApproved",
      "type": "event"
    },
    {
      "anonymous": false,
      "inputs": [
        {
          "indexed": true,
          "internalType": "uint256",
          "name": "gradeId",
          "type": "uint256"
        },
        {
          "indexed": false,
          "internalType": "string",
          "name": "newStatus",
          "type": "string"
        }
      ],
      "name": "GradeStatusUpdated",
      "type": "event"
    },
    {
      "anonymous": false,
      "inputs": [
        {
          "indexed": true,
          "internalType": "uint256",
          "name": "gradeId",
          "type": "uint256"
        },
        {
          "indexed": false,
          "internalType": "string",
          "name": "studentId",
          "type": "string"
        },
        {
          "indexed": false,
          "internalType": "string",
          "name": "course",
          "type": "string"
        },
        {
          "indexed": false,
          "internalType": "uint8",
          "name": "score",
          "type": "uint8"
        },
        {
          "indexed": false,
          "internalType": "address",
          "name": "teacher",
          "type": "address"
        }
      ],
      "name": "GradeUploaded",
      "type": "event"
    },
    {
      "anonymous": false,
      "inputs": [
        {
          "indexed": true,
          "internalType": "address",
          "name": "user",
          "type": "address"
        },
        {
          "indexed": false,
          "internalType": "enum EducationGrades.Role",
          "name": "role",
          "type": "uint8"
        }
      ],
      "name": "RoleAssigned",
      "type": "event"
    },
    {
      "anonymous": false,
      "inputs": [
        {
          "indexed": true,
          "internalType": "address",
          "name": "user",
          "type": "address"
        },
        {
          "indexed": false,
          "internalType": "string",
          "name": "username",
          "type": "string"
        },
        {
          "indexed": false,
          "internalType": "string",
          "name": "email",
          "type": "string"
        },
        {
          "indexed": false,
          "internalType": "string",
          "name": "contactNumber",
          "type": "string"
        }
      ],
      "name": "UserRegistered",
      "type": "event"
    },
    {
      "anonymous": false,
      "inputs": [
        {
          "indexed": true,
          "internalType": "address",
          "name": "user",
          "type": "address"
        }
      ],
      "name": "UserRemoved",
      "type": "event"
    },
    {
      "inputs": [],
      "name": "admin",
      "outputs": [
        {
          "internalType": "address",
          "name": "",
          "type": "address"
        }
      ],
      "stateMutability": "view",
      "type": "function"
    },
    {
      "inputs": [
        {
          "internalType": "uint256",
          "name": "gradeId",
          "type": "uint256"
        }
      ],
      "name": "approveGrade",
      "outputs": [],
      "stateMutability": "nonpayable",
      "type": "function"
    },
    {
      "inputs": [
        {
          "internalType": "address",
          "name": "_user",
          "type": "address"
        },
        {
          "internalType": "enum EducationGrades.Role",
          "name": "_role",
          "type": "uint8"
        }
      ],
      "name": "assignRole",
      "outputs": [],
      "stateMutability": "nonpayable",
      "type": "function"
    },
    {
      "inputs": [],
      "name": "getAllUsers",
      "outputs": [
        {
          "internalType": "address[]",
          "name": "",
          "type": "address[]"
        }
      ],
      "stateMutability": "view",
      "type": "function"
    },
    {
      "inputs": [
        {
          "internalType": "address",
          "name": "studentAddress",
          "type": "address"
        }
      ],
      "name": "getGradesByAddress",
      "outputs": [
        {
          "components": [
            {
              "internalType": "uint256",
              "name": "gradeId",
              "type": "uint256"
            },
            {
              "internalType": "string",
              "name": "studentId",
              "type": "string"
            },
            {
              "internalType": "string",
              "name": "course",
              "type": "string"
            },
            {
              "internalType": "uint8",
              "name": "score",
              "type": "uint8"
            },
            {
              "internalType": "uint256",
              "name": "timestamp",
              "type": "uint256"
            },
            {
              "internalType": "address",
              "name": "teacher",
              "type": "address"
            },
            {
              "internalType": "string",
              "name": "status",
              "type": "string"
            },
            {
              "internalType": "string",
              "name": "remark",
              "type": "string"
            }
          ],
          "internalType": "struct EducationGrades.Grade[]",
          "name": "",
          "type": "tuple[]"
        }
      ],
      "stateMutability": "view",
      "type": "function"
    },
    {
      "inputs": [
        {
          "internalType": "string",
          "name": "studentId",
          "type": "string"
        }
      ],
      "name": "getGradesByStudentId",
      "outputs": [
        {
          "components": [
            {
              "internalType": "uint256",
              "name": "gradeId",
              "type": "uint256"
            },
            {
              "internalType": "string",
              "name": "studentId",
              "type": "string"
            },
            {
              "internalType": "string",
              "name": "course",
              "type": "string"
            },
            {
              "internalType": "uint8",
              "name": "score",
              "type": "uint8"
            },
            {
              "internalType": "uint256",
              "name": "timestamp",
              "type": "uint256"
            },
            {
              "internalType": "address",
              "name": "teacher",
              "type": "address"
            },
            {
              "internalType": "string",
              "name": "status",
              "type": "string"
            },
            {
              "internalType": "string",
              "name": "remark",
              "type": "string"
            }
          ],
          "internalType": "struct EducationGrades.Grade[]",
          "name": "",
          "type": "tuple[]"
        }
      ],
      "stateMutability": "view",
      "type": "function"
    },
    {
      "inputs": [
        {
          "internalType": "string",
          "name": "username",
          "type": "string"
        }
      ],
      "name": "getGradesByUsername",
      "outputs": [
        {
          "components": [
            {
              "internalType": "uint256",
              "name": "gradeId",
              "type": "uint256"
            },
            {
              "internalType": "string",
              "name": "studentId",
              "type": "string"
            },
            {
              "internalType": "string",
              "name": "course",
              "type": "string"
            },
            {
              "internalType": "uint8",
              "name": "score",
              "type": "uint8"
            },
            {
              "internalType": "uint256",
              "name": "timestamp",
              "type": "uint256"
            },
            {
              "internalType": "address",
              "name": "teacher",
              "type": "address"
            },
            {
              "internalType": "string",
              "name": "status",
              "type": "string"
            },
            {
              "internalType": "string",
              "name": "remark",
              "type": "string"
            }
          ],
          "internalType": "struct EducationGrades.Grade[]",
          "name": "",
          "type": "tuple[]"
        }
      ],
      "stateMutability": "view",
      "type": "function"
    },
    {
      "inputs": [],
      "name": "getLowScoreGrades",
      "outputs": [
        {
          "components": [
            {
              "internalType": "uint256",
              "name": "gradeId",
              "type": "uint256"
            },
            {
              "internalType": "string",
              "name": "studentId",
              "type": "string"
            },
            {
              "internalType": "string",
              "name": "course",
              "type": "string"
            },
            {
              "internalType": "uint8",
              "name": "score",
              "type": "uint8"
            },
            {
              "internalType": "uint256",
              "name": "timestamp",
              "type": "uint256"
            },
            {
              "internalType": "address",
              "name": "teacher",
              "type": "address"
            },
            {
              "internalType": "string",
              "name": "status",
              "type": "string"
            },
            {
              "internalType": "string",
              "name": "remark",
              "type": "string"
            }
          ],
          "internalType": "struct EducationGrades.Grade[]",
          "name": "",
          "type": "tuple[]"
        }
      ],
      "stateMutability": "view",
      "type": "function"
    },
    {
      "inputs": [
        {
          "internalType": "address",
          "name": "_user",
          "type": "address"
        }
      ],
      "name": "getUserInfo",
      "outputs": [
        {
          "components": [
            {
              "internalType": "string",
              "name": "username",
              "type": "string"
            },
            {
              "internalType": "string",
              "name": "email",
              "type": "string"
            },
            {
              "internalType": "string",
              "name": "contactNumber",
              "type": "string"
            },
            {
              "internalType": "enum EducationGrades.Role",
              "name": "role",
              "type": "uint8"
            },
            {
              "internalType": "bool",
              "name": "isRegistered",
              "type": "bool"
            }
          ],
          "internalType": "struct EducationGrades.User",
          "name": "",
          "type": "tuple"
        }
      ],
      "stateMutability": "view",
      "type": "function"
    },
    {
      "inputs": [
        {
          "internalType": "address",
          "name": "_user",
          "type": "address"
        }
      ],
      "name": "getUserRole",
      "outputs": [
        {
          "internalType": "enum EducationGrades.Role",
          "name": "",
          "type": "uint8"
        }
      ],
      "stateMutability": "view",
      "type": "function"
    },
    {
      "inputs": [
        {
          "internalType": "string",
          "name": "studentId",
          "type": "string"
        },
        {
          "internalType": "string",
          "name": "email",
          "type": "string"
        },
        {
          "internalType": "string",
          "name": "contactNumber",
          "type": "string"
        }
      ],
      "name": "registerUser",
      "outputs": [],
      "stateMutability": "nonpayable",
      "type": "function"
    },
    {
      "inputs": [
        {
          "internalType": "address",
          "name": "_user",
          "type": "address"
        }
      ],
      "name": "removeUser",
      "outputs": [],
      "stateMutability": "nonpayable",
      "type": "function"
    },
    {
      "inputs": [
        {
          "internalType": "uint256",
          "name": "gradeId",
          "type": "uint256"
        }
      ],
      "name": "setGradeToRejected",
      "outputs": [],
      "stateMutability": "nonpayable",
      "type": "function"
    },
    {
      "inputs": [
        {
          "internalType": "uint256",
          "name": "gradeId",
          "type": "uint256"
        },
        {
          "internalType": "string",
          "name": "newStatus",
          "type": "string"
        }
      ],
      "name": "updateGradeStatus",
      "outputs": [],
      "stateMutability": "nonpayable",
      "type": "function"
    },
    {
      "inputs": [
        {
          "internalType": "string",
          "name": "studentId",
          "type": "string"
        },
        {
          "internalType": "string",
          "name": "course",
          "type": "string"
        },
        {
          "internalType": "uint8",
          "name": "score",
          "type": "uint8"
        },
        {
          "internalType": "string",
          "name": "remark",
          "type": "string"
        }
      ],
      "name": "uploadGrade",
      "outputs": [],
      "stateMutability": "nonpayable",
      "type": "function"
    },
    {
      "inputs": [
        {
          "internalType": "address",
          "name": "",
          "type": "address"
        }
      ],
      "name": "userRoles",
      "outputs": [
        {
          "internalType": "enum EducationGrades.Role",
          "name": "",
          "type": "uint8"
        }
      ],
      "stateMutability": "view",
      "type": "function"
    },
    {
      "inputs": [
        {
          "internalType": "address",
          "name": "",
          "type": "address"
        }
      ],
      "name": "users",
      "outputs": [
        {
          "internalType": "string",
          "name": "username",
          "type": "string"
        },
        {
          "internalType": "string",
          "name": "email",
          "type": "string"
        },
        {
          "internalType": "string",
          "name": "contactNumber",
          "type": "string"
        },
        {
          "internalType": "enum EducationGrades.Role",
          "name": "role",
          "type": "uint8"
        },
        {
          "internalType": "bool",
          "name": "isRegistered",
          "type": "bool"
        }
      ],
      "stateMutability": "view",
      "type": "function"
    }
  ],
  "bytecode": "0x60806040526000600a553480156200001657600080fd5b50336000806101000a81548173ffffffffffffffffffffffffffffffffffffffff021916908373ffffffffffffffffffffffffffffffffffffffff1602179055506000600260008060009054906101000a900473ffffffffffffffffffffffffffffffffffffffff1673ffffffffffffffffffffffffffffffffffffffff1673ffffffffffffffffffffffffffffffffffffffff16815260200190815260200160002060006101000a81548160ff02191690836003811115620000de57620000dd620000e9565b5b021790555062000118565b7f4e487b7100000000000000000000000000000000000000000000000000000000600052602160045260246000fd5b61501a80620001286000396000f3fe608060405234801561001057600080fd5b506004361061010b5760003560e01c80639348f85b116100a2578063e2842d7911610071578063e2842d79146102f0578063f02573f81461030e578063f73273811461032c578063f851a44014610348578063ffab6532146103665761010b565b80639348f85b146102545780639857518814610284578063a87430ba146102a0578063d637dcfa146102d45761010b565b8063630a195b116100de578063630a195b146101a85780636386c1c7146101c45780636ede0b2e146101f457806374d5e100146102245761010b565b806303670752146101105780631109485b1461012c5780632224c3311461015c5780632782085114610178575b600080fd5b61012a60048036038101906101259190613b1f565b610382565b005b61014660048036038101906101419190613b7f565b6106a7565b6040516101539190613e4f565b60405180910390f35b61017660048036038101906101719190613e9d565b6109f7565b005b610192600480360381019061018d9190613f92565b611263565b60405161019f9190614036565b60405180910390f35b6101c260048036038101906101bd9190614076565b6112b9565b005b6101de60048036038101906101d99190613f92565b61148f565b6040516101eb9190614164565b60405180910390f35b61020e60048036038101906102099190613f92565b6116f4565b60405161021b9190613e4f565b60405180910390f35b61023e60048036038101906102399190613f92565b611a62565b60405161024b9190614036565b60405180910390f35b61026e60048036038101906102699190613b7f565b611a82565b60405161027b9190613e4f565b60405180910390f35b61029e60048036038101906102999190613f92565b611dd2565b005b6102ba60048036038101906102b59190613f92565b612237565b6040516102cb9594939291906141df565b60405180910390f35b6102ee60048036038101906102e99190614247565b61241f565b005b6102f861295f565b60405161030591906143aa565b60405180910390f35b610316612aa0565b6040516103239190613e4f565b60405180910390f35b610346600480360381019061034191906143cc565b6131ab565b005b61035061353e565b60405161035d9190614408565b60405180910390f35b610380600480360381019061037b91906143cc565b613562565b005b6000600381111561039657610395613fbf565b5b600260003373ffffffffffffffffffffffffffffffffffffffff1673ffffffffffffffffffffffffffffffffffffffff16815260200190815260200160002060009054906101000a900460ff1660038111156103f5576103f4613fbf565b5b14610435576040517f08c379a000000000000000000000000000000000000000000000000000000000815260040161042c90614495565b60405180910390fd5b6000805b6009805490508110156106605760006009828154811061045c5761045b6144b5565b5b9060005260206000200160009054906101000a900473ffffffffffffffffffffffffffffffffffffffff1690506000600460008373ffffffffffffffffffffffffffffffffffffffff1673ffffffffffffffffffffffffffffffffffffffff16815260200190815260200160002080546104d590614513565b80601f016020809104026020016040519081016040528092919081815260200182805461050190614513565b801561054e5780601f106105235761010080835404028352916020019161054e565b820191906000526020600020905b81548152906001019060200180831161053157829003601f168201915b5050505050905060006005826040516105679190614580565b9081526020016040518091039020905060005b818054905081101561063b578882828154811061059a576105996144b5565b5b906000526020600020906008020160000154036106285787878383815481106105c6576105c56144b5565b5b906000526020600020906008020160060191826105e492919061477d565b5060019550887f1e03591cf0112e5859e4565de39b4a69c1d97d36bdeb9e12f6cd725da41acc0c898960405161061b929190614889565b60405180910390a261063b565b8080610633906148dc565b91505061057a565b50841561064a57505050610660565b5050508080610658906148dc565b915050610439565b50806106a1576040517f08c379a000000000000000000000000000000000000000000000000000000000815260040161069890614970565b60405180910390fd5b50505050565b6060600683836040516106bb9291906149b5565b9081526020016040518091039020805480602002602001604051908101604052809291908181526020016000905b828210156109eb5783829060005260206000209060080201604051806101000160405290816000820154815260200160018201805461072790614513565b80601f016020809104026020016040519081016040528092919081815260200182805461075390614513565b80156107a05780601f10610775576101008083540402835291602001916107a0565b820191906000526020600020905b81548152906001019060200180831161078357829003601f168201915b505050505081526020016002820180546107b990614513565b80601f01602080910402602001604051908101604052809291908181526020018280546107e590614513565b80156108325780601f1061080757610100808354040283529160200191610832565b820191906000526020600020905b81548152906001019060200180831161081557829003601f168201915b505050505081526020016003820160009054906101000a900460ff1660ff1660ff168152602001600482015481526020016005820160009054906101000a900473ffffffffffffffffffffffffffffffffffffffff1673ffffffffffffffffffffffffffffffffffffffff1673ffffffffffffffffffffffffffffffffffffffff1681526020016006820180546108c890614513565b80601f01602080910402602001604051908101604052809291908181526020018280546108f490614513565b80156109415780601f1061091657610100808354040283529160200191610941565b820191906000526020600020905b81548152906001019060200180831161092457829003601f168201915b5050505050815260200160078201805461095a90614513565b80601f016020809104026020016040519081016040528092919081815260200182805461098690614513565b80156109d35780601f106109a8576101008083540402835291602001916109d3565b820191906000526020600020905b8154815290600101906020018083116109b657829003601f168201915b505050505081525050815260200190600101906106e9565b50505050905092915050565b60016003811115610a0b57610a0a613fbf565b5b600260003373ffffffffffffffffffffffffffffffffffffffff1673ffffffffffffffffffffffffffffffffffffffff16815260200190815260200160002060009054906101000a900460ff166003811115610a6a57610a69613fbf565b5b14610aaa576040517f08c379a0000000000000000000000000000000000000000000000000000000008152600401610aa190614a40565b60405180910390fd5b60648360ff161115610af1576040517f08c379a0000000000000000000000000000000000000000000000000000000008152600401610ae890614aac565b60405180910390fd5b600060038888604051610b059291906149b5565b908152602001604051809103902060009054906101000a900473ffffffffffffffffffffffffffffffffffffffff169050600073ffffffffffffffffffffffffffffffffffffffff168173ffffffffffffffffffffffffffffffffffffffff1603610ba5576040517f08c379a0000000000000000000000000000000000000000000000000000000008152600401610b9c90614b18565b60405180910390fd5b6000600a6000815480929190610bba906148dc565b91905055905060006040518061010001604052808381526020018b8b8080601f016020809104026020016040519081016040528093929190818152602001838380828437600081840152601f19601f82011690508083019250505050505050815260200189898080601f016020809104026020016040519081016040528093929190818152602001838380828437600081840152601f19601f8201169050808301925050505050505081526020018760ff1681526020014281526020013373ffffffffffffffffffffffffffffffffffffffff1681526020016040518060400160405280600881526020017f617070726f766564000000000000000000000000000000000000000000000000815250815260200186868080601f016020809104026020016040519081016040528093929190818152602001838380828437600081840152601f19601f82011690508083019250505050505050815250905060058a8a604051610d2a9291906149b5565b9081526020016040518091039020819080600181540180825580915050600190039060005260206000209060080201600090919091909150600082015181600001556020820151816001019081610d819190614b38565b506040820151816002019081610d979190614b38565b5060608201518160030160006101000a81548160ff021916908360ff1602179055506080820151816004015560a08201518160050160006101000a81548173ffffffffffffffffffffffffffffffffffffffff021916908373ffffffffffffffffffffffffffffffffffffffff16021790555060c0820151816006019081610e1f9190614b38565b5060e0820151816007019081610e359190614b38565b5050506006600160008573ffffffffffffffffffffffffffffffffffffffff1673ffffffffffffffffffffffffffffffffffffffff168152602001908152602001600020600001604051610e899190614c8d565b9081526020016040518091039020819080600181540180825580915050600190039060005260206000209060080201600090919091909150600082015181600001556020820151816001019081610ee09190614b38565b506040820151816002019081610ef69190614b38565b5060608201518160030160006101000a81548160ff021916908360ff1602179055506080820151816004015560a08201518160050160006101000a81548173ffffffffffffffffffffffffffffffffffffffff021916908373ffffffffffffffffffffffffffffffffffffffff16021790555060c0820151816006019081610f7e9190614b38565b5060e0820151816007019081610f949190614b38565b505050600760008473ffffffffffffffffffffffffffffffffffffffff1673ffffffffffffffffffffffffffffffffffffffff16815260200190815260200160002081908060018154018082558091505060019003906000526020600020906008020160009091909190915060008201518160000155602082015181600101908161101f9190614b38565b5060408201518160020190816110359190614b38565b5060608201518160030160006101000a81548160ff021916908360ff1602179055506080820151816004015560a08201518160050160006101000a81548173ffffffffffffffffffffffffffffffffffffffff021916908373ffffffffffffffffffffffffffffffffffffffff16021790555060c08201518160060190816110bd9190614b38565b5060e08201518160070190816110d39190614b38565b505050600860003373ffffffffffffffffffffffffffffffffffffffff1673ffffffffffffffffffffffffffffffffffffffff16815260200190815260200160002081908060018154018082558091505060019003906000526020600020906008020160009091909190915060008201518160000155602082015181600101908161115e9190614b38565b5060408201518160020190816111749190614b38565b5060608201518160030160006101000a81548160ff021916908360ff1602179055506080820151816004015560a08201518160050160006101000a81548173ffffffffffffffffffffffffffffffffffffffff021916908373ffffffffffffffffffffffffffffffffffffffff16021790555060c08201518160060190816111fc9190614b38565b5060e08201518160070190816112129190614b38565b505050817ff13540323af89409fe93c67e00c842e9423704f885251600ad0b75708aa5fb728b8b8b8b8b3360405161124f96959493929190614cb3565b60405180910390a250505050505050505050565b6000600260008373ffffffffffffffffffffffffffffffffffffffff1673ffffffffffffffffffffffffffffffffffffffff16815260200190815260200160002060009054906101000a900460ff169050919050565b600060038111156112cd576112cc613fbf565b5b600260003373ffffffffffffffffffffffffffffffffffffffff1673ffffffffffffffffffffffffffffffffffffffff16815260200190815260200160002060009054906101000a900460ff16600381111561132c5761132b613fbf565b5b1461136c576040517f08c379a000000000000000000000000000000000000000000000000000000000815260040161136390614495565b60405180910390fd5b80600260008473ffffffffffffffffffffffffffffffffffffffff1673ffffffffffffffffffffffffffffffffffffffff16815260200190815260200160002060006101000a81548160ff021916908360038111156113ce576113cd613fbf565b5b021790555080600160008473ffffffffffffffffffffffffffffffffffffffff1673ffffffffffffffffffffffffffffffffffffffff16815260200190815260200160002060030160006101000a81548160ff0219169083600381111561143857611437613fbf565b5b02179055508173ffffffffffffffffffffffffffffffffffffffff167f4ac36fa53f167ceb85964be512e01de2a3b8bdb9862f917da079deeeff689b38826040516114839190614036565b60405180910390a25050565b6114976138b6565b600160008373ffffffffffffffffffffffffffffffffffffffff1673ffffffffffffffffffffffffffffffffffffffff1681526020019081526020016000206040518060a00160405290816000820180546114f190614513565b80601f016020809104026020016040519081016040528092919081815260200182805461151d90614513565b801561156a5780601f1061153f5761010080835404028352916020019161156a565b820191906000526020600020905b81548152906001019060200180831161154d57829003601f168201915b5050505050815260200160018201805461158390614513565b80601f01602080910402602001604051908101604052809291908181526020018280546115af90614513565b80156115fc5780601f106115d1576101008083540402835291602001916115fc565b820191906000526020600020905b8154815290600101906020018083116115df57829003601f168201915b5050505050815260200160028201805461161590614513565b80601f016020809104026020016040519081016040528092919081815260200182805461164190614513565b801561168e5780601f106116635761010080835404028352916020019161168e565b820191906000526020600020905b81548152906001019060200180831161167157829003601f168201915b505050505081526020016003820160009054906101000a900460ff1660038111156116bc576116bb613fbf565b5b60038111156116ce576116cd613fbf565b5b81526020016003820160019054906101000a900460ff1615151515815250509050919050565b6060600760008373ffffffffffffffffffffffffffffffffffffffff1673ffffffffffffffffffffffffffffffffffffffff168152602001908152602001600020805480602002602001604051908101604052809291908181526020016000905b82821015611a575783829060005260206000209060080201604051806101000160405290816000820154815260200160018201805461179390614513565b80601f01602080910402602001604051908101604052809291908181526020018280546117bf90614513565b801561180c5780601f106117e15761010080835404028352916020019161180c565b820191906000526020600020905b8154815290600101906020018083116117ef57829003601f168201915b5050505050815260200160028201805461182590614513565b80601f016020809104026020016040519081016040528092919081815260200182805461185190614513565b801561189e5780601f106118735761010080835404028352916020019161189e565b820191906000526020600020905b81548152906001019060200180831161188157829003601f168201915b505050505081526020016003820160009054906101000a900460ff1660ff1660ff168152602001600482015481526020016005820160009054906101000a900473ffffffffffffffffffffffffffffffffffffffff1673ffffffffffffffffffffffffffffffffffffffff1673ffffffffffffffffffffffffffffffffffffffff16815260200160068201805461193490614513565b80601f016020809104026020016040519081016040528092919081815260200182805461196090614513565b80156119ad5780601f10611982576101008083540402835291602001916119ad565b820191906000526020600020905b81548152906001019060200180831161199057829003601f168201915b505050505081526020016007820180546119c690614513565b80601f01602080910402602001604051908101604052809291908181526020018280546119f290614513565b8015611a3f5780601f10611a1457610100808354040283529160200191611a3f565b820191906000526020600020905b815481529060010190602001808311611a2257829003601f168201915b50505050508152505081526020019060010190611755565b505050509050919050565b60026020528060005260406000206000915054906101000a900460ff1681565b606060058383604051611a969291906149b5565b9081526020016040518091039020805480602002602001604051908101604052809291908181526020016000905b82821015611dc657838290600052602060002090600802016040518061010001604052908160008201548152602001600182018054611b0290614513565b80601f0160208091040260200160405190810160405280929190818152602001828054611b2e90614513565b8015611b7b5780601f10611b5057610100808354040283529160200191611b7b565b820191906000526020600020905b815481529060010190602001808311611b5e57829003601f168201915b50505050508152602001600282018054611b9490614513565b80601f0160208091040260200160405190810160405280929190818152602001828054611bc090614513565b8015611c0d5780601f10611be257610100808354040283529160200191611c0d565b820191906000526020600020905b815481529060010190602001808311611bf057829003601f168201915b505050505081526020016003820160009054906101000a900460ff1660ff1660ff168152602001600482015481526020016005820160009054906101000a900473ffffffffffffffffffffffffffffffffffffffff1673ffffffffffffffffffffffffffffffffffffffff1673ffffffffffffffffffffffffffffffffffffffff168152602001600682018054611ca390614513565b80601f0160208091040260200160405190810160405280929190818152602001828054611ccf90614513565b8015611d1c5780601f10611cf157610100808354040283529160200191611d1c565b820191906000526020600020905b815481529060010190602001808311611cff57829003601f168201915b50505050508152602001600782018054611d3590614513565b80601f0160208091040260200160405190810160405280929190818152602001828054611d6190614513565b8015611dae5780601f10611d8357610100808354040283529160200191611dae565b820191906000526020600020905b815481529060010190602001808311611d9157829003601f168201915b50505050508152505081526020019060010190611ac4565b50505050905092915050565b60006003811115611de657611de5613fbf565b5b600260003373ffffffffffffffffffffffffffffffffffffffff1673ffffffffffffffffffffffffffffffffffffffff16815260200190815260200160002060009054906101000a900460ff166003811115611e4557611e44613fbf565b5b14611e85576040517f08c379a0000000000000000000000000000000000000000000000000000000008152600401611e7c90614495565b60405180910390fd5b600160008273ffffffffffffffffffffffffffffffffffffffff1673ffffffffffffffffffffffffffffffffffffffff16815260200190815260200160002060030160019054906101000a900460ff16611f14576040517f08c379a0000000000000000000000000000000000000000000000000000000008152600401611f0b90614d56565b60405180910390fd5b6000600460008373ffffffffffffffffffffffffffffffffffffffff1673ffffffffffffffffffffffffffffffffffffffff1681526020019081526020016000208054611f6090614513565b80601f0160208091040260200160405190810160405280929190818152602001828054611f8c90614513565b8015611fd95780601f10611fae57610100808354040283529160200191611fd9565b820191906000526020600020905b815481529060010190602001808311611fbc57829003601f168201915b50505050509050600381604051611ff09190614580565b908152602001604051809103902060006101000a81549073ffffffffffffffffffffffffffffffffffffffff0219169055600460008373ffffffffffffffffffffffffffffffffffffffff1673ffffffffffffffffffffffffffffffffffffffff168152602001908152602001600020600061206c91906138f9565b60058160405161207c9190614580565b908152602001604051809103902060006120969190613939565b6006816040516120a69190614580565b908152602001604051809103902060006120c09190613939565b600760008373ffffffffffffffffffffffffffffffffffffffff1673ffffffffffffffffffffffffffffffffffffffff168152602001908152602001600020600061210b9190613939565b600860008373ffffffffffffffffffffffffffffffffffffffff1673ffffffffffffffffffffffffffffffffffffffff16815260200190815260200160002060006121569190613939565b600160008373ffffffffffffffffffffffffffffffffffffffff1673ffffffffffffffffffffffffffffffffffffffff168152602001908152602001600020600080820160006121a691906138f9565b6001820160006121b691906138f9565b6002820160006121c691906138f9565b6003820160006101000a81549060ff02191690556003820160016101000a81549060ff021916905550508173ffffffffffffffffffffffffffffffffffffffff167fe9dce8c992623ce791725b21e857e33248d1f190a25b5168313420eebdaae99d60405160405180910390a25050565b600160205280600052604060002060009150905080600001805461225a90614513565b80601f016020809104026020016040519081016040528092919081815260200182805461228690614513565b80156122d35780601f106122a8576101008083540402835291602001916122d3565b820191906000526020600020905b8154815290600101906020018083116122b657829003601f168201915b5050505050908060010180546122e890614513565b80601f016020809104026020016040519081016040528092919081815260200182805461231490614513565b80156123615780601f1061233657610100808354040283529160200191612361565b820191906000526020600020905b81548152906001019060200180831161234457829003601f168201915b50505050509080600201805461237690614513565b80601f01602080910402602001604051908101604052809291908181526020018280546123a290614513565b80156123ef5780601f106123c4576101008083540402835291602001916123ef565b820191906000526020600020905b8154815290600101906020018083116123d257829003601f168201915b5050505050908060030160009054906101000a900460ff16908060030160019054906101000a900460ff16905085565b6000600381111561243357612432613fbf565b5b600260003373ffffffffffffffffffffffffffffffffffffffff1673ffffffffffffffffffffffffffffffffffffffff16815260200190815260200160002060009054906101000a900460ff16600381111561249257612491613fbf565b5b036124d2576040517f08c379a00000000000000000000000000000000000000000000000000000000081526004016124c990614dc2565b60405180910390fd5b600160003373ffffffffffffffffffffffffffffffffffffffff1673ffffffffffffffffffffffffffffffffffffffff16815260200190815260200160002060030160019054906101000a900460ff1615612562576040517f08c379a000000000000000000000000000000000000000000000000000000000815260040161255990614e2e565b60405180910390fd5b600073ffffffffffffffffffffffffffffffffffffffff166003878760405161258c9291906149b5565b908152602001604051809103902060009054906101000a900473ffffffffffffffffffffffffffffffffffffffff1673ffffffffffffffffffffffffffffffffffffffff1614612611576040517f08c379a000000000000000000000000000000000000000000000000000000000815260040161260890614e9a565b60405180910390fd5b6040518060a0016040528087878080601f016020809104026020016040519081016040528093929190818152602001838380828437600081840152601f19601f82011690508083019250505050505050815260200185858080601f016020809104026020016040519081016040528093929190818152602001838380828437600081840152601f19601f82011690508083019250505050505050815260200183838080601f016020809104026020016040519081016040528093929190818152602001838380828437600081840152601f19601f8201169050808301925050505050505081526020016002600381111561270e5761270d613fbf565b5b815260200160011515815250600160003373ffffffffffffffffffffffffffffffffffffffff1673ffffffffffffffffffffffffffffffffffffffff168152602001908152602001600020600082015181600001908161276e9190614b38565b5060208201518160010190816127849190614b38565b50604082015181600201908161279a9190614b38565b5060608201518160030160006101000a81548160ff021916908360038111156127c6576127c5613fbf565b5b021790555060808201518160030160016101000a81548160ff02191690831515021790555090505033600387876040516128019291906149b5565b908152602001604051809103902060006101000a81548173ffffffffffffffffffffffffffffffffffffffff021916908373ffffffffffffffffffffffffffffffffffffffff1602179055508585600460003373ffffffffffffffffffffffffffffffffffffffff1673ffffffffffffffffffffffffffffffffffffffff168152602001908152602001600020918261289b92919061477d565b506009339080600181540180825580915050600190039060005260206000200160009091909190916101000a81548173ffffffffffffffffffffffffffffffffffffffff021916908373ffffffffffffffffffffffffffffffffffffffff1602179055503373ffffffffffffffffffffffffffffffffffffffff167f509c70f523067009f7db7f46db6956d7af8b679323680dc3821a8bad001ac1e187878787878760405161294f96959493929190614eba565b60405180910390a2505050505050565b60606000600381111561297557612974613fbf565b5b600260003373ffffffffffffffffffffffffffffffffffffffff1673ffffffffffffffffffffffffffffffffffffffff16815260200190815260200160002060009054906101000a900460ff1660038111156129d4576129d3613fbf565b5b14612a14576040517f08c379a0000000000000000000000000000000000000000000000000000000008152600401612a0b90614495565b60405180910390fd5b6009805480602002602001604051908101604052809291908181526020018280548015612a9657602002820191906000526020600020905b8160009054906101000a900473ffffffffffffffffffffffffffffffffffffffff1673ffffffffffffffffffffffffffffffffffffffff1681526020019060010190808311612a4c575b5050505050905090565b60606000805b600980549050811015612c6957600060098281548110612ac957612ac86144b5565b5b9060005260206000200160009054906101000a900473ffffffffffffffffffffffffffffffffffffffff1690506000600460008373ffffffffffffffffffffffffffffffffffffffff1673ffffffffffffffffffffffffffffffffffffffff1681526020019081526020016000208054612b4290614513565b80601f0160208091040260200160405190810160405280929190818152602001828054612b6e90614513565b8015612bbb5780601f10612b9057610100808354040283529160200191612bbb565b820191906000526020600020905b815481529060010190602001808311612b9e57829003601f168201915b505050505090506000600582604051612bd49190614580565b9081526020016040518091039020905060005b8180549050811015612c5257603c828281548110612c0857612c076144b5565b5b906000526020600020906008020160030160009054906101000a900460ff1660ff161015612c3f578580612c3b906148dc565b9650505b8080612c4a906148dc565b915050612be7565b505050508080612c61906148dc565b915050612aa6565b5060008167ffffffffffffffff811115612c8657612c856145a2565b5b604051908082528060200260200182016040528015612cbf57816020015b612cac61395d565b815260200190600190039081612ca45790505b5090506000805b6009805490508110156131a157600060098281548110612ce957612ce86144b5565b5b9060005260206000200160009054906101000a900473ffffffffffffffffffffffffffffffffffffffff1690506000600460008373ffffffffffffffffffffffffffffffffffffffff1673ffffffffffffffffffffffffffffffffffffffff1681526020019081526020016000208054612d6290614513565b80601f0160208091040260200160405190810160405280929190818152602001828054612d8e90614513565b8015612ddb5780601f10612db057610100808354040283529160200191612ddb565b820191906000526020600020905b815481529060010190602001808311612dbe57829003601f168201915b505050505090506000600582604051612df49190614580565b9081526020016040518091039020905060005b818054905081101561318a57603c828281548110612e2857612e276144b5565b5b906000526020600020906008020160030160009054906101000a900460ff1660ff16101561317757818181548110612e6357612e626144b5565b5b90600052602060002090600802016040518061010001604052908160008201548152602001600182018054612e9790614513565b80601f0160208091040260200160405190810160405280929190818152602001828054612ec390614513565b8015612f105780601f10612ee557610100808354040283529160200191612f10565b820191906000526020600020905b815481529060010190602001808311612ef357829003601f168201915b50505050508152602001600282018054612f2990614513565b80601f0160208091040260200160405190810160405280929190818152602001828054612f5590614513565b8015612fa25780601f10612f7757610100808354040283529160200191612fa2565b820191906000526020600020905b815481529060010190602001808311612f8557829003601f168201915b505050505081526020016003820160009054906101000a900460ff1660ff1660ff168152602001600482015481526020016005820160009054906101000a900473ffffffffffffffffffffffffffffffffffffffff1673ffffffffffffffffffffffffffffffffffffffff1673ffffffffffffffffffffffffffffffffffffffff16815260200160068201805461303890614513565b80601f016020809104026020016040519081016040528092919081815260200182805461306490614513565b80156130b15780601f10613086576101008083540402835291602001916130b1565b820191906000526020600020905b81548152906001019060200180831161309457829003601f168201915b505050505081526020016007820180546130ca90614513565b80601f01602080910402602001604051908101604052809291908181526020018280546130f690614513565b80156131435780601f1061311857610100808354040283529160200191613143565b820191906000526020600020905b81548152906001019060200180831161312657829003601f168201915b505050505081525050878780613158906148dc565b98508151811061316b5761316a6144b5565b5b60200260200101819052505b8080613182906148dc565b915050612e07565b505050508080613199906148dc565b915050612cc6565b5081935050505090565b600060038111156131bf576131be613fbf565b5b600260003373ffffffffffffffffffffffffffffffffffffffff1673ffffffffffffffffffffffffffffffffffffffff16815260200190815260200160002060009054906101000a900460ff16600381111561321e5761321d613fbf565b5b1461325e576040517f08c379a000000000000000000000000000000000000000000000000000000000815260040161325590614495565b60405180910390fd5b6000805b6009805490508110156134f957600060098281548110613285576132846144b5565b5b9060005260206000200160009054906101000a900473ffffffffffffffffffffffffffffffffffffffff1690506000600460008373ffffffffffffffffffffffffffffffffffffffff1673ffffffffffffffffffffffffffffffffffffffff16815260200190815260200160002080546132fe90614513565b80601f016020809104026020016040519081016040528092919081815260200182805461332a90614513565b80156133775780601f1061334c57610100808354040283529160200191613377565b820191906000526020600020905b81548152906001019060200180831161335a57829003601f168201915b5050505050905060006005826040516133909190614580565b9081526020016040518091039020905060005b81805490508110156134d457868282815481106133c3576133c26144b5565b5b9060005260206000209060080201600001541480156134165750603c8282815481106133f2576133f16144b5565b5b906000526020600020906008020160030160009054906101000a900460ff1660ff16105b156134c1576040518060400160405280600881526020017f72656a6563746564000000000000000000000000000000000000000000000000815250828281548110613464576134636144b5565b5b906000526020600020906008020160060190816134819190614b38565b5060019550867f1e03591cf0112e5859e4565de39b4a69c1d97d36bdeb9e12f6cd725da41acc0c6040516134b490614f58565b60405180910390a26134d4565b80806134cc906148dc565b9150506133a3565b5084156134e3575050506134f9565b50505080806134f1906148dc565b915050613262565b508061353a576040517f08c379a000000000000000000000000000000000000000000000000000000000815260040161353190614fc4565b60405180910390fd5b5050565b60008054906101000a900473ffffffffffffffffffffffffffffffffffffffff1681565b6000600381111561357657613575613fbf565b5b600260003373ffffffffffffffffffffffffffffffffffffffff1673ffffffffffffffffffffffffffffffffffffffff16815260200190815260200160002060009054906101000a900460ff1660038111156135d5576135d4613fbf565b5b14613615576040517f08c379a000000000000000000000000000000000000000000000000000000000815260040161360c90614495565b60405180910390fd5b6000805b6009805490508110156138715760006009828154811061363c5761363b6144b5565b5b9060005260206000200160009054906101000a900473ffffffffffffffffffffffffffffffffffffffff1690506000600460008373ffffffffffffffffffffffffffffffffffffffff1673ffffffffffffffffffffffffffffffffffffffff16815260200190815260200160002080546136b590614513565b80601f01602080910402602001604051908101604052809291908181526020018280546136e190614513565b801561372e5780601f106137035761010080835404028352916020019161372e565b820191906000526020600020905b81548152906001019060200180831161371157829003601f168201915b5050505050905060006005826040516137479190614580565b9081526020016040518091039020905060005b818054905081101561384c578682828154811061377a576137796144b5565b5b90600052602060002090600802016000015403613839576040518060400160405280600881526020017f617070726f7665640000000000000000000000000000000000000000000000008152508282815481106137da576137d96144b5565b5b906000526020600020906008020160060190816137f79190614b38565b5060019550867f8e58cb05cdb686fe591c92fce9be3bb13e46c9149bcda55eba5daa4266ddef1b3360405161382c9190614408565b60405180910390a261384c565b8080613844906148dc565b91505061375a565b50841561385b57505050613871565b5050508080613869906148dc565b915050613619565b50806138b2576040517f08c379a00000000000000000000000000000000000000000000000000000000081526004016138a990614970565b60405180910390fd5b5050565b6040518060a00160405280606081526020016060815260200160608152602001600060038111156138ea576138e9613fbf565b5b81526020016000151581525090565b50805461390590614513565b6000825580601f106139175750613936565b601f01602090049060005260206000209081019061393591906139bb565b5b50565b508054600082556008029060005260206000209081019061395a91906139d8565b50565b604051806101000160405280600081526020016060815260200160608152602001600060ff16815260200160008152602001600073ffffffffffffffffffffffffffffffffffffffff16815260200160608152602001606081525090565b5b808211156139d45760008160009055506001016139bc565b5090565b5b80821115613a76576000808201600090556001820160006139fa91906138f9565b600282016000613a0a91906138f9565b6003820160006101000a81549060ff021916905560048201600090556005820160006101000a81549073ffffffffffffffffffffffffffffffffffffffff0219169055600682016000613a5d91906138f9565b600782016000613a6d91906138f9565b506008016139d9565b5090565b600080fd5b600080fd5b6000819050919050565b613a9781613a84565b8114613aa257600080fd5b50565b600081359050613ab481613a8e565b92915050565b600080fd5b600080fd5b600080fd5b60008083601f840112613adf57613ade613aba565b5b8235905067ffffffffffffffff811115613afc57613afb613abf565b5b602083019150836001820283011115613b1857613b17613ac4565b5b9250929050565b600080600060408486031215613b3857613b37613a7a565b5b6000613b4686828701613aa5565b935050602084013567ffffffffffffffff811115613b6757613b66613a7f565b5b613b7386828701613ac9565b92509250509250925092565b60008060208385031215613b9657613b95613a7a565b5b600083013567ffffffffffffffff811115613bb457613bb3613a7f565b5b613bc085828601613ac9565b92509250509250929050565b600081519050919050565b600082825260208201905092915050565b6000819050602082019050919050565b613c0181613a84565b82525050565b600081519050919050565b600082825260208201905092915050565b60005b83811015613c41578082015181840152602081019050613c26565b60008484015250505050565b6000601f19601f8301169050919050565b6000613c6982613c07565b613c738185613c12565b9350613c83818560208601613c23565b613c8c81613c4d565b840191505092915050565b600060ff82169050919050565b613cad81613c97565b82525050565b600073ffffffffffffffffffffffffffffffffffffffff82169050919050565b6000613cde82613cb3565b9050919050565b613cee81613cd3565b82525050565b600061010083016000830151613d0d6000860182613bf8565b5060208301518482036020860152613d258282613c5e565b91505060408301518482036040860152613d3f8282613c5e565b9150506060830151613d546060860182613ca4565b506080830151613d676080860182613bf8565b5060a0830151613d7a60a0860182613ce5565b5060c083015184820360c0860152613d928282613c5e565b91505060e083015184820360e0860152613dac8282613c5e565b9150508091505092915050565b6000613dc58383613cf4565b905092915050565b6000602082019050919050565b6000613de582613bcc565b613def8185613bd7565b935083602082028501613e0185613be8565b8060005b85811015613e3d5784840389528151613e1e8582613db9565b9450613e2983613dcd565b925060208a01995050600181019050613e05565b50829750879550505050505092915050565b60006020820190508181036000830152613e698184613dda565b905092915050565b613e7a81613c97565b8114613e8557600080fd5b50565b600081359050613e9781613e71565b92915050565b60008060008060008060006080888a031215613ebc57613ebb613a7a565b5b600088013567ffffffffffffffff811115613eda57613ed9613a7f565b5b613ee68a828b01613ac9565b9750975050602088013567ffffffffffffffff811115613f0957613f08613a7f565b5b613f158a828b01613ac9565b95509550506040613f288a828b01613e88565b935050606088013567ffffffffffffffff811115613f4957613f48613a7f565b5b613f558a828b01613ac9565b925092505092959891949750929550565b613f6f81613cd3565b8114613f7a57600080fd5b50565b600081359050613f8c81613f66565b92915050565b600060208284031215613fa857613fa7613a7a565b5b6000613fb684828501613f7d565b91505092915050565b7f4e487b7100000000000000000000000000000000000000000000000000000000600052602160045260246000fd5b60048110613fff57613ffe613fbf565b5b50565b600081905061401082613fee565b919050565b600061402082614002565b9050919050565b61403081614015565b82525050565b600060208201905061404b6000830184614027565b92915050565b6004811061405e57600080fd5b50565b60008135905061407081614051565b92915050565b6000806040838503121561408d5761408c613a7a565b5b600061409b85828601613f7d565b92505060206140ac85828601614061565b9150509250929050565b6140bf81614015565b82525050565b60008115159050919050565b6140da816140c5565b82525050565b600060a08301600083015184820360008601526140fd8282613c5e565b915050602083015184820360208601526141178282613c5e565b915050604083015184820360408601526141318282613c5e565b915050606083015161414660608601826140b6565b50608083015161415960808601826140d1565b508091505092915050565b6000602082019050818103600083015261417e81846140e0565b905092915050565b600082825260208201905092915050565b60006141a282613c07565b6141ac8185614186565b93506141bc818560208601613c23565b6141c581613c4d565b840191505092915050565b6141d9816140c5565b82525050565b600060a08201905081810360008301526141f98188614197565b9050818103602083015261420d8187614197565b905081810360408301526142218186614197565b90506142306060830185614027565b61423d60808301846141d0565b9695505050505050565b6000806000806000806060878903121561426457614263613a7a565b5b600087013567ffffffffffffffff81111561428257614281613a7f565b5b61428e89828a01613ac9565b9650965050602087013567ffffffffffffffff8111156142b1576142b0613a7f565b5b6142bd89828a01613ac9565b9450945050604087013567ffffffffffffffff8111156142e0576142df613a7f565b5b6142ec89828a01613ac9565b92509250509295509295509295565b600081519050919050565b600082825260208201905092915050565b6000819050602082019050919050565b60006143338383613ce5565b60208301905092915050565b6000602082019050919050565b6000614357826142fb565b6143618185614306565b935061436c83614317565b8060005b8381101561439d5781516143848882614327565b975061438f8361433f565b925050600181019050614370565b5085935050505092915050565b600060208201905081810360008301526143c4818461434c565b905092915050565b6000602082840312156143e2576143e1613a7a565b5b60006143f084828501613aa5565b91505092915050565b61440281613cd3565b82525050565b600060208201905061441d60008301846143f9565b92915050565b7f4f6e6c792061646d696e2063616e20706572666f726d2074686973206163746960008201527f6f6e000000000000000000000000000000000000000000000000000000000000602082015250565b600061447f602283614186565b915061448a82614423565b604082019050919050565b600060208201905081810360008301526144ae81614472565b9050919050565b7f4e487b7100000000000000000000000000000000000000000000000000000000600052603260045260246000fd5b7f4e487b7100000000000000000000000000000000000000000000000000000000600052602260045260246000fd5b6000600282049050600182168061452b57607f821691505b60208210810361453e5761453d6144e4565b5b50919050565b600081905092915050565b600061455a82613c07565b6145648185614544565b9350614574818560208601613c23565b80840191505092915050565b600061458c828461454f565b915081905092915050565b600082905092915050565b7f4e487b7100000000000000000000000000000000000000000000000000000000600052604160045260246000fd5b60008190508160005260206000209050919050565b60006020601f8301049050919050565b600082821b905092915050565b6000600883026146337fffffffffffffffffffffffffffffffffffffffffffffffffffffffffffffffff826145f6565b61463d86836145f6565b95508019841693508086168417925050509392505050565b6000819050919050565b600061467a61467561467084613a84565b614655565b613a84565b9050919050565b6000819050919050565b6146948361465f565b6146a86146a082614681565b848454614603565b825550505050565b600090565b6146bd6146b0565b6146c881848461468b565b505050565b5b818110156146ec576146e16000826146b5565b6001810190506146ce565b5050565b601f82111561473157614702816145d1565b61470b846145e6565b8101602085101561471a578190505b61472e614726856145e6565b8301826146cd565b50505b505050565b600082821c905092915050565b600061475460001984600802614736565b1980831691505092915050565b600061476d8383614743565b9150826002028217905092915050565b6147878383614597565b67ffffffffffffffff8111156147a05761479f6145a2565b5b6147aa8254614513565b6147b58282856146f0565b6000601f8311600181146147e457600084156147d2578287013590505b6147dc8582614761565b865550614844565b601f1984166147f2866145d1565b60005b8281101561481a578489013582556001820191506020850194506020810190506147f5565b868310156148375784890135614833601f891682614743565b8355505b6001600288020188555050505b50505050505050565b82818337600083830152505050565b60006148688385614186565b935061487583858461484d565b61487e83613c4d565b840190509392505050565b600060208201905081810360008301526148a481848661485c565b90509392505050565b7f4e487b7100000000000000000000000000000000000000000000000000000000600052601160045260246000fd5b60006148e782613a84565b91507fffffffffffffffffffffffffffffffffffffffffffffffffffffffffffffffff8203614919576149186148ad565b5b600182019050919050565b7f4772616465206e6f7420666f756e640000000000000000000000000000000000600082015250565b600061495a600f83614186565b915061496582614924565b602082019050919050565b600060208201905081810360008301526149898161494d565b9050919050565b600061499c8385614544565b93506149a983858461484d565b82840190509392505050565b60006149c2828486614990565b91508190509392505050565b7f4f6e6c7920746561636865722063616e20706572666f726d207468697320616360008201527f74696f6e00000000000000000000000000000000000000000000000000000000602082015250565b6000614a2a602483614186565b9150614a35826149ce565b604082019050919050565b60006020820190508181036000830152614a5981614a1d565b9050919050565b7f496e76616c69642073636f726500000000000000000000000000000000000000600082015250565b6000614a96600d83614186565b9150614aa182614a60565b602082019050919050565b60006020820190508181036000830152614ac581614a89565b9050919050565b7f53747564656e74206e6f7420666f756e64000000000000000000000000000000600082015250565b6000614b02601183614186565b9150614b0d82614acc565b602082019050919050565b60006020820190508181036000830152614b3181614af5565b9050919050565b614b4182613c07565b67ffffffffffffffff811115614b5a57614b596145a2565b5b614b648254614513565b614b6f8282856146f0565b600060209050601f831160018114614ba25760008415614b90578287015190505b614b9a8582614761565b865550614c02565b601f198416614bb0866145d1565b60005b82811015614bd857848901518255600182019150602085019450602081019050614bb3565b86831015614bf55784890151614bf1601f891682614743565b8355505b6001600288020188555050505b505050505050565b60008154614c1781614513565b614c218186614544565b94506001821660008114614c3c5760018114614c5157614c84565b60ff1983168652811515820286019350614c84565b614c5a856145d1565b60005b83811015614c7c57815481890152600182019150602081019050614c5d565b838801955050505b50505092915050565b6000614c998284614c0a565b915081905092915050565b614cad81613c97565b82525050565b60006080820190508181036000830152614cce81888a61485c565b90508181036020830152614ce381868861485c565b9050614cf26040830185614ca4565b614cff60608301846143f9565b979650505050505050565b7f55736572206e6f74207265676973746572656400000000000000000000000000600082015250565b6000614d40601383614186565b9150614d4b82614d0a565b602082019050919050565b60006020820190508181036000830152614d6f81614d33565b9050919050565b7f41646d696e732063616e6e6f7420726567697374657200000000000000000000600082015250565b6000614dac601683614186565b9150614db782614d76565b602082019050919050565b60006020820190508181036000830152614ddb81614d9f565b9050919050565b7f416c726561647920726567697374657265640000000000000000000000000000600082015250565b6000614e18601283614186565b9150614e2382614de2565b602082019050919050565b60006020820190508181036000830152614e4781614e0b565b9050919050565b7f73747564656e74496420616c7265616479207573656400000000000000000000600082015250565b6000614e84601683614186565b9150614e8f82614e4e565b602082019050919050565b60006020820190508181036000830152614eb381614e77565b9050919050565b60006060820190508181036000830152614ed581888a61485c565b90508181036020830152614eea81868861485c565b90508181036040830152614eff81848661485c565b9050979650505050505050565b7f72656a6563746564000000000000000000000000000000000000000000000000600082015250565b6000614f42600883614186565b9150614f4d82614f0c565b602082019050919050565b60006020820190508181036000830152614f7181614f35565b9050919050565b7f4772616465206e6f7420666f756e64206f72206e6f7420656c696769626c6500600082015250565b6000614fae601f83614186565b9150614fb982614f78565b602082019050919050565b60006020820190508181036000830152614fdd81614fa1565b905091905056fea2646970667358221220de8f776a91157a602efd05f88a9cae44bcd51e8d9726f1f7f3373e7e04ff5bb664736f6c63430008140033",
  "linkReferences": {},
  "deployedLinkReferences": {}
}