{
  "_format": "hh-sol-artifact-1",
  "contractName": "EducationGrades",
  "sourceName": "contracts/EducationGrades.sol",
  "abi": [
    {
      "inputs": [],
      "stateMutability": "nonpayable",
      "type": "constructor"
    },
    {
      "anonymous": false,
      "inputs": [
        {
          "indexed": true,
          "internalType": "uint256",
          "name": "gradeId",
          "type": "uint256"
        },
        {
          "indexed": false,
          "internalType": "address",
          "name": "approvedBy",
          "type": "address"
        }
      ],
      "name": "GradeApproved",
      "type": "event"
    },
    {
      "anonymous": false,
      "inputs": [
        {
          "indexed": true,
          "internalType": "uint256",
          "name": "gradeId",
          "type": "uint256"
        },
        {
          "indexed": false,
          "internalType": "string",
          "name": "newStatus",
          "type": "string"
        }
      ],
      "name": "GradeStatusUpdated",
      "type": "event"
    },
    {
      "anonymous": false,
      "inputs": [
        {
          "indexed": true,
          "internalType": "uint256",
          "name": "gradeId",
          "type": "uint256"
        },
        {
          "indexed": false,
          "internalType": "string",
          "name": "studentId",
          "type": "string"
        },
        {
          "indexed": false,
          "internalType": "string",
          "name": "course",
          "type": "string"
        },
        {
          "indexed": false,
          "internalType": "uint8",
          "name": "score",
          "type": "uint8"
        },
        {
          "indexed": false,
          "internalType": "address",
          "name": "teacher",
          "type": "address"
        }
      ],
      "name": "GradeUploaded",
      "type": "event"
    },
    {
      "anonymous": false,
      "inputs": [
        {
          "indexed": true,
          "internalType": "address",
          "name": "user",
          "type": "address"
        },
        {
          "indexed": false,
          "internalType": "enum EducationGrades.Role",
          "name": "role",
          "type": "uint8"
        }
      ],
      "name": "RoleAssigned",
      "type": "event"
    },
    {
      "anonymous": false,
      "inputs": [
        {
          "indexed": true,
          "internalType": "address",
          "name": "user",
          "type": "address"
        },
        {
          "indexed": false,
          "internalType": "string",
          "name": "username",
          "type": "string"
        },
        {
          "indexed": false,
          "internalType": "string",
          "name": "email",
          "type": "string"
        },
        {
          "indexed": false,
          "internalType": "string",
          "name": "contactNumber",
          "type": "string"
        }
      ],
      "name": "UserRegistered",
      "type": "event"
    },
    {
      "anonymous": false,
      "inputs": [
        {
          "indexed": true,
          "internalType": "address",
          "name": "user",
          "type": "address"
        }
      ],
      "name": "UserRemoved",
      "type": "event"
    },
    {
      "inputs": [],
      "name": "admin",
      "outputs": [
        {
          "internalType": "address",
          "name": "",
          "type": "address"
        }
      ],
      "stateMutability": "view",
      "type": "function"
    },
    {
      "inputs": [
        {
          "internalType": "uint256",
          "name": "gradeId",
          "type": "uint256"
        }
      ],
      "name": "approveGrade",
      "outputs": [],
      "stateMutability": "nonpayable",
      "type": "function"
    },
    {
      "inputs": [
        {
          "internalType": "address",
          "name": "_user",
          "type": "address"
        },
        {
          "internalType": "enum EducationGrades.Role",
          "name": "_role",
          "type": "uint8"
        }
      ],
      "name": "assignRole",
      "outputs": [],
      "stateMutability": "nonpayable",
      "type": "function"
    },
    {
      "inputs": [],
      "name": "getAllUsers",
      "outputs": [
        {
          "internalType": "address[]",
          "name": "",
          "type": "address[]"
        }
      ],
      "stateMutability": "view",
      "type": "function"
    },
    {
      "inputs": [
        {
          "internalType": "address",
          "name": "studentAddress",
          "type": "address"
        }
      ],
      "name": "getGradesByAddress",
      "outputs": [
        {
          "components": [
            {
              "internalType": "uint256",
              "name": "gradeId",
              "type": "uint256"
            },
            {
              "internalType": "string",
              "name": "studentId",
              "type": "string"
            },
            {
              "internalType": "string",
              "name": "studentName",
              "type": "string"
            },
            {
              "internalType": "string",
              "name": "course",
              "type": "string"
            },
            {
              "internalType": "uint8",
              "name": "score",
              "type": "uint8"
            },
            {
              "internalType": "uint256",
              "name": "timestamp",
              "type": "uint256"
            },
            {
              "internalType": "address",
              "name": "teacher",
              "type": "address"
            },
            {
              "internalType": "string",
              "name": "status",
              "type": "string"
            },
            {
              "internalType": "string",
              "name": "remark",
              "type": "string"
            }
          ],
          "internalType": "struct EducationGrades.Grade[]",
          "name": "",
          "type": "tuple[]"
        }
      ],
      "stateMutability": "view",
      "type": "function"
    },
    {
      "inputs": [
        {
          "internalType": "string",
          "name": "studentId",
          "type": "string"
        },
        {
          "internalType": "string",
          "name": "course",
          "type": "string"
        }
      ],
      "name": "getGradesByStudentAndCourse",
      "outputs": [
        {
          "components": [
            {
              "internalType": "uint256",
              "name": "gradeId",
              "type": "uint256"
            },
            {
              "internalType": "string",
              "name": "studentId",
              "type": "string"
            },
            {
              "internalType": "string",
              "name": "studentName",
              "type": "string"
            },
            {
              "internalType": "string",
              "name": "course",
              "type": "string"
            },
            {
              "internalType": "uint8",
              "name": "score",
              "type": "uint8"
            },
            {
              "internalType": "uint256",
              "name": "timestamp",
              "type": "uint256"
            },
            {
              "internalType": "address",
              "name": "teacher",
              "type": "address"
            },
            {
              "internalType": "string",
              "name": "status",
              "type": "string"
            },
            {
              "internalType": "string",
              "name": "remark",
              "type": "string"
            }
          ],
          "internalType": "struct EducationGrades.Grade[]",
          "name": "",
          "type": "tuple[]"
        }
      ],
      "stateMutability": "view",
      "type": "function"
    },
    {
      "inputs": [
        {
          "internalType": "string",
          "name": "studentId",
          "type": "string"
        }
      ],
      "name": "getGradesByStudentId",
      "outputs": [
        {
          "components": [
            {
              "internalType": "uint256",
              "name": "gradeId",
              "type": "uint256"
            },
            {
              "internalType": "string",
              "name": "studentId",
              "type": "string"
            },
            {
              "internalType": "string",
              "name": "studentName",
              "type": "string"
            },
            {
              "internalType": "string",
              "name": "course",
              "type": "string"
            },
            {
              "internalType": "uint8",
              "name": "score",
              "type": "uint8"
            },
            {
              "internalType": "uint256",
              "name": "timestamp",
              "type": "uint256"
            },
            {
              "internalType": "address",
              "name": "teacher",
              "type": "address"
            },
            {
              "internalType": "string",
              "name": "status",
              "type": "string"
            },
            {
              "internalType": "string",
              "name": "remark",
              "type": "string"
            }
          ],
          "internalType": "struct EducationGrades.Grade[]",
          "name": "",
          "type": "tuple[]"
        }
      ],
      "stateMutability": "view",
      "type": "function"
    },
    {
      "inputs": [
        {
          "internalType": "string",
          "name": "username",
          "type": "string"
        }
      ],
      "name": "getGradesByUsername",
      "outputs": [
        {
          "components": [
            {
              "internalType": "uint256",
              "name": "gradeId",
              "type": "uint256"
            },
            {
              "internalType": "string",
              "name": "studentId",
              "type": "string"
            },
            {
              "internalType": "string",
              "name": "studentName",
              "type": "string"
            },
            {
              "internalType": "string",
              "name": "course",
              "type": "string"
            },
            {
              "internalType": "uint8",
              "name": "score",
              "type": "uint8"
            },
            {
              "internalType": "uint256",
              "name": "timestamp",
              "type": "uint256"
            },
            {
              "internalType": "address",
              "name": "teacher",
              "type": "address"
            },
            {
              "internalType": "string",
              "name": "status",
              "type": "string"
            },
            {
              "internalType": "string",
              "name": "remark",
              "type": "string"
            }
          ],
          "internalType": "struct EducationGrades.Grade[]",
          "name": "",
          "type": "tuple[]"
        }
      ],
      "stateMutability": "view",
      "type": "function"
    },
    {
      "inputs": [],
      "name": "getLowScoreGrades",
      "outputs": [
        {
          "components": [
            {
              "internalType": "uint256",
              "name": "gradeId",
              "type": "uint256"
            },
            {
              "internalType": "string",
              "name": "studentId",
              "type": "string"
            },
            {
              "internalType": "string",
              "name": "studentName",
              "type": "string"
            },
            {
              "internalType": "string",
              "name": "course",
              "type": "string"
            },
            {
              "internalType": "uint8",
              "name": "score",
              "type": "uint8"
            },
            {
              "internalType": "uint256",
              "name": "timestamp",
              "type": "uint256"
            },
            {
              "internalType": "address",
              "name": "teacher",
              "type": "address"
            },
            {
              "internalType": "string",
              "name": "status",
              "type": "string"
            },
            {
              "internalType": "string",
              "name": "remark",
              "type": "string"
            }
          ],
          "internalType": "struct EducationGrades.Grade[]",
          "name": "",
          "type": "tuple[]"
        }
      ],
      "stateMutability": "view",
      "type": "function"
    },
    {
      "inputs": [
        {
          "internalType": "address",
          "name": "_user",
          "type": "address"
        }
      ],
      "name": "getUserInfo",
      "outputs": [
        {
          "components": [
            {
              "internalType": "string",
              "name": "username",
              "type": "string"
            },
            {
              "internalType": "string",
              "name": "name",
              "type": "string"
            },
            {
              "internalType": "string",
              "name": "email",
              "type": "string"
            },
            {
              "internalType": "string",
              "name": "contactNumber",
              "type": "string"
            },
            {
              "internalType": "enum EducationGrades.Role",
              "name": "role",
              "type": "uint8"
            },
            {
              "internalType": "bool",
              "name": "isRegistered",
              "type": "bool"
            }
          ],
          "internalType": "struct EducationGrades.User",
          "name": "",
          "type": "tuple"
        }
      ],
      "stateMutability": "view",
      "type": "function"
    },
    {
      "inputs": [
        {
          "internalType": "address",
          "name": "_user",
          "type": "address"
        }
      ],
      "name": "getUserRole",
      "outputs": [
        {
          "internalType": "enum EducationGrades.Role",
          "name": "",
          "type": "uint8"
        }
      ],
      "stateMutability": "view",
      "type": "function"
    },
    {
      "inputs": [
        {
          "internalType": "string",
          "name": "studentId",
          "type": "string"
        },
        {
          "internalType": "string",
          "name": "name",
          "type": "string"
        },
        {
          "internalType": "string",
          "name": "email",
          "type": "string"
        },
        {
          "internalType": "string",
          "name": "contactNumber",
          "type": "string"
        }
      ],
      "name": "registerUser",
      "outputs": [],
      "stateMutability": "nonpayable",
      "type": "function"
    },
    {
      "inputs": [
        {
          "internalType": "address",
          "name": "_user",
          "type": "address"
        }
      ],
      "name": "removeUser",
      "outputs": [],
      "stateMutability": "nonpayable",
      "type": "function"
    },
    {
      "inputs": [
        {
          "internalType": "uint256",
          "name": "gradeId",
          "type": "uint256"
        }
      ],
      "name": "setGradeToRejected",
      "outputs": [],
      "stateMutability": "nonpayable",
      "type": "function"
    },
    {
      "inputs": [
        {
          "internalType": "uint256",
          "name": "gradeId",
          "type": "uint256"
        },
        {
          "internalType": "string",
          "name": "newStatus",
          "type": "string"
        }
      ],
      "name": "updateGradeStatus",
      "outputs": [],
      "stateMutability": "nonpayable",
      "type": "function"
    },
    {
      "inputs": [
        {
          "internalType": "string",
          "name": "studentId",
          "type": "string"
        },
        {
          "internalType": "string",
          "name": "course",
          "type": "string"
        },
        {
          "internalType": "string",
          "name": "newStatus",
          "type": "string"
        }
      ],
      "name": "updateGradeStatusByStudentAndCourse",
      "outputs": [],
      "stateMutability": "nonpayable",
      "type": "function"
    },
    {
      "inputs": [
        {
          "internalType": "string",
          "name": "studentId",
          "type": "string"
        },
        {
          "internalType": "string",
          "name": "course",
          "type": "string"
        },
        {
          "internalType": "uint8",
          "name": "score",
          "type": "uint8"
        },
        {
          "internalType": "string",
          "name": "remark",
          "type": "string"
        }
      ],
      "name": "uploadGrade",
      "outputs": [],
      "stateMutability": "nonpayable",
      "type": "function"
    },
    {
      "inputs": [
        {
          "internalType": "address",
          "name": "",
          "type": "address"
        }
      ],
      "name": "userRoles",
      "outputs": [
        {
          "internalType": "enum EducationGrades.Role",
          "name": "",
          "type": "uint8"
        }
      ],
      "stateMutability": "view",
      "type": "function"
    },
    {
      "inputs": [
        {
          "internalType": "address",
          "name": "",
          "type": "address"
        }
      ],
      "name": "users",
      "outputs": [
        {
          "internalType": "string",
          "name": "username",
          "type": "string"
        },
        {
          "internalType": "string",
          "name": "name",
          "type": "string"
        },
        {
          "internalType": "string",
          "name": "email",
          "type": "string"
        },
        {
          "internalType": "string",
          "name": "contactNumber",
          "type": "string"
        },
        {
          "internalType": "enum EducationGrades.Role",
          "name": "role",
          "type": "uint8"
        },
        {
          "internalType": "bool",
          "name": "isRegistered",
          "type": "bool"
        }
      ],
      "stateMutability": "view",
      "type": "function"
    }
  ],
  "bytecode": "0x60806040526000600a5534801561001557600080fd5b5060008054336001600160a01b0319909116811782558152600260205260409020805460ff191690556143c48061004d6000396000f3fe608060405234801561001057600080fd5b50600436106101115760003560e01c80639348f85b116100ad578063e2842d7911610071578063e2842d791461028d578063f02573f8146102a2578063f7327381146102aa578063f851a440146102bd578063ffab6532146102e857600080fd5b80639348f85b1461021c57806393e54a561461022f5780639857518814610242578063a87430ba14610255578063e1db4baa1461027a57600080fd5b806303670752146101165780631109485b1461012b5780632224c33114610154578063278208511461016757806338564d44146101a0578063630a195b146101b35780636386c1c7146101c65780636ede0b2e146101e657806374d5e100146101f9575b600080fd5b610129610124366004613882565b6102fb565b005b61013e6101393660046138cd565b610531565b60405161014b919061395e565b60405180910390f35b610129610162366004613a67565b6108c5565b610193610175366004613b37565b6001600160a01b031660009081526002602052604090205460ff1690565b60405161014b9190613b91565b61013e6101ae366004613b9f565b610fda565b6101296101c1366004613c0a565b6114c3565b6101d96101d4366004613b37565b6115c3565b60405161014b9190613c45565b61013e6101f4366004613b37565b611883565b610193610207366004613b37565b60026020526000908152604090205460ff1681565b61013e61022a3660046138cd565b611c0b565b61012961023d366004613ce6565b611f92565b610129610250366004613b37565b612369565b610268610263366004613b37565b612629565b60405161014b96959493929190613da9565b610129610288366004613e19565b612883565b610295612a52565b60405161014b9190613eb2565b61013e612af7565b6101296102b8366004613eff565b613189565b6000546102d0906001600160a01b031681565b6040516001600160a01b03909116815260200161014b565b6101296102f6366004613eff565b613450565b3360009081526002602052604081205460ff16600381111561031f5761031f613b59565b146103455760405162461bcd60e51b815260040161033c90613f18565b60405180910390fd5b6000805b60095481101561050d5760006009828154811061036857610368613f5a565b60009182526020808320909101546001600160a01b031680835260049091526040822080549193509061039a90613f70565b80601f01602080910402602001604051908101604052809291908181526020018280546103c690613f70565b80156104135780601f106103e857610100808354040283529160200191610413565b820191906000526020600020905b8154815290600101906020018083116103f657829003601f168201915b50505050509050600060058260405161042c9190613faa565b9081526020016040518091039020905060005b81548110156104e8578882828154811061045b5761045b613f5a565b906000526020600020906009020160000154036104d657878783838154811061048657610486613f5a565b906000526020600020906009020160070191826104a4929190614040565b50600195508860008051602061436f83398151915289896040516104c9929190614123565b60405180910390a26104e8565b806104e08161413f565b91505061043f565b5084156104f75750505061050d565b50505080806105059061413f565b915050610349565b508061052b5760405162461bcd60e51b815260040161033c90614166565b50505050565b60606006838360405161054592919061418f565b9081526020016040518091039020805480602002602001604051908101604052809291908181526020016000905b828210156108b8578382906000526020600020906009020160405180610120016040529081600082015481526020016001820180546105b190613f70565b80601f01602080910402602001604051908101604052809291908181526020018280546105dd90613f70565b801561062a5780601f106105ff5761010080835404028352916020019161062a565b820191906000526020600020905b81548152906001019060200180831161060d57829003601f168201915b5050505050815260200160028201805461064390613f70565b80601f016020809104026020016040519081016040528092919081815260200182805461066f90613f70565b80156106bc5780601f10610691576101008083540402835291602001916106bc565b820191906000526020600020905b81548152906001019060200180831161069f57829003601f168201915b505050505081526020016003820180546106d590613f70565b80601f016020809104026020016040519081016040528092919081815260200182805461070190613f70565b801561074e5780601f106107235761010080835404028352916020019161074e565b820191906000526020600020905b81548152906001019060200180831161073157829003601f168201915b5050509183525050600482015460ff1660208201526005820154604082015260068201546001600160a01b0316606082015260078201805460809092019161079590613f70565b80601f01602080910402602001604051908101604052809291908181526020018280546107c190613f70565b801561080e5780601f106107e35761010080835404028352916020019161080e565b820191906000526020600020905b8154815290600101906020018083116107f157829003601f168201915b5050505050815260200160088201805461082790613f70565b80601f016020809104026020016040519081016040528092919081815260200182805461085390613f70565b80156108a05780601f10610875576101008083540402835291602001916108a0565b820191906000526020600020905b81548152906001019060200180831161088357829003601f168201915b50505050508152505081526020019060010190610573565b5050505090505b92915050565b60013360009081526002602052604090205460ff1660038111156108eb576108eb613b59565b146109445760405162461bcd60e51b8152602060048201526024808201527f4f6e6c7920746561636865722063616e20706572666f726d20746869732061636044820152633a34b7b760e11b606482015260840161033c565b60648360ff1611156109885760405162461bcd60e51b815260206004820152600d60248201526c496e76616c69642073636f726560981b604482015260640161033c565b60006003888860405161099c92919061418f565b908152604051908190036020019020546001600160a01b03169050806109f85760405162461bcd60e51b815260206004820152601160248201527014dd1d59195b9d081b9bdd08199bdd5b99607a1b604482015260640161033c565b6001600160a01b03811660009081526001602081905260408220018054610a1e90613f70565b80601f0160208091040260200160405190810160405280929190818152602001828054610a4a90613f70565b8015610a975780601f10610a6c57610100808354040283529160200191610a97565b820191906000526020600020905b815481529060010190602001808311610a7a57829003601f168201915b505050505090506000600a6000815480929190610ab39061413f565b91905055905060006040518061012001604052808381526020018c8c8080601f016020809104026020016040519081016040528093929190818152602001838380828437600092019190915250505090825250602080820186905260408051601f8d0183900483028101830182528c8152920191908c908c908190840183828082843760009201919091525050509082525060ff891660208083019190915242604080840191909152336060840152805180820182526008815267185c1c1c9bdd995960c21b8184015260808401528051601f8a0183900483028101830190915288815260a0909201919089908990819084018382808284376000920191909152505050915250604051909150600590610bd0908d908d9061418f565b90815260405160209181900382019020805460018082018355600092835291839020845160099092020190815591830151839291820190610c11908261419f565b5060408201516002820190610c26908261419f565b5060608201516003820190610c3b908261419f565b50608082015160048201805460ff191660ff90921691909117905560a0820151600582015560c08201516006820180546001600160a01b0319166001600160a01b0390921691909117905560e08201516007820190610c9a908261419f565b506101008201516008820190610cb0908261419f565b5050506001600160a01b038416600090815260016020526040908190209051600691610cdb916142cb565b90815260405160209181900382019020805460018082018355600092835291839020845160099092020190815591830151839291820190610d1c908261419f565b5060408201516002820190610d31908261419f565b5060608201516003820190610d46908261419f565b50608082015160048201805460ff191660ff90921691909117905560a0820151600582015560c08201516006820180546001600160a01b0319166001600160a01b0390921691909117905560e08201516007820190610da5908261419f565b506101008201516008820190610dbb908261419f565b5050506001600160a01b0384166000908152600760209081526040822080546001818101835591845292829020845160099094020192835590830151839291820190610e07908261419f565b5060408201516002820190610e1c908261419f565b5060608201516003820190610e31908261419f565b50608082015160048201805460ff191660ff90921691909117905560a0820151600582015560c08201516006820180546001600160a01b0319166001600160a01b0390921691909117905560e08201516007820190610e90908261419f565b506101008201516008820190610ea6908261419f565b505033600090815260086020908152604082208054600181810183559184529282902085516009909402019283559084015184935090820190610ee9908261419f565b5060408201516002820190610efe908261419f565b5060608201516003820190610f13908261419f565b50608082015160048201805460ff191660ff90921691909117905560a0820151600582015560c08201516006820180546001600160a01b0319166001600160a01b0390921691909117905560e08201516007820190610f72908261419f565b506101008201516008820190610f88908261419f565b505050817ff13540323af89409fe93c67e00c842e9423704f885251600ad0b75708aa5fb728c8c8c8c8c33604051610fc5969594939291906142d7565b60405180910390a25050505050505050505050565b6060600060058686604051610ff092919061418f565b908152602001604051809103902090506000805b825481101561108257858560405161101d92919061418f565b604051809103902083828154811061103757611037613f5a565b906000526020600020906009020160030160405161105591906142cb565b604051809103902003611070578161106c8161413f565b9250505b8061107a8161413f565b915050611004565b506000816001600160401b0381111561109d5761109d613fc6565b6040519080825280602002602001820160405280156110d657816020015b6110c36136a2565b8152602001906001900390816110bb5790505b5090506000805b84548110156114b55787876040516110f692919061418f565b604051809103902085828154811061111057611110613f5a565b906000526020600020906009020160030160405161112e91906142cb565b6040518091039020036114a35784818154811061114d5761114d613f5a565b9060005260206000209060090201604051806101200160405290816000820154815260200160018201805461118190613f70565b80601f01602080910402602001604051908101604052809291908181526020018280546111ad90613f70565b80156111fa5780601f106111cf576101008083540402835291602001916111fa565b820191906000526020600020905b8154815290600101906020018083116111dd57829003601f168201915b5050505050815260200160028201805461121390613f70565b80601f016020809104026020016040519081016040528092919081815260200182805461123f90613f70565b801561128c5780601f106112615761010080835404028352916020019161128c565b820191906000526020600020905b81548152906001019060200180831161126f57829003601f168201915b505050505081526020016003820180546112a590613f70565b80601f01602080910402602001604051908101604052809291908181526020018280546112d190613f70565b801561131e5780601f106112f35761010080835404028352916020019161131e565b820191906000526020600020905b81548152906001019060200180831161130157829003601f168201915b5050509183525050600482015460ff1660208201526005820154604082015260068201546001600160a01b0316606082015260078201805460809092019161136590613f70565b80601f016020809104026020016040519081016040528092919081815260200182805461139190613f70565b80156113de5780601f106113b3576101008083540402835291602001916113de565b820191906000526020600020905b8154815290600101906020018083116113c157829003601f168201915b505050505081526020016008820180546113f790613f70565b80601f016020809104026020016040519081016040528092919081815260200182805461142390613f70565b80156114705780601f1061144557610100808354040283529160200191611470565b820191906000526020600020905b81548152906001019060200180831161145357829003601f168201915b5050505050815250508383806114859061413f565b94508151811061149757611497613f5a565b60200260200101819052505b806114ad8161413f565b9150506110dd565b509098975050505050505050565b3360009081526002602052604081205460ff1660038111156114e7576114e7613b59565b146115045760405162461bcd60e51b815260040161033c90613f18565b6001600160a01b0382166000908152600260205260409020805482919060ff1916600183600381111561153957611539613b59565b02179055506001600160a01b03821660009081526001602081905260409091206004018054839260ff199091169083600381111561157957611579613b59565b0217905550816001600160a01b03167f4ac36fa53f167ceb85964be512e01de2a3b8bdb9862f917da079deeeff689b38826040516115b79190613b91565b60405180910390a25050565b6115cb6136fa565b6001600160a01b03821660009081526001602052604090819020815160c081019092528054829082906115fd90613f70565b80601f016020809104026020016040519081016040528092919081815260200182805461162990613f70565b80156116765780601f1061164b57610100808354040283529160200191611676565b820191906000526020600020905b81548152906001019060200180831161165957829003601f168201915b5050505050815260200160018201805461168f90613f70565b80601f01602080910402602001604051908101604052809291908181526020018280546116bb90613f70565b80156117085780601f106116dd57610100808354040283529160200191611708565b820191906000526020600020905b8154815290600101906020018083116116eb57829003601f168201915b5050505050815260200160028201805461172190613f70565b80601f016020809104026020016040519081016040528092919081815260200182805461174d90613f70565b801561179a5780601f1061176f5761010080835404028352916020019161179a565b820191906000526020600020905b81548152906001019060200180831161177d57829003601f168201915b505050505081526020016003820180546117b390613f70565b80601f01602080910402602001604051908101604052809291908181526020018280546117df90613f70565b801561182c5780601f106118015761010080835404028352916020019161182c565b820191906000526020600020905b81548152906001019060200180831161180f57829003601f168201915b5050509183525050600482015460209091019060ff16600381111561185357611853613b59565b600381111561186457611864613b59565b815260049190910154610100900460ff16151560209091015292915050565b6001600160a01b0381166000908152600760209081526040808320805482518185028101850190935280835260609492939192909184015b82821015611c00578382906000526020600020906009020160405180610120016040529081600082015481526020016001820180546118f990613f70565b80601f016020809104026020016040519081016040528092919081815260200182805461192590613f70565b80156119725780601f1061194757610100808354040283529160200191611972565b820191906000526020600020905b81548152906001019060200180831161195557829003601f168201915b5050505050815260200160028201805461198b90613f70565b80601f01602080910402602001604051908101604052809291908181526020018280546119b790613f70565b8015611a045780601f106119d957610100808354040283529160200191611a04565b820191906000526020600020905b8154815290600101906020018083116119e757829003601f168201915b50505050508152602001600382018054611a1d90613f70565b80601f0160208091040260200160405190810160405280929190818152602001828054611a4990613f70565b8015611a965780601f10611a6b57610100808354040283529160200191611a96565b820191906000526020600020905b815481529060010190602001808311611a7957829003601f168201915b5050509183525050600482015460ff1660208201526005820154604082015260068201546001600160a01b03166060820152600782018054608090920191611add90613f70565b80601f0160208091040260200160405190810160405280929190818152602001828054611b0990613f70565b8015611b565780601f10611b2b57610100808354040283529160200191611b56565b820191906000526020600020905b815481529060010190602001808311611b3957829003601f168201915b50505050508152602001600882018054611b6f90613f70565b80601f0160208091040260200160405190810160405280929190818152602001828054611b9b90613f70565b8015611be85780601f10611bbd57610100808354040283529160200191611be8565b820191906000526020600020905b815481529060010190602001808311611bcb57829003601f168201915b505050505081525050815260200190600101906118bb565b505050509050919050565b606060058383604051611c1f92919061418f565b9081526020016040518091039020805480602002602001604051908101604052809291908181526020016000905b828210156108b857838290600052602060002090600902016040518061012001604052908160008201548152602001600182018054611c8b90613f70565b80601f0160208091040260200160405190810160405280929190818152602001828054611cb790613f70565b8015611d045780601f10611cd957610100808354040283529160200191611d04565b820191906000526020600020905b815481529060010190602001808311611ce757829003601f168201915b50505050508152602001600282018054611d1d90613f70565b80601f0160208091040260200160405190810160405280929190818152602001828054611d4990613f70565b8015611d965780601f10611d6b57610100808354040283529160200191611d96565b820191906000526020600020905b815481529060010190602001808311611d7957829003601f168201915b50505050508152602001600382018054611daf90613f70565b80601f0160208091040260200160405190810160405280929190818152602001828054611ddb90613f70565b8015611e285780601f10611dfd57610100808354040283529160200191611e28565b820191906000526020600020905b815481529060010190602001808311611e0b57829003601f168201915b5050509183525050600482015460ff1660208201526005820154604082015260068201546001600160a01b03166060820152600782018054608090920191611e6f90613f70565b80601f0160208091040260200160405190810160405280929190818152602001828054611e9b90613f70565b8015611ee85780601f10611ebd57610100808354040283529160200191611ee8565b820191906000526020600020905b815481529060010190602001808311611ecb57829003601f168201915b50505050508152602001600882018054611f0190613f70565b80601f0160208091040260200160405190810160405280929190818152602001828054611f2d90613f70565b8015611f7a5780601f10611f4f57610100808354040283529160200191611f7a565b820191906000526020600020905b815481529060010190602001808311611f5d57829003601f168201915b50505050508152505081526020019060010190611c4d565b3360009081526002602052604081205460ff166003811115611fb657611fb6613b59565b03611ffc5760405162461bcd60e51b815260206004820152601660248201527520b236b4b7399031b0b73737ba103932b3b4b9ba32b960511b604482015260640161033c565b33600090815260016020526040902060040154610100900460ff16156120595760405162461bcd60e51b8152602060048201526012602482015271105b1c9958591e481c9959da5cdd195c995960721b604482015260640161033c565b60006001600160a01b03166003898960405161207692919061418f565b908152604051908190036020019020546001600160a01b0316146120d55760405162461bcd60e51b81526020600482015260166024820152751cdd1d59195b9d125908185b1c9958591e481d5cd95960521b604482015260640161033c565b6040518060c0016040528089898080601f016020809104026020016040519081016040528093929190818152602001838380828437600092019190915250505090825250604080516020601f8a0181900481028201810190925288815291810191908990899081908401838280828437600092019190915250505090825250604080516020601f880181900481028201810190925286815291810191908790879081908401838280828437600092019190915250505090825250604080516020601f8601819004810282018101909252848152918101919085908590819084018382808284376000920182905250938552505060026020808501919091526001604094850181905233845290525020815181906121f2908261419f565b5060208201516001820190612207908261419f565b506040820151600282019061221c908261419f565b5060608201516003820190612231908261419f565b50608082015160048201805460ff1916600183600381111561225557612255613b59565b021790555060a08201518160040160016101000a81548160ff021916908315150217905550905050336003898960405161229092919061418f565b908152604080516020928190038301902080546001600160a01b0319166001600160a01b0394909416939093179092553360009081526004909152206122d7888a83614040565b50600980546001810182556000919091527f6e1540171b6c0c960b71a7020d9f60077f6af931a8bbf590da0223dacf75c7af0180546001600160a01b031916339081179091556040517f509c70f523067009f7db7f46db6956d7af8b679323680dc3821a8bad001ac1e190612357908b908b908990899089908990614325565b60405180910390a25050505050505050565b3360009081526002602052604081205460ff16600381111561238d5761238d613b59565b146123aa5760405162461bcd60e51b815260040161033c90613f18565b6001600160a01b038116600090815260016020526040902060040154610100900460ff166124105760405162461bcd60e51b8152602060048201526013602482015272155cd95c881b9bdd081c9959da5cdd195c9959606a1b604482015260640161033c565b6001600160a01b0381166000908152600460205260408120805461243390613f70565b80601f016020809104026020016040519081016040528092919081815260200182805461245f90613f70565b80156124ac5780601f10612481576101008083540402835291602001916124ac565b820191906000526020600020905b81548152906001019060200180831161248f57829003601f168201915b505050505090506003816040516124c39190613faa565b908152604080516020928190038301902080546001600160a01b03191690556001600160a01b03841660009081526004909252812061250191613741565b6005816040516125119190613faa565b9081526020016040518091039020600061252b919061377e565b60068160405161253b9190613faa565b90815260200160405180910390206000612555919061377e565b6001600160a01b03821660009081526007602052604081206125769161377e565b6001600160a01b03821660009081526008602052604081206125979161377e565b6001600160a01b0382166000908152600160205260408120906125ba8282613741565b6125c8600183016000613741565b6125d6600283016000613741565b6125e4600383016000613741565b50600401805461ffff191690556040516001600160a01b038316907fe9dce8c992623ce791725b21e857e33248d1f190a25b5168313420eebdaae99d90600090a25050565b60016020526000908152604090208054819061264490613f70565b80601f016020809104026020016040519081016040528092919081815260200182805461267090613f70565b80156126bd5780601f10612692576101008083540402835291602001916126bd565b820191906000526020600020905b8154815290600101906020018083116126a057829003601f168201915b5050505050908060010180546126d290613f70565b80601f01602080910402602001604051908101604052809291908181526020018280546126fe90613f70565b801561274b5780601f106127205761010080835404028352916020019161274b565b820191906000526020600020905b81548152906001019060200180831161272e57829003601f168201915b50505050509080600201805461276090613f70565b80601f016020809104026020016040519081016040528092919081815260200182805461278c90613f70565b80156127d95780601f106127ae576101008083540402835291602001916127d9565b820191906000526020600020905b8154815290600101906020018083116127bc57829003601f168201915b5050505050908060030180546127ee90613f70565b80601f016020809104026020016040519081016040528092919081815260200182805461281a90613f70565b80156128675780601f1061283c57610100808354040283529160200191612867565b820191906000526020600020905b81548152906001019060200180831161284a57829003601f168201915b5050506004909301549192505060ff8082169161010090041686565b3360009081526002602052604081205460ff1660038111156128a7576128a7613b59565b146128c45760405162461bcd60e51b815260040161033c90613f18565b600080600588886040516128d992919061418f565b9081526020016040518091039020905060005b81548110156129e357868660405161290592919061418f565b604051809103902082828154811061291f5761291f613f5a565b906000526020600020906009020160030160405161293d91906142cb565b6040518091039020036129d157848483838154811061295e5761295e613f5a565b9060005260206000209060090201600701918261297c929190614040565b5081818154811061298f5761298f613f5a565b90600052602060002090600902016000015460008051602061436f83398151915286866040516129c0929190614123565b60405180910390a2600192506129e3565b806129db8161413f565b9150506128ec565b5081612a485760405162461bcd60e51b815260206004820152602e60248201527f4772616465206e6f7420666f756e6420666f7220676976656e2073747564656e60448201526d74496420616e6420636f7572736560901b606482015260840161033c565b5050505050505050565b606060003360009081526002602052604090205460ff166003811115612a7a57612a7a613b59565b14612a975760405162461bcd60e51b815260040161033c90613f18565b6009805480602002602001604051908101604052809291908181526020018280548015612aed57602002820191906000526020600020905b81546001600160a01b03168152600190910190602001808311612acf575b5050505050905090565b60606000805b600954811015612c6457600060098281548110612b1c57612b1c613f5a565b60009182526020808320909101546001600160a01b0316808352600490915260408220805491935090612b4e90613f70565b80601f0160208091040260200160405190810160405280929190818152602001828054612b7a90613f70565b8015612bc75780601f10612b9c57610100808354040283529160200191612bc7565b820191906000526020600020905b815481529060010190602001808311612baa57829003601f168201915b505050505090506000600582604051612be09190613faa565b9081526020016040518091039020905060005b8154811015612c4d57603c828281548110612c1057612c10613f5a565b600091825260209091206004600990920201015460ff161015612c3b5785612c378161413f565b9650505b80612c458161413f565b915050612bf3565b505050508080612c5c9061413f565b915050612afd565b506000816001600160401b03811115612c7f57612c7f613fc6565b604051908082528060200260200182016040528015612cb857816020015b612ca56136a2565b815260200190600190039081612c9d5790505b5090506000805b60095481101561318057600060098281548110612cde57612cde613f5a565b60009182526020808320909101546001600160a01b0316808352600490915260408220805491935090612d1090613f70565b80601f0160208091040260200160405190810160405280929190818152602001828054612d3c90613f70565b8015612d895780601f10612d5e57610100808354040283529160200191612d89565b820191906000526020600020905b815481529060010190602001808311612d6c57829003601f168201915b505050505090506000600582604051612da29190613faa565b9081526020016040518091039020905060005b815481101561316957603c828281548110612dd257612dd2613f5a565b600091825260209091206004600990920201015460ff16101561315757818181548110612e0157612e01613f5a565b90600052602060002090600902016040518061012001604052908160008201548152602001600182018054612e3590613f70565b80601f0160208091040260200160405190810160405280929190818152602001828054612e6190613f70565b8015612eae5780601f10612e8357610100808354040283529160200191612eae565b820191906000526020600020905b815481529060010190602001808311612e9157829003601f168201915b50505050508152602001600282018054612ec790613f70565b80601f0160208091040260200160405190810160405280929190818152602001828054612ef390613f70565b8015612f405780601f10612f1557610100808354040283529160200191612f40565b820191906000526020600020905b815481529060010190602001808311612f2357829003601f168201915b50505050508152602001600382018054612f5990613f70565b80601f0160208091040260200160405190810160405280929190818152602001828054612f8590613f70565b8015612fd25780601f10612fa757610100808354040283529160200191612fd2565b820191906000526020600020905b815481529060010190602001808311612fb557829003601f168201915b5050509183525050600482015460ff1660208201526005820154604082015260068201546001600160a01b0316606082015260078201805460809092019161301990613f70565b80601f016020809104026020016040519081016040528092919081815260200182805461304590613f70565b80156130925780601f1061306757610100808354040283529160200191613092565b820191906000526020600020905b81548152906001019060200180831161307557829003601f168201915b505050505081526020016008820180546130ab90613f70565b80601f01602080910402602001604051908101604052809291908181526020018280546130d790613f70565b80156131245780601f106130f957610100808354040283529160200191613124565b820191906000526020600020905b81548152906001019060200180831161310757829003601f168201915b5050505050815250508787806131399061413f565b98508151811061314b5761314b613f5a565b60200260200101819052505b806131618161413f565b915050612db5565b5050505080806131789061413f565b915050612cbf565b50909392505050565b3360009081526002602052604081205460ff1660038111156131ad576131ad613b59565b146131ca5760405162461bcd60e51b815260040161033c90613f18565b6000805b6009548110156133fe576000600982815481106131ed576131ed613f5a565b60009182526020808320909101546001600160a01b031680835260049091526040822080549193509061321f90613f70565b80601f016020809104026020016040519081016040528092919081815260200182805461324b90613f70565b80156132985780601f1061326d57610100808354040283529160200191613298565b820191906000526020600020905b81548152906001019060200180831161327b57829003601f168201915b5050505050905060006005826040516132b19190613faa565b9081526020016040518091039020905060005b81548110156133d957868282815481106132e0576132e0613f5a565b9060005260206000209060090201600001541480156133275750603c82828154811061330e5761330e613f5a565b600091825260209091206004600990920201015460ff16105b156133c757604051806040016040528060088152602001671c995a9958dd195960c21b81525082828154811061335f5761335f613f5a565b9060005260206000209060090201600701908161337c919061419f565b50600195508660008051602061436f8339815191526040516133ba906020808252600890820152671c995a9958dd195960c21b604082015260600190565b60405180910390a26133d9565b806133d18161413f565b9150506132c4565b5084156133e8575050506133fe565b50505080806133f69061413f565b9150506131ce565b508061344c5760405162461bcd60e51b815260206004820152601f60248201527f4772616465206e6f7420666f756e64206f72206e6f7420656c696769626c6500604482015260640161033c565b5050565b3360009081526002602052604081205460ff16600381111561347457613474613b59565b146134915760405162461bcd60e51b815260040161033c90613f18565b6000805b600954811015613684576000600982815481106134b4576134b4613f5a565b60009182526020808320909101546001600160a01b03168083526004909152604082208054919350906134e690613f70565b80601f016020809104026020016040519081016040528092919081815260200182805461351290613f70565b801561355f5780601f106135345761010080835404028352916020019161355f565b820191906000526020600020905b81548152906001019060200180831161354257829003601f168201915b5050505050905060006005826040516135789190613faa565b9081526020016040518091039020905060005b815481101561365f57868282815481106135a7576135a7613f5a565b9060005260206000209060090201600001540361364d5760405180604001604052806008815260200167185c1c1c9bdd995960c21b8152508282815481106135f1576135f1613f5a565b9060005260206000209060090201600701908161360e919061419f565b506040513381526001965087907f8e58cb05cdb686fe591c92fce9be3bb13e46c9149bcda55eba5daa4266ddef1b9060200160405180910390a261365f565b806136578161413f565b91505061358b565b50841561366e57505050613684565b505050808061367c9061413f565b915050613495565b508061344c5760405162461bcd60e51b815260040161033c90614166565b60405180610120016040528060008152602001606081526020016060815260200160608152602001600060ff1681526020016000815260200160006001600160a01b0316815260200160608152602001606081525090565b6040518060c00160405280606081526020016060815260200160608152602001606081526020016000600381111561373457613734613b59565b8152600060209091015290565b50805461374d90613f70565b6000825580601f1061375d575050565b601f01602090049060005260206000209081019061377b919061379f565b50565b508054600082556009029060005260206000209081019061377b91906137b8565b5b808211156137b457600081556001016137a0565b5090565b808211156137b45760008082556137d26001830182613741565b6137e0600283016000613741565b6137ee600383016000613741565b60048201805460ff191690556000600583018190556006830180546001600160a01b0319169055613823906007840190613741565b613831600883016000613741565b506009016137b8565b60008083601f84011261384c57600080fd5b5081356001600160401b0381111561386357600080fd5b60208301915083602082850101111561387b57600080fd5b9250929050565b60008060006040848603121561389757600080fd5b8335925060208401356001600160401b038111156138b457600080fd5b6138c08682870161383a565b9497909650939450505050565b600080602083850312156138e057600080fd5b82356001600160401b038111156138f657600080fd5b6139028582860161383a565b90969095509350505050565b60005b83811015613929578181015183820152602001613911565b50506000910152565b6000815180845261394a81602086016020860161390e565b601f01601f19169290920160200192915050565b60006020808301818452808551808352604092508286019150828160051b87010184880160005b838110156114b557603f1989840301855281516101208151855288820151818a8701526139b482870182613932565b91505087820151858203898701526139cc8282613932565b915050606080830151868303828801526139e68382613932565b925050506080808301516139fe8288018260ff169052565b505060a0828101519086015260c0808301516001600160a01b03169086015260e08083015186830382880152613a348382613932565b925050506101008083015192508582038187015250613a538183613932565b968901969450505090860190600101613985565b60008060008060008060006080888a031215613a8257600080fd5b87356001600160401b0380821115613a9957600080fd5b613aa58b838c0161383a565b909950975060208a0135915080821115613abe57600080fd5b613aca8b838c0161383a565b909750955060408a0135915060ff82168214613ae557600080fd5b90935060608901359080821115613afb57600080fd5b50613b088a828b0161383a565b989b979a50959850939692959293505050565b80356001600160a01b0381168114613b3257600080fd5b919050565b600060208284031215613b4957600080fd5b613b5282613b1b565b9392505050565b634e487b7160e01b600052602160045260246000fd5b60048110613b8d57634e487b7160e01b600052602160045260246000fd5b9052565b602081016108bf8284613b6f565b60008060008060408587031215613bb557600080fd5b84356001600160401b0380821115613bcc57600080fd5b613bd88883890161383a565b90965094506020870135915080821115613bf157600080fd5b50613bfe8782880161383a565b95989497509550505050565b60008060408385031215613c1d57600080fd5b613c2683613b1b565b9150602083013560048110613c3a57600080fd5b809150509250929050565b602081526000825160c06020840152613c6160e0840182613932565b90506020840151601f1980858403016040860152613c7f8383613932565b92506040860151915080858403016060860152613c9c8383613932565b9250606086015191508085840301608086015250613cba8282613932565b9150506080840151613ccf60a0850182613b6f565b5060a0840151151560c08401528091505092915050565b6000806000806000806000806080898b031215613d0257600080fd5b88356001600160401b0380821115613d1957600080fd5b613d258c838d0161383a565b909a50985060208b0135915080821115613d3e57600080fd5b613d4a8c838d0161383a565b909850965060408b0135915080821115613d6357600080fd5b613d6f8c838d0161383a565b909650945060608b0135915080821115613d8857600080fd5b50613d958b828c0161383a565b999c989b5096995094979396929594505050565b60c081526000613dbc60c0830189613932565b8281036020840152613dce8189613932565b90508281036040840152613de28188613932565b90508281036060840152613df68187613932565b915050613e066080830185613b6f565b82151560a0830152979650505050505050565b60008060008060008060608789031215613e3257600080fd5b86356001600160401b0380821115613e4957600080fd5b613e558a838b0161383a565b90985096506020890135915080821115613e6e57600080fd5b613e7a8a838b0161383a565b90965094506040890135915080821115613e9357600080fd5b50613ea089828a0161383a565b979a9699509497509295939492505050565b6020808252825182820181905260009190848201906040850190845b81811015613ef35783516001600160a01b031683529284019291840191600101613ece565b50909695505050505050565b600060208284031215613f1157600080fd5b5035919050565b60208082526022908201527f4f6e6c792061646d696e2063616e20706572666f726d2074686973206163746960408201526137b760f11b606082015260800190565b634e487b7160e01b600052603260045260246000fd5b600181811c90821680613f8457607f821691505b602082108103613fa457634e487b7160e01b600052602260045260246000fd5b50919050565b60008251613fbc81846020870161390e565b9190910192915050565b634e487b7160e01b600052604160045260246000fd5b601f82111561402657600081815260208120601f850160051c810160208610156140035750805b601f850160051c820191505b818110156140225782815560010161400f565b5050505b505050565b600019600383901b1c191660019190911b1790565b6001600160401b0383111561405757614057613fc6565b61406b836140658354613f70565b83613fdc565b6000601f84116001811461409957600085156140875750838201355b614091868261402b565b8455506140f3565b600083815260209020601f19861690835b828110156140ca57868501358255602094850194600190920191016140aa565b50868210156140e75760001960f88860031b161c19848701351681555b505060018560011b0183555b5050505050565b81835281816020850137506000828201602090810191909152601f909101601f19169091010190565b6020815260006141376020830184866140fa565b949350505050565b60006001820161415f57634e487b7160e01b600052601160045260246000fd5b5060010190565b6020808252600f908201526e11dc985919481b9bdd08199bdd5b99608a1b604082015260600190565b8183823760009101908152919050565b81516001600160401b038111156141b8576141b8613fc6565b6141cc816141c68454613f70565b84613fdc565b602080601f8311600181146141fb57600084156141e95750858301515b6141f3858261402b565b865550614022565b600085815260208120601f198616915b8281101561422a5788860151825594840194600190910190840161420b565b50858210156142485787850151600019600388901b60f8161c191681555b5050505050600190811b01905550565b6000815461426581613f70565b6001828116801561427d5760018114614292576142c1565b60ff19841687528215158302870194506142c1565b8560005260208060002060005b858110156142b85781548a82015290840190820161429f565b50505082870194505b5050505092915050565b6000613b528284614258565b6080815260006142eb60808301888a6140fa565b82810360208401526142fe8187896140fa565b60ff95909516604084015250506001600160a01b0391909116606090910152949350505050565b60608152600061433960608301888a6140fa565b828103602084015261434c8187896140fa565b905082810360408401526143618185876140fa565b999850505050505050505056fe1e03591cf0112e5859e4565de39b4a69c1d97d36bdeb9e12f6cd725da41acc0ca26469706673582212201d5bde4330f680605dd7cbe682ef6097389ac41873acc5f00449248cfbae540164736f6c63430008140033",
  "linkReferences": {},
  "deployedLinkReferences": {}
}