{
  "_format": "hh-sol-artifact-1",
  "contractName": "EducationGrades",
  "sourceName": "contracts/EducationGrades.sol",
  "abi": [
    {
      "inputs": [],
      "stateMutability": "nonpayable",
      "type": "constructor"
    },
    {
      "anonymous": false,
      "inputs": [
        {
          "indexed": true,
          "internalType": "string",
          "name": "gradeId",
          "type": "string"
        },
        {
          "indexed": false,
          "internalType": "string",
          "name": "newStatus",
          "type": "string"
        }
      ],
      "name": "GradeStatusUpdated",
      "type": "event"
    },
    {
      "anonymous": false,
      "inputs": [
        {
          "indexed": true,
          "internalType": "string",
          "name": "gradeId",
          "type": "string"
        },
        {
          "indexed": false,
          "internalType": "string",
          "name": "studentId",
          "type": "string"
        },
        {
          "indexed": false,
          "internalType": "string",
          "name": "course",
          "type": "string"
        },
        {
          "indexed": false,
          "internalType": "uint8",
          "name": "score",
          "type": "uint8"
        },
        {
          "indexed": false,
          "internalType": "address",
          "name": "teacher",
          "type": "address"
        }
      ],
      "name": "GradeUploaded",
      "type": "event"
    },
    {
      "anonymous": false,
      "inputs": [
        {
          "indexed": true,
          "internalType": "address",
          "name": "user",
          "type": "address"
        },
        {
          "indexed": false,
          "internalType": "enum EducationGrades.Role",
          "name": "role",
          "type": "uint8"
        }
      ],
      "name": "RoleAssigned",
      "type": "event"
    },
    {
      "anonymous": false,
      "inputs": [
        {
          "indexed": true,
          "internalType": "address",
          "name": "user",
          "type": "address"
        },
        {
          "indexed": false,
          "internalType": "string",
          "name": "username",
          "type": "string"
        },
        {
          "indexed": false,
          "internalType": "string",
          "name": "email",
          "type": "string"
        },
        {
          "indexed": false,
          "internalType": "string",
          "name": "contactNumber",
          "type": "string"
        }
      ],
      "name": "UserRegistered",
      "type": "event"
    },
    {
      "inputs": [
        {
          "internalType": "address",
          "name": "_teacher",
          "type": "address"
        }
      ],
      "name": "addTeacher",
      "outputs": [],
      "stateMutability": "nonpayable",
      "type": "function"
    },
    {
      "inputs": [],
      "name": "admin",
      "outputs": [
        {
          "internalType": "address",
          "name": "",
          "type": "address"
        }
      ],
      "stateMutability": "view",
      "type": "function"
    },
    {
      "inputs": [
        {
          "internalType": "address",
          "name": "_user",
          "type": "address"
        },
        {
          "internalType": "enum EducationGrades.Role",
          "name": "_role",
          "type": "uint8"
        }
      ],
      "name": "assignRole",
      "outputs": [],
      "stateMutability": "nonpayable",
      "type": "function"
    },
    {
      "inputs": [
        {
          "internalType": "string",
          "name": "studentId",
          "type": "string"
        }
      ],
      "name": "getAllGradesForStudent",
      "outputs": [
        {
          "components": [
            {
              "internalType": "string",
              "name": "gradeId",
              "type": "string"
            },
            {
              "internalType": "string",
              "name": "studentId",
              "type": "string"
            },
            {
              "internalType": "string",
              "name": "course",
              "type": "string"
            },
            {
              "internalType": "uint8",
              "name": "score",
              "type": "uint8"
            },
            {
              "internalType": "uint256",
              "name": "timestamp",
              "type": "uint256"
            },
            {
              "internalType": "address",
              "name": "teacher",
              "type": "address"
            },
            {
              "internalType": "string",
              "name": "status",
              "type": "string"
            },
            {
              "internalType": "string",
              "name": "remark",
              "type": "string"
            }
          ],
          "internalType": "struct EducationGrades.Grade[]",
          "name": "",
          "type": "tuple[]"
        }
      ],
      "stateMutability": "view",
      "type": "function"
    },
    {
      "inputs": [],
      "name": "getAllUsers",
      "outputs": [
        {
          "internalType": "address[]",
          "name": "",
          "type": "address[]"
        }
      ],
      "stateMutability": "view",
      "type": "function"
    },
    {
      "inputs": [
        {
          "internalType": "string",
          "name": "studentId",
          "type": "string"
        }
      ],
      "name": "getGrades",
      "outputs": [
        {
          "components": [
            {
              "internalType": "string",
              "name": "gradeId",
              "type": "string"
            },
            {
              "internalType": "string",
              "name": "studentId",
              "type": "string"
            },
            {
              "internalType": "string",
              "name": "course",
              "type": "string"
            },
            {
              "internalType": "uint8",
              "name": "score",
              "type": "uint8"
            },
            {
              "internalType": "uint256",
              "name": "timestamp",
              "type": "uint256"
            },
            {
              "internalType": "address",
              "name": "teacher",
              "type": "address"
            },
            {
              "internalType": "string",
              "name": "status",
              "type": "string"
            },
            {
              "internalType": "string",
              "name": "remark",
              "type": "string"
            }
          ],
          "internalType": "struct EducationGrades.Grade[]",
          "name": "",
          "type": "tuple[]"
        }
      ],
      "stateMutability": "view",
      "type": "function"
    },
    {
      "inputs": [
        {
          "internalType": "address",
          "name": "_user",
          "type": "address"
        }
      ],
      "name": "getUserInfo",
      "outputs": [
        {
          "components": [
            {
              "internalType": "string",
              "name": "username",
              "type": "string"
            },
            {
              "internalType": "string",
              "name": "email",
              "type": "string"
            },
            {
              "internalType": "string",
              "name": "contactNumber",
              "type": "string"
            },
            {
              "internalType": "enum EducationGrades.Role",
              "name": "role",
              "type": "uint8"
            }
          ],
          "internalType": "struct EducationGrades.User",
          "name": "",
          "type": "tuple"
        }
      ],
      "stateMutability": "view",
      "type": "function"
    },
    {
      "inputs": [
        {
          "internalType": "address",
          "name": "_user",
          "type": "address"
        }
      ],
      "name": "getUserRole",
      "outputs": [
        {
          "internalType": "enum EducationGrades.Role",
          "name": "",
          "type": "uint8"
        }
      ],
      "stateMutability": "view",
      "type": "function"
    },
    {
      "inputs": [],
      "name": "isAdmin",
      "outputs": [
        {
          "internalType": "bool",
          "name": "",
          "type": "bool"
        }
      ],
      "stateMutability": "view",
      "type": "function"
    },
    {
      "inputs": [],
      "name": "isGradeManager",
      "outputs": [
        {
          "internalType": "bool",
          "name": "",
          "type": "bool"
        }
      ],
      "stateMutability": "view",
      "type": "function"
    },
    {
      "inputs": [],
      "name": "isStudent",
      "outputs": [
        {
          "internalType": "bool",
          "name": "",
          "type": "bool"
        }
      ],
      "stateMutability": "view",
      "type": "function"
    },
    {
      "inputs": [],
      "name": "isTeacher",
      "outputs": [
        {
          "internalType": "bool",
          "name": "",
          "type": "bool"
        }
      ],
      "stateMutability": "view",
      "type": "function"
    },
    {
      "inputs": [
        {
          "internalType": "string",
          "name": "username",
          "type": "string"
        },
        {
          "internalType": "string",
          "name": "email",
          "type": "string"
        },
        {
          "internalType": "string",
          "name": "contactNumber",
          "type": "string"
        }
      ],
      "name": "registerUser",
      "outputs": [],
      "stateMutability": "nonpayable",
      "type": "function"
    },
    {
      "inputs": [
        {
          "internalType": "address",
          "name": "_teacher",
          "type": "address"
        }
      ],
      "name": "removeTeacher",
      "outputs": [],
      "stateMutability": "nonpayable",
      "type": "function"
    },
    {
      "inputs": [
        {
          "internalType": "string",
          "name": "studentId",
          "type": "string"
        },
        {
          "internalType": "uint256",
          "name": "index",
          "type": "uint256"
        },
        {
          "internalType": "string",
          "name": "newStatus",
          "type": "string"
        }
      ],
      "name": "updateGradeStatus",
      "outputs": [],
      "stateMutability": "nonpayable",
      "type": "function"
    },
    {
      "inputs": [
        {
          "internalType": "string",
          "name": "gradeId",
          "type": "string"
        },
        {
          "internalType": "string",
          "name": "studentId",
          "type": "string"
        },
        {
          "internalType": "string",
          "name": "course",
          "type": "string"
        },
        {
          "internalType": "uint8",
          "name": "score",
          "type": "uint8"
        },
        {
          "internalType": "string",
          "name": "remark",
          "type": "string"
        }
      ],
      "name": "uploadGrade",
      "outputs": [],
      "stateMutability": "nonpayable",
      "type": "function"
    },
    {
      "inputs": [
        {
          "internalType": "address",
          "name": "",
          "type": "address"
        }
      ],
      "name": "userRoles",
      "outputs": [
        {
          "internalType": "enum EducationGrades.Role",
          "name": "",
          "type": "uint8"
        }
      ],
      "stateMutability": "view",
      "type": "function"
    },
    {
      "inputs": [
        {
          "internalType": "address",
          "name": "",
          "type": "address"
        }
      ],
      "name": "users",
      "outputs": [
        {
          "internalType": "string",
          "name": "username",
          "type": "string"
        },
        {
          "internalType": "string",
          "name": "email",
          "type": "string"
        },
        {
          "internalType": "string",
          "name": "contactNumber",
          "type": "string"
        },
        {
          "internalType": "enum EducationGrades.Role",
          "name": "role",
          "type": "uint8"
        }
      ],
      "stateMutability": "view",
      "type": "function"
    }
  ],
  "bytecode": "0x60806040523480156200001157600080fd5b50336000806101000a81548173ffffffffffffffffffffffffffffffffffffffff021916908373ffffffffffffffffffffffffffffffffffffffff1602179055506000600260008060009054906101000a900473ffffffffffffffffffffffffffffffffffffffff1673ffffffffffffffffffffffffffffffffffffffff1673ffffffffffffffffffffffffffffffffffffffff16815260200190815260200160002060006101000a81548160ff02191690836003811115620000d957620000d8620000e4565b5b021790555062000113565b7f4e487b7100000000000000000000000000000000000000000000000000000000600052602160045260246000fd5b61365b80620001236000396000f3fe608060405234801561001057600080fd5b50600436106101165760003560e01c806384702fb5116100a2578063b6db75a011610071578063b6db75a014610306578063c64a4bad14610324578063d637dcfa14610342578063e2842d791461035e578063f851a4401461037c57610116565b806384702fb51461027d5780639622e1f614610299578063963e44f1146102b5578063a87430ba146102d357610116565b806351e0a6eb116100e957806351e0a6eb146101c757806352ff6846146101e5578063630a195b146102015780636386c1c71461021d57806374d5e1001461024d57610116565b8063278208511461011b5780632c4755a71461014b57806336c96a821461017b5780633bc6e309146101ab575b600080fd5b61013560048036038101906101309190612319565b61039a565b60405161014291906123bd565b60405180910390f35b6101656004803603810190610160919061243d565b6103f0565b60405161017291906126ec565b60405180910390f35b6101956004803603810190610190919061243d565b61087b565b6040516101a291906126ec565b60405180910390f35b6101c560048036038101906101c09190612319565b610d05565b005b6101cf610e72565b6040516101dc9190612729565b60405180910390f35b6101ff60048036038101906101fa9190612319565b610eed565b005b61021b60048036038101906102169190612769565b611059565b005b61023760048036038101906102329190612319565b6111c5565b6040516102449190612829565b60405180910390f35b61026760048036038101906102629190612319565b61140f565b60405161027491906123bd565b60405180910390f35b61029760048036038101906102929190612877565b61142f565b005b6102b360048036038101906102ae919061299f565b611856565b005b6102bd611a59565b6040516102ca9190612729565b60405180910390f35b6102ed60048036038101906102e89190612319565b611ad3565b6040516102fd9493929190612a7e565b60405180910390f35b61030e611ca8565b60405161031b9190612729565b60405180910390f35b61032c611d22565b6040516103399190612729565b60405180910390f35b61035c60048036038101906103579190612ad8565b611d9d565b005b610366612112565b6040516103739190612c3b565b60405180910390f35b610384612253565b6040516103919190612c6c565b60405180910390f35b6000600260008373ffffffffffffffffffffffffffffffffffffffff1673ffffffffffffffffffffffffffffffffffffffff16815260200190815260200160002060009054906101000a900460ff169050919050565b60606002600381111561040657610405612346565b5b600260003373ffffffffffffffffffffffffffffffffffffffff1673ffffffffffffffffffffffffffffffffffffffff16815260200190815260200160002060009054906101000a900460ff16600381111561046557610464612346565b5b146104a5576040517f08c379a000000000000000000000000000000000000000000000000000000000815260040161049c90612cf9565b60405180910390fd5b600383836040516104b7929190612d58565b9081526020016040518091039020805480602002602001604051908101604052809291908181526020016000905b8282101561086f57838290600052602060002090600802016040518061010001604052908160008201805461051990612da0565b80601f016020809104026020016040519081016040528092919081815260200182805461054590612da0565b80156105925780601f1061056757610100808354040283529160200191610592565b820191906000526020600020905b81548152906001019060200180831161057557829003601f168201915b505050505081526020016001820180546105ab90612da0565b80601f01602080910402602001604051908101604052809291908181526020018280546105d790612da0565b80156106245780601f106105f957610100808354040283529160200191610624565b820191906000526020600020905b81548152906001019060200180831161060757829003601f168201915b5050505050815260200160028201805461063d90612da0565b80601f016020809104026020016040519081016040528092919081815260200182805461066990612da0565b80156106b65780601f1061068b576101008083540402835291602001916106b6565b820191906000526020600020905b81548152906001019060200180831161069957829003601f168201915b505050505081526020016003820160009054906101000a900460ff1660ff1660ff168152602001600482015481526020016005820160009054906101000a900473ffffffffffffffffffffffffffffffffffffffff1673ffffffffffffffffffffffffffffffffffffffff1673ffffffffffffffffffffffffffffffffffffffff16815260200160068201805461074c90612da0565b80601f016020809104026020016040519081016040528092919081815260200182805461077890612da0565b80156107c55780601f1061079a576101008083540402835291602001916107c5565b820191906000526020600020905b8154815290600101906020018083116107a857829003601f168201915b505050505081526020016007820180546107de90612da0565b80601f016020809104026020016040519081016040528092919081815260200182805461080a90612da0565b80156108575780601f1061082c57610100808354040283529160200191610857565b820191906000526020600020905b81548152906001019060200180831161083a57829003601f168201915b505050505081525050815260200190600101906104e5565b50505050905092915050565b60606003808111156108905761088f612346565b5b600260003373ffffffffffffffffffffffffffffffffffffffff1673ffffffffffffffffffffffffffffffffffffffff16815260200190815260200160002060009054906101000a900460ff1660038111156108ef576108ee612346565b5b1461092f576040517f08c379a000000000000000000000000000000000000000000000000000000000815260040161092690612e43565b60405180910390fd5b60038383604051610941929190612d58565b9081526020016040518091039020805480602002602001604051908101604052809291908181526020016000905b82821015610cf95783829060005260206000209060080201604051806101000160405290816000820180546109a390612da0565b80601f01602080910402602001604051908101604052809291908181526020018280546109cf90612da0565b8015610a1c5780601f106109f157610100808354040283529160200191610a1c565b820191906000526020600020905b8154815290600101906020018083116109ff57829003601f168201915b50505050508152602001600182018054610a3590612da0565b80601f0160208091040260200160405190810160405280929190818152602001828054610a6190612da0565b8015610aae5780601f10610a8357610100808354040283529160200191610aae565b820191906000526020600020905b815481529060010190602001808311610a9157829003601f168201915b50505050508152602001600282018054610ac790612da0565b80601f0160208091040260200160405190810160405280929190818152602001828054610af390612da0565b8015610b405780601f10610b1557610100808354040283529160200191610b40565b820191906000526020600020905b815481529060010190602001808311610b2357829003601f168201915b505050505081526020016003820160009054906101000a900460ff1660ff1660ff168152602001600482015481526020016005820160009054906101000a900473ffffffffffffffffffffffffffffffffffffffff1673ffffffffffffffffffffffffffffffffffffffff1673ffffffffffffffffffffffffffffffffffffffff168152602001600682018054610bd690612da0565b80601f0160208091040260200160405190810160405280929190818152602001828054610c0290612da0565b8015610c4f5780601f10610c2457610100808354040283529160200191610c4f565b820191906000526020600020905b815481529060010190602001808311610c3257829003601f168201915b50505050508152602001600782018054610c6890612da0565b80601f0160208091040260200160405190810160405280929190818152602001828054610c9490612da0565b8015610ce15780601f10610cb657610100808354040283529160200191610ce1565b820191906000526020600020905b815481529060010190602001808311610cc457829003601f168201915b5050505050815250508152602001906001019061096f565b50505050905092915050565b60006003811115610d1957610d18612346565b5b600260003373ffffffffffffffffffffffffffffffffffffffff1673ffffffffffffffffffffffffffffffffffffffff16815260200190815260200160002060009054906101000a900460ff166003811115610d7857610d77612346565b5b14610db8576040517f08c379a0000000000000000000000000000000000000000000000000000000008152600401610daf90612ed5565b60405180910390fd5b6001600260008373ffffffffffffffffffffffffffffffffffffffff1673ffffffffffffffffffffffffffffffffffffffff16815260200190815260200160002060006101000a81548160ff02191690836003811115610e1b57610e1a612346565b5b02179055508073ffffffffffffffffffffffffffffffffffffffff167f4ac36fa53f167ceb85964be512e01de2a3b8bdb9862f917da079deeeff689b386001604051610e6791906123bd565b60405180910390a250565b600060026003811115610e8857610e87612346565b5b600260003373ffffffffffffffffffffffffffffffffffffffff1673ffffffffffffffffffffffffffffffffffffffff16815260200190815260200160002060009054906101000a900460ff166003811115610ee757610ee6612346565b5b14905090565b60006003811115610f0157610f00612346565b5b600260003373ffffffffffffffffffffffffffffffffffffffff1673ffffffffffffffffffffffffffffffffffffffff16815260200190815260200160002060009054906101000a900460ff166003811115610f6057610f5f612346565b5b14610fa0576040517f08c379a0000000000000000000000000000000000000000000000000000000008152600401610f9790612ed5565b60405180910390fd5b60028060008373ffffffffffffffffffffffffffffffffffffffff1673ffffffffffffffffffffffffffffffffffffffff16815260200190815260200160002060006101000a81548160ff0219169083600381111561100257611001612346565b5b02179055508073ffffffffffffffffffffffffffffffffffffffff167f4ac36fa53f167ceb85964be512e01de2a3b8bdb9862f917da079deeeff689b38600260405161104e91906123bd565b60405180910390a250565b6000600381111561106d5761106c612346565b5b600260003373ffffffffffffffffffffffffffffffffffffffff1673ffffffffffffffffffffffffffffffffffffffff16815260200190815260200160002060009054906101000a900460ff1660038111156110cc576110cb612346565b5b1461110c576040517f08c379a000000000000000000000000000000000000000000000000000000000815260040161110390612ed5565b60405180910390fd5b80600260008473ffffffffffffffffffffffffffffffffffffffff1673ffffffffffffffffffffffffffffffffffffffff16815260200190815260200160002060006101000a81548160ff0219169083600381111561116e5761116d612346565b5b02179055508173ffffffffffffffffffffffffffffffffffffffff167f4ac36fa53f167ceb85964be512e01de2a3b8bdb9862f917da079deeeff689b38826040516111b991906123bd565b60405180910390a25050565b6111cd612277565b600160008373ffffffffffffffffffffffffffffffffffffffff1673ffffffffffffffffffffffffffffffffffffffff16815260200190815260200160002060405180608001604052908160008201805461122790612da0565b80601f016020809104026020016040519081016040528092919081815260200182805461125390612da0565b80156112a05780601f10611275576101008083540402835291602001916112a0565b820191906000526020600020905b81548152906001019060200180831161128357829003601f168201915b505050505081526020016001820180546112b990612da0565b80601f01602080910402602001604051908101604052809291908181526020018280546112e590612da0565b80156113325780601f1061130757610100808354040283529160200191611332565b820191906000526020600020905b81548152906001019060200180831161131557829003601f168201915b5050505050815260200160028201805461134b90612da0565b80601f016020809104026020016040519081016040528092919081815260200182805461137790612da0565b80156113c45780601f10611399576101008083540402835291602001916113c4565b820191906000526020600020905b8154815290600101906020018083116113a757829003601f168201915b505050505081526020016003820160009054906101000a900460ff1660038111156113f2576113f1612346565b5b600381111561140457611403612346565b5b815250509050919050565b60026020528060005260406000206000915054906101000a900460ff1681565b6001600381111561144357611442612346565b5b600260003373ffffffffffffffffffffffffffffffffffffffff1673ffffffffffffffffffffffffffffffffffffffff16815260200190815260200160002060009054906101000a900460ff1660038111156114a2576114a1612346565b5b146114e2576040517f08c379a00000000000000000000000000000000000000000000000000000000081526004016114d990612f67565b60405180910390fd5b60648360ff161115611529576040517f08c379a000000000000000000000000000000000000000000000000000000000815260040161152090612fd3565b60405180910390fd5b60006040518061010001604052808b8b8080601f016020809104026020016040519081016040528093929190818152602001838380828437600081840152601f19601f82011690508083019250505050505050815260200189898080601f016020809104026020016040519081016040528093929190818152602001838380828437600081840152601f19601f82011690508083019250505050505050815260200187878080601f016020809104026020016040519081016040528093929190818152602001838380828437600081840152601f19601f8201169050808301925050505050505081526020018560ff1681526020014281526020013373ffffffffffffffffffffffffffffffffffffffff1681526020016040518060400160405280600681526020017f6163746976650000000000000000000000000000000000000000000000000000815250815260200184848080601f016020809104026020016040519081016040528093929190818152602001838380828437600081840152601f19601f820116905080830192505050505050508152509050600388886040516116d7929190612d58565b9081526020016040518091039020819080600181540180825580915050600190039060005260206000209060080201600090919091909150600082015181600001908161172491906131ce565b50602082015181600101908161173a91906131ce565b50604082015181600201908161175091906131ce565b5060608201518160030160006101000a81548160ff021916908360ff1602179055506080820151816004015560a08201518160050160006101000a81548173ffffffffffffffffffffffffffffffffffffffff021916908373ffffffffffffffffffffffffffffffffffffffff16021790555060c08201518160060190816117d891906131ce565b5060e08201518160070190816117ee91906131ce565b5050508989604051611801929190612d58565b60405180910390207f627963807a8bf04ead78ad4ce670ae62ce55900c4fade3cc8e2a4d166cec29ad898989898933604051611842969594939291906132dc565b60405180910390a250505050505050505050565b6000600381111561186a57611869612346565b5b600260003373ffffffffffffffffffffffffffffffffffffffff1673ffffffffffffffffffffffffffffffffffffffff16815260200190815260200160002060009054906101000a900460ff1660038111156118c9576118c8612346565b5b14611909576040517f08c379a000000000000000000000000000000000000000000000000000000000815260040161190090612ed5565b60405180910390fd5b6003858560405161191b929190612d58565b908152602001604051809103902080549050831061196e576040517f08c379a00000000000000000000000000000000000000000000000000000000081526004016119659061337f565b60405180910390fd5b818160038787604051611982929190612d58565b908152602001604051809103902085815481106119a2576119a161339f565b5b906000526020600020906008020160060191826119c09291906133d9565b50600385856040516119d3929190612d58565b908152602001604051809103902083815481106119f3576119f261339f565b5b9060005260206000209060080201600001604051611a11919061352c565b60405180910390207fc165a69394bea88b86166a0fdb532b300f7248e34bde1800c3be1ce6ae82ac6d8383604051611a4a929190613543565b60405180910390a25050505050565b6000600380811115611a6e57611a6d612346565b5b600260003373ffffffffffffffffffffffffffffffffffffffff1673ffffffffffffffffffffffffffffffffffffffff16815260200190815260200160002060009054906101000a900460ff166003811115611acd57611acc612346565b5b14905090565b6001602052806000526040600020600091509050806000018054611af690612da0565b80601f0160208091040260200160405190810160405280929190818152602001828054611b2290612da0565b8015611b6f5780601f10611b4457610100808354040283529160200191611b6f565b820191906000526020600020905b815481529060010190602001808311611b5257829003601f168201915b505050505090806001018054611b8490612da0565b80601f0160208091040260200160405190810160405280929190818152602001828054611bb090612da0565b8015611bfd5780601f10611bd257610100808354040283529160200191611bfd565b820191906000526020600020905b815481529060010190602001808311611be057829003601f168201915b505050505090806002018054611c1290612da0565b80601f0160208091040260200160405190810160405280929190818152602001828054611c3e90612da0565b8015611c8b5780601f10611c6057610100808354040283529160200191611c8b565b820191906000526020600020905b815481529060010190602001808311611c6e57829003601f168201915b5050505050908060030160009054906101000a900460ff16905084565b6000806003811115611cbd57611cbc612346565b5b600260003373ffffffffffffffffffffffffffffffffffffffff1673ffffffffffffffffffffffffffffffffffffffff16815260200190815260200160002060009054906101000a900460ff166003811115611d1c57611d1b612346565b5b14905090565b600060016003811115611d3857611d37612346565b5b600260003373ffffffffffffffffffffffffffffffffffffffff1673ffffffffffffffffffffffffffffffffffffffff16815260200190815260200160002060009054906101000a900460ff166003811115611d9757611d96612346565b5b14905090565b60006003811115611db157611db0612346565b5b600260003373ffffffffffffffffffffffffffffffffffffffff1673ffffffffffffffffffffffffffffffffffffffff16815260200190815260200160002060009054906101000a900460ff166003811115611e1057611e0f612346565b5b03611e50576040517f08c379a0000000000000000000000000000000000000000000000000000000008152600401611e47906135b3565b60405180910390fd5b604051806080016040528087878080601f016020809104026020016040519081016040528093929190818152602001838380828437600081840152601f19601f82011690508083019250505050505050815260200185858080601f016020809104026020016040519081016040528093929190818152602001838380828437600081840152601f19601f82011690508083019250505050505050815260200183838080601f016020809104026020016040519081016040528093929190818152602001838380828437600081840152601f19601f820116905080830192505050505050508152602001600260003373ffffffffffffffffffffffffffffffffffffffff1673ffffffffffffffffffffffffffffffffffffffff16815260200190815260200160002060009054906101000a900460ff166003811115611f9857611f97612346565b5b815250600160003373ffffffffffffffffffffffffffffffffffffffff1673ffffffffffffffffffffffffffffffffffffffff1681526020019081526020016000206000820151816000019081611fef91906131ce565b50602082015181600101908161200591906131ce565b50604082015181600201908161201b91906131ce565b5060608201518160030160006101000a81548160ff0219169083600381111561204757612046612346565b5b02179055509050506004339080600181540180825580915050600190039060005260206000200160009091909190916101000a81548173ffffffffffffffffffffffffffffffffffffffff021916908373ffffffffffffffffffffffffffffffffffffffff1602179055503373ffffffffffffffffffffffffffffffffffffffff167f509c70f523067009f7db7f46db6956d7af8b679323680dc3821a8bad001ac1e1878787878787604051612102969594939291906135d3565b60405180910390a2505050505050565b60606000600381111561212857612127612346565b5b600260003373ffffffffffffffffffffffffffffffffffffffff1673ffffffffffffffffffffffffffffffffffffffff16815260200190815260200160002060009054906101000a900460ff16600381111561218757612186612346565b5b146121c7576040517f08c379a00000000000000000000000000000000000000000000000000000000081526004016121be90612ed5565b60405180910390fd5b600480548060200260200160405190810160405280929190818152602001828054801561224957602002820191906000526020600020905b8160009054906101000a900473ffffffffffffffffffffffffffffffffffffffff1673ffffffffffffffffffffffffffffffffffffffff16815260200190600101908083116121ff575b5050505050905090565b60008054906101000a900473ffffffffffffffffffffffffffffffffffffffff1681565b6040518060800160405280606081526020016060815260200160608152602001600060038111156122ab576122aa612346565b5b81525090565b600080fd5b600080fd5b600073ffffffffffffffffffffffffffffffffffffffff82169050919050565b60006122e6826122bb565b9050919050565b6122f6816122db565b811461230157600080fd5b50565b600081359050612313816122ed565b92915050565b60006020828403121561232f5761232e6122b1565b5b600061233d84828501612304565b91505092915050565b7f4e487b7100000000000000000000000000000000000000000000000000000000600052602160045260246000fd5b6004811061238657612385612346565b5b50565b600081905061239782612375565b919050565b60006123a782612389565b9050919050565b6123b78161239c565b82525050565b60006020820190506123d260008301846123ae565b92915050565b600080fd5b600080fd5b600080fd5b60008083601f8401126123fd576123fc6123d8565b5b8235905067ffffffffffffffff81111561241a576124196123dd565b5b602083019150836001820283011115612436576124356123e2565b5b9250929050565b60008060208385031215612454576124536122b1565b5b600083013567ffffffffffffffff811115612472576124716122b6565b5b61247e858286016123e7565b92509250509250929050565b600081519050919050565b600082825260208201905092915050565b6000819050602082019050919050565b600081519050919050565b600082825260208201905092915050565b60005b838110156124f05780820151818401526020810190506124d5565b60008484015250505050565b6000601f19601f8301169050919050565b6000612518826124b6565b61252281856124c1565b93506125328185602086016124d2565b61253b816124fc565b840191505092915050565b600060ff82169050919050565b61255c81612546565b82525050565b6000819050919050565b61257581612562565b82525050565b612584816122db565b82525050565b60006101008301600083015184820360008601526125a8828261250d565b915050602083015184820360208601526125c2828261250d565b915050604083015184820360408601526125dc828261250d565b91505060608301516125f16060860182612553565b506080830151612604608086018261256c565b5060a083015161261760a086018261257b565b5060c083015184820360c086015261262f828261250d565b91505060e083015184820360e0860152612649828261250d565b9150508091505092915050565b6000612662838361258a565b905092915050565b6000602082019050919050565b60006126828261248a565b61268c8185612495565b93508360208202850161269e856124a6565b8060005b858110156126da57848403895281516126bb8582612656565b94506126c68361266a565b925060208a019950506001810190506126a2565b50829750879550505050505092915050565b600060208201905081810360008301526127068184612677565b905092915050565b60008115159050919050565b6127238161270e565b82525050565b600060208201905061273e600083018461271a565b92915050565b6004811061275157600080fd5b50565b60008135905061276381612744565b92915050565b600080604083850312156127805761277f6122b1565b5b600061278e85828601612304565b925050602061279f85828601612754565b9150509250929050565b6127b28161239c565b82525050565b600060808301600083015184820360008601526127d5828261250d565b915050602083015184820360208601526127ef828261250d565b91505060408301518482036040860152612809828261250d565b915050606083015161281e60608601826127a9565b508091505092915050565b6000602082019050818103600083015261284381846127b8565b905092915050565b61285481612546565b811461285f57600080fd5b50565b6000813590506128718161284b565b92915050565b600080600080600080600080600060a08a8c031215612899576128986122b1565b5b60008a013567ffffffffffffffff8111156128b7576128b66122b6565b5b6128c38c828d016123e7565b995099505060208a013567ffffffffffffffff8111156128e6576128e56122b6565b5b6128f28c828d016123e7565b975097505060408a013567ffffffffffffffff811115612915576129146122b6565b5b6129218c828d016123e7565b955095505060606129348c828d01612862565b93505060808a013567ffffffffffffffff811115612955576129546122b6565b5b6129618c828d016123e7565b92509250509295985092959850929598565b61297c81612562565b811461298757600080fd5b50565b60008135905061299981612973565b92915050565b6000806000806000606086880312156129bb576129ba6122b1565b5b600086013567ffffffffffffffff8111156129d9576129d86122b6565b5b6129e5888289016123e7565b955095505060206129f88882890161298a565b935050604086013567ffffffffffffffff811115612a1957612a186122b6565b5b612a25888289016123e7565b92509250509295509295909350565b600082825260208201905092915050565b6000612a50826124b6565b612a5a8185612a34565b9350612a6a8185602086016124d2565b612a73816124fc565b840191505092915050565b60006080820190508181036000830152612a988187612a45565b90508181036020830152612aac8186612a45565b90508181036040830152612ac08185612a45565b9050612acf60608301846123ae565b95945050505050565b60008060008060008060608789031215612af557612af46122b1565b5b600087013567ffffffffffffffff811115612b1357612b126122b6565b5b612b1f89828a016123e7565b9650965050602087013567ffffffffffffffff811115612b4257612b416122b6565b5b612b4e89828a016123e7565b9450945050604087013567ffffffffffffffff811115612b7157612b706122b6565b5b612b7d89828a016123e7565b92509250509295509295509295565b600081519050919050565b600082825260208201905092915050565b6000819050602082019050919050565b6000612bc4838361257b565b60208301905092915050565b6000602082019050919050565b6000612be882612b8c565b612bf28185612b97565b9350612bfd83612ba8565b8060005b83811015612c2e578151612c158882612bb8565b9750612c2083612bd0565b925050600181019050612c01565b5085935050505092915050565b60006020820190508181036000830152612c558184612bdd565b905092915050565b612c66816122db565b82525050565b6000602082019050612c816000830184612c5d565b92915050565b7f4f6e6c792073747564656e742063616e20706572666f726d207468697320616360008201527f74696f6e00000000000000000000000000000000000000000000000000000000602082015250565b6000612ce3602483612a34565b9150612cee82612c87565b604082019050919050565b60006020820190508181036000830152612d1281612cd6565b9050919050565b600081905092915050565b82818337600083830152505050565b6000612d3f8385612d19565b9350612d4c838584612d24565b82840190509392505050565b6000612d65828486612d33565b91508190509392505050565b7f4e487b7100000000000000000000000000000000000000000000000000000000600052602260045260246000fd5b60006002820490506001821680612db857607f821691505b602082108103612dcb57612dca612d71565b5b50919050565b7f4f6e6c79206772616465206d616e616765722063616e20706572666f726d207460008201527f68697320616374696f6e00000000000000000000000000000000000000000000602082015250565b6000612e2d602a83612a34565b9150612e3882612dd1565b604082019050919050565b60006020820190508181036000830152612e5c81612e20565b9050919050565b7f4f6e6c792061646d696e2063616e20706572666f726d2074686973206163746960008201527f6f6e000000000000000000000000000000000000000000000000000000000000602082015250565b6000612ebf602283612a34565b9150612eca82612e63565b604082019050919050565b60006020820190508181036000830152612eee81612eb2565b9050919050565b7f4f6e6c7920746561636865722063616e20706572666f726d207468697320616360008201527f74696f6e00000000000000000000000000000000000000000000000000000000602082015250565b6000612f51602483612a34565b9150612f5c82612ef5565b604082019050919050565b60006020820190508181036000830152612f8081612f44565b9050919050565b7f496e76616c69642073636f726500000000000000000000000000000000000000600082015250565b6000612fbd600d83612a34565b9150612fc882612f87565b602082019050919050565b60006020820190508181036000830152612fec81612fb0565b9050919050565b7f4e487b7100000000000000000000000000000000000000000000000000000000600052604160045260246000fd5b60008190508160005260206000209050919050565b60006020601f8301049050919050565b600082821b905092915050565b6000600883026130847fffffffffffffffffffffffffffffffffffffffffffffffffffffffffffffffff82613047565b61308e8683613047565b95508019841693508086168417925050509392505050565b6000819050919050565b60006130cb6130c66130c184612562565b6130a6565b612562565b9050919050565b6000819050919050565b6130e5836130b0565b6130f96130f1826130d2565b848454613054565b825550505050565b600090565b61310e613101565b6131198184846130dc565b505050565b5b8181101561313d57613132600082613106565b60018101905061311f565b5050565b601f8211156131825761315381613022565b61315c84613037565b8101602085101561316b578190505b61317f61317785613037565b83018261311e565b50505b505050565b600082821c905092915050565b60006131a560001984600802613187565b1980831691505092915050565b60006131be8383613194565b9150826002028217905092915050565b6131d7826124b6565b67ffffffffffffffff8111156131f0576131ef612ff3565b5b6131fa8254612da0565b613205828285613141565b600060209050601f8311600181146132385760008415613226578287015190505b61323085826131b2565b865550613298565b601f19841661324686613022565b60005b8281101561326e57848901518255600182019150602085019450602081019050613249565b8683101561328b5784890151613287601f891682613194565b8355505b6001600288020188555050505b505050505050565b60006132ac8385612a34565b93506132b9838584612d24565b6132c2836124fc565b840190509392505050565b6132d681612546565b82525050565b600060808201905081810360008301526132f781888a6132a0565b9050818103602083015261330c8186886132a0565b905061331b60408301856132cd565b6133286060830184612c5d565b979650505050505050565b7f496e76616c696420696e64657800000000000000000000000000000000000000600082015250565b6000613369600d83612a34565b915061337482613333565b602082019050919050565b600060208201905081810360008301526133988161335c565b9050919050565b7f4e487b7100000000000000000000000000000000000000000000000000000000600052603260045260246000fd5b600082905092915050565b6133e383836133ce565b67ffffffffffffffff8111156133fc576133fb612ff3565b5b6134068254612da0565b613411828285613141565b6000601f831160018114613440576000841561342e578287013590505b61343885826131b2565b8655506134a0565b601f19841661344e86613022565b60005b8281101561347657848901358255600182019150602085019450602081019050613451565b86831015613493578489013561348f601f891682613194565b8355505b6001600288020188555050505b50505050505050565b600081546134b681612da0565b6134c08186612d19565b945060018216600081146134db57600181146134f057613523565b60ff1983168652811515820286019350613523565b6134f985613022565b60005b8381101561351b578154818901526001820191506020810190506134fc565b838801955050505b50505092915050565b600061353882846134a9565b915081905092915050565b6000602082019050818103600083015261355e8184866132a0565b90509392505050565b7f41646d696e732063616e6e6f7420726567697374657200000000000000000000600082015250565b600061359d601683612a34565b91506135a882613567565b602082019050919050565b600060208201905081810360008301526135cc81613590565b9050919050565b600060608201905081810360008301526135ee81888a6132a0565b905081810360208301526136038186886132a0565b905081810360408301526136188184866132a0565b905097965050505050505056fea2646970667358221220aeea2ea46e0c0ff6daef7676e9d19147c81f56495f1e5ab36dc1705f71438d8064736f6c63430008140033",
  "linkReferences": {},
  "deployedLinkReferences": {}
}