{
  "_format": "hh-sol-artifact-1",
  "contractName": "EducationGrades",
  "sourceName": "contracts/EducationGrades.sol",
  "abi": [
    {
      "inputs": [],
      "stateMutability": "nonpayable",
      "type": "constructor"
    },
    {
      "anonymous": false,
      "inputs": [
        {
          "indexed": true,
          "internalType": "uint256",
          "name": "gradeId",
          "type": "uint256"
        },
        {
          "indexed": false,
          "internalType": "address",
          "name": "approvedBy",
          "type": "address"
        }
      ],
      "name": "GradeApproved",
      "type": "event"
    },
    {
      "anonymous": false,
      "inputs": [
        {
          "indexed": true,
          "internalType": "uint256",
          "name": "gradeId",
          "type": "uint256"
        },
        {
          "indexed": false,
          "internalType": "string",
          "name": "newStatus",
          "type": "string"
        }
      ],
      "name": "GradeStatusUpdated",
      "type": "event"
    },
    {
      "anonymous": false,
      "inputs": [
        {
          "indexed": true,
          "internalType": "uint256",
          "name": "gradeId",
          "type": "uint256"
        },
        {
          "indexed": false,
          "internalType": "string",
          "name": "studentId",
          "type": "string"
        },
        {
          "indexed": false,
          "internalType": "string",
          "name": "course",
          "type": "string"
        },
        {
          "indexed": false,
          "internalType": "uint8",
          "name": "score",
          "type": "uint8"
        },
        {
          "indexed": false,
          "internalType": "address",
          "name": "teacher",
          "type": "address"
        }
      ],
      "name": "GradeUploaded",
      "type": "event"
    },
    {
      "anonymous": false,
      "inputs": [
        {
          "indexed": true,
          "internalType": "address",
          "name": "user",
          "type": "address"
        },
        {
          "indexed": false,
          "internalType": "enum EducationGrades.Role",
          "name": "role",
          "type": "uint8"
        }
      ],
      "name": "RoleAssigned",
      "type": "event"
    },
    {
      "anonymous": false,
      "inputs": [
        {
          "indexed": true,
          "internalType": "address",
          "name": "user",
          "type": "address"
        },
        {
          "indexed": false,
          "internalType": "string",
          "name": "username",
          "type": "string"
        },
        {
          "indexed": false,
          "internalType": "string",
          "name": "email",
          "type": "string"
        },
        {
          "indexed": false,
          "internalType": "string",
          "name": "contactNumber",
          "type": "string"
        }
      ],
      "name": "UserRegistered",
      "type": "event"
    },
    {
      "anonymous": false,
      "inputs": [
        {
          "indexed": true,
          "internalType": "address",
          "name": "user",
          "type": "address"
        }
      ],
      "name": "UserRemoved",
      "type": "event"
    },
    {
      "inputs": [
        {
          "internalType": "address",
          "name": "_teacher",
          "type": "address"
        }
      ],
      "name": "addTeacher",
      "outputs": [],
      "stateMutability": "nonpayable",
      "type": "function"
    },
    {
      "inputs": [],
      "name": "admin",
      "outputs": [
        {
          "internalType": "address",
          "name": "",
          "type": "address"
        }
      ],
      "stateMutability": "view",
      "type": "function"
    },
    {
      "inputs": [
        {
          "internalType": "uint256",
          "name": "gradeId",
          "type": "uint256"
        }
      ],
      "name": "approveGrade",
      "outputs": [],
      "stateMutability": "nonpayable",
      "type": "function"
    },
    {
      "inputs": [
        {
          "internalType": "address",
          "name": "_user",
          "type": "address"
        },
        {
          "internalType": "enum EducationGrades.Role",
          "name": "_role",
          "type": "uint8"
        }
      ],
      "name": "assignRole",
      "outputs": [],
      "stateMutability": "nonpayable",
      "type": "function"
    },
    {
      "inputs": [],
      "name": "getAllUsers",
      "outputs": [
        {
          "internalType": "address[]",
          "name": "",
          "type": "address[]"
        }
      ],
      "stateMutability": "view",
      "type": "function"
    },
    {
      "inputs": [
        {
          "internalType": "address",
          "name": "studentAddress",
          "type": "address"
        }
      ],
      "name": "getGradesByAddress",
      "outputs": [
        {
          "components": [
            {
              "internalType": "uint256",
              "name": "gradeId",
              "type": "uint256"
            },
            {
              "internalType": "string",
              "name": "studentId",
              "type": "string"
            },
            {
              "internalType": "string",
              "name": "course",
              "type": "string"
            },
            {
              "internalType": "uint8",
              "name": "score",
              "type": "uint8"
            },
            {
              "internalType": "uint256",
              "name": "timestamp",
              "type": "uint256"
            },
            {
              "internalType": "address",
              "name": "teacher",
              "type": "address"
            },
            {
              "internalType": "string",
              "name": "status",
              "type": "string"
            },
            {
              "internalType": "string",
              "name": "remark",
              "type": "string"
            }
          ],
          "internalType": "struct EducationGrades.Grade[]",
          "name": "",
          "type": "tuple[]"
        }
      ],
      "stateMutability": "view",
      "type": "function"
    },
    {
      "inputs": [
        {
          "internalType": "string",
          "name": "studentId",
          "type": "string"
        }
      ],
      "name": "getGradesByStudentId",
      "outputs": [
        {
          "components": [
            {
              "internalType": "uint256",
              "name": "gradeId",
              "type": "uint256"
            },
            {
              "internalType": "string",
              "name": "studentId",
              "type": "string"
            },
            {
              "internalType": "string",
              "name": "course",
              "type": "string"
            },
            {
              "internalType": "uint8",
              "name": "score",
              "type": "uint8"
            },
            {
              "internalType": "uint256",
              "name": "timestamp",
              "type": "uint256"
            },
            {
              "internalType": "address",
              "name": "teacher",
              "type": "address"
            },
            {
              "internalType": "string",
              "name": "status",
              "type": "string"
            },
            {
              "internalType": "string",
              "name": "remark",
              "type": "string"
            }
          ],
          "internalType": "struct EducationGrades.Grade[]",
          "name": "",
          "type": "tuple[]"
        }
      ],
      "stateMutability": "view",
      "type": "function"
    },
    {
      "inputs": [
        {
          "internalType": "string",
          "name": "username",
          "type": "string"
        }
      ],
      "name": "getGradesByUsername",
      "outputs": [
        {
          "components": [
            {
              "internalType": "uint256",
              "name": "gradeId",
              "type": "uint256"
            },
            {
              "internalType": "string",
              "name": "studentId",
              "type": "string"
            },
            {
              "internalType": "string",
              "name": "course",
              "type": "string"
            },
            {
              "internalType": "uint8",
              "name": "score",
              "type": "uint8"
            },
            {
              "internalType": "uint256",
              "name": "timestamp",
              "type": "uint256"
            },
            {
              "internalType": "address",
              "name": "teacher",
              "type": "address"
            },
            {
              "internalType": "string",
              "name": "status",
              "type": "string"
            },
            {
              "internalType": "string",
              "name": "remark",
              "type": "string"
            }
          ],
          "internalType": "struct EducationGrades.Grade[]",
          "name": "",
          "type": "tuple[]"
        }
      ],
      "stateMutability": "view",
      "type": "function"
    },
    {
      "inputs": [],
      "name": "getLowScoreGrades",
      "outputs": [
        {
          "components": [
            {
              "internalType": "uint256",
              "name": "gradeId",
              "type": "uint256"
            },
            {
              "internalType": "string",
              "name": "studentId",
              "type": "string"
            },
            {
              "internalType": "string",
              "name": "course",
              "type": "string"
            },
            {
              "internalType": "uint8",
              "name": "score",
              "type": "uint8"
            },
            {
              "internalType": "uint256",
              "name": "timestamp",
              "type": "uint256"
            },
            {
              "internalType": "address",
              "name": "teacher",
              "type": "address"
            },
            {
              "internalType": "string",
              "name": "status",
              "type": "string"
            },
            {
              "internalType": "string",
              "name": "remark",
              "type": "string"
            }
          ],
          "internalType": "struct EducationGrades.Grade[]",
          "name": "",
          "type": "tuple[]"
        }
      ],
      "stateMutability": "view",
      "type": "function"
    },
    {
      "inputs": [
        {
          "internalType": "address",
          "name": "_user",
          "type": "address"
        }
      ],
      "name": "getUserInfo",
      "outputs": [
        {
          "components": [
            {
              "internalType": "string",
              "name": "username",
              "type": "string"
            },
            {
              "internalType": "string",
              "name": "email",
              "type": "string"
            },
            {
              "internalType": "string",
              "name": "contactNumber",
              "type": "string"
            },
            {
              "internalType": "enum EducationGrades.Role",
              "name": "role",
              "type": "uint8"
            },
            {
              "internalType": "bool",
              "name": "isRegistered",
              "type": "bool"
            }
          ],
          "internalType": "struct EducationGrades.User",
          "name": "",
          "type": "tuple"
        }
      ],
      "stateMutability": "view",
      "type": "function"
    },
    {
      "inputs": [
        {
          "internalType": "address",
          "name": "_user",
          "type": "address"
        }
      ],
      "name": "getUserRole",
      "outputs": [
        {
          "internalType": "enum EducationGrades.Role",
          "name": "",
          "type": "uint8"
        }
      ],
      "stateMutability": "view",
      "type": "function"
    },
    {
      "inputs": [],
      "name": "isAdmin",
      "outputs": [
        {
          "internalType": "bool",
          "name": "",
          "type": "bool"
        }
      ],
      "stateMutability": "view",
      "type": "function"
    },
    {
      "inputs": [],
      "name": "isGradeManager",
      "outputs": [
        {
          "internalType": "bool",
          "name": "",
          "type": "bool"
        }
      ],
      "stateMutability": "view",
      "type": "function"
    },
    {
      "inputs": [],
      "name": "isStudent",
      "outputs": [
        {
          "internalType": "bool",
          "name": "",
          "type": "bool"
        }
      ],
      "stateMutability": "view",
      "type": "function"
    },
    {
      "inputs": [],
      "name": "isTeacher",
      "outputs": [
        {
          "internalType": "bool",
          "name": "",
          "type": "bool"
        }
      ],
      "stateMutability": "view",
      "type": "function"
    },
    {
      "inputs": [
        {
          "internalType": "string",
          "name": "username",
          "type": "string"
        },
        {
          "internalType": "string",
          "name": "email",
          "type": "string"
        },
        {
          "internalType": "string",
          "name": "contactNumber",
          "type": "string"
        }
      ],
      "name": "registerUser",
      "outputs": [],
      "stateMutability": "nonpayable",
      "type": "function"
    },
    {
      "inputs": [
        {
          "internalType": "address",
          "name": "_teacher",
          "type": "address"
        }
      ],
      "name": "removeTeacher",
      "outputs": [],
      "stateMutability": "nonpayable",
      "type": "function"
    },
    {
      "inputs": [
        {
          "internalType": "address",
          "name": "_user",
          "type": "address"
        }
      ],
      "name": "removeUser",
      "outputs": [],
      "stateMutability": "nonpayable",
      "type": "function"
    },
    {
      "inputs": [
        {
          "internalType": "uint256",
          "name": "gradeId",
          "type": "uint256"
        }
      ],
      "name": "setGradeToRejected",
      "outputs": [],
      "stateMutability": "nonpayable",
      "type": "function"
    },
    {
      "inputs": [
        {
          "internalType": "uint256",
          "name": "gradeId",
          "type": "uint256"
        },
        {
          "internalType": "string",
          "name": "newStatus",
          "type": "string"
        }
      ],
      "name": "updateGradeStatus",
      "outputs": [],
      "stateMutability": "nonpayable",
      "type": "function"
    },
    {
      "inputs": [
        {
          "internalType": "string",
          "name": "studentId",
          "type": "string"
        },
        {
          "internalType": "string",
          "name": "course",
          "type": "string"
        },
        {
          "internalType": "uint8",
          "name": "score",
          "type": "uint8"
        },
        {
          "internalType": "string",
          "name": "remark",
          "type": "string"
        },
        {
          "internalType": "address",
          "name": "studentAddress",
          "type": "address"
        }
      ],
      "name": "uploadGrade",
      "outputs": [],
      "stateMutability": "nonpayable",
      "type": "function"
    },
    {
      "inputs": [
        {
          "internalType": "address",
          "name": "",
          "type": "address"
        }
      ],
      "name": "userRoles",
      "outputs": [
        {
          "internalType": "enum EducationGrades.Role",
          "name": "",
          "type": "uint8"
        }
      ],
      "stateMutability": "view",
      "type": "function"
    },
    {
      "inputs": [
        {
          "internalType": "address",
          "name": "",
          "type": "address"
        }
      ],
      "name": "users",
      "outputs": [
        {
          "internalType": "string",
          "name": "username",
          "type": "string"
        },
        {
          "internalType": "string",
          "name": "email",
          "type": "string"
        },
        {
          "internalType": "string",
          "name": "contactNumber",
          "type": "string"
        },
        {
          "internalType": "enum EducationGrades.Role",
          "name": "role",
          "type": "uint8"
        },
        {
          "internalType": "bool",
          "name": "isRegistered",
          "type": "bool"
        }
      ],
      "stateMutability": "view",
      "type": "function"
    }
  ],
  "bytecode": "0x608060405260006008553480156200001657600080fd5b50336000806101000a81548173ffffffffffffffffffffffffffffffffffffffff021916908373ffffffffffffffffffffffffffffffffffffffff1602179055506000600260008060009054906101000a900473ffffffffffffffffffffffffffffffffffffffff1673ffffffffffffffffffffffffffffffffffffffff1673ffffffffffffffffffffffffffffffffffffffff16815260200190815260200160002060006101000a81548160ff02191690836003811115620000de57620000dd620000e9565b5b021790555062000118565b7f4e487b7100000000000000000000000000000000000000000000000000000000600052602160045260246000fd5b61546b80620001286000396000f3fe608060405234801561001057600080fd5b506004361061014d5760003560e01c8063963e44f1116100c3578063e2842d791161007c578063e2842d79146103c6578063f02573f8146103e4578063f732738114610402578063f851a4401461041e578063f92c45d51461043c578063ffab6532146104585761014d565b8063963e44f114610300578063985751881461031e578063a87430ba1461033a578063b6db75a01461036e578063c64a4bad1461038c578063d637dcfa146103aa5761014d565b806352ff68461161011557806352ff684614610208578063630a195b146102245780636386c1c7146102405780636ede0b2e1461027057806374d5e100146102a05780639348f85b146102d05761014d565b806303670752146101525780631109485b1461016e578063278208511461019e5780633bc6e309146101ce57806351e0a6eb146101ea575b600080fd5b61016c60048036038101906101679190613f62565b610474565b005b61018860048036038101906101839190613fc2565b61079c565b6040516101959190614292565b60405180910390f35b6101b860048036038101906101b391906142e0565b610aec565b6040516101c59190614384565b60405180910390f35b6101e860048036038101906101e391906142e0565b610b42565b005b6101f2610d19565b6040516101ff91906143ba565b60405180910390f35b610222600480360381019061021d91906142e0565b610d94565b005b61023e600480360381019061023991906143fa565b610f6b565b005b61025a600480360381019061025591906142e0565b611141565b60405161026791906144dc565b60405180910390f35b61028a600480360381019061028591906142e0565b6113a6565b6040516102979190614292565b60405180910390f35b6102ba60048036038101906102b591906142e0565b611714565b6040516102c79190614384565b60405180910390f35b6102ea60048036038101906102e59190613fc2565b611734565b6040516102f79190614292565b60405180910390f35b610308611a84565b60405161031591906143ba565b60405180910390f35b610338600480360381019061033391906142e0565b611afe565b005b610354600480360381019061034f91906142e0565b611e8c565b604051610365959493929190614548565b60405180910390f35b610376612074565b60405161038391906143ba565b60405180910390f35b6103946120ee565b6040516103a191906143ba565b60405180910390f35b6103c460048036038101906103bf91906145b0565b612169565b005b6103ce61254c565b6040516103db9190614713565b60405180910390f35b6103ec61268d565b6040516103f99190614292565b60405180910390f35b61041c60048036038101906104179190614735565b612da0565b005b610426613133565b6040516104339190614771565b60405180910390f35b610456600480360381019061045191906147b8565b613157565b005b610472600480360381019061046d9190614735565b6139a2565b005b600060038111156104885761048761430d565b5b600260003373ffffffffffffffffffffffffffffffffffffffff1673ffffffffffffffffffffffffffffffffffffffff16815260200190815260200160002060009054906101000a900460ff1660038111156104e7576104e661430d565b5b14610527576040517f08c379a000000000000000000000000000000000000000000000000000000000815260040161051e90614906565b60405180910390fd5b6000805b6007805490508110156107555760006007828154811061054e5761054d614926565b5b9060005260206000200160009054906101000a900473ffffffffffffffffffffffffffffffffffffffff1690506000600160008373ffffffffffffffffffffffffffffffffffffffff1673ffffffffffffffffffffffffffffffffffffffff16815260200190815260200160002060000180546105ca90614984565b80601f01602080910402602001604051908101604052809291908181526020018280546105f690614984565b80156106435780601f1061061857610100808354040283529160200191610643565b820191906000526020600020905b81548152906001019060200180831161062657829003601f168201915b50505050509050600060038260405161065c91906149f1565b9081526020016040518091039020905060005b8180549050811015610730578882828154811061068f5761068e614926565b5b9060005260206000209060080201600001540361071d5787878383815481106106bb576106ba614926565b5b906000526020600020906008020160060191826106d9929190614bee565b5060019550887f1e03591cf0112e5859e4565de39b4a69c1d97d36bdeb9e12f6cd725da41acc0c8989604051610710929190614cfa565b60405180910390a2610730565b808061072890614d4d565b91505061066f565b50841561073f57505050610755565b505050808061074d90614d4d565b91505061052b565b5080610796576040517f08c379a000000000000000000000000000000000000000000000000000000000815260040161078d90614de1565b60405180910390fd5b50505050565b6060600483836040516107b0929190614e26565b9081526020016040518091039020805480602002602001604051908101604052809291908181526020016000905b82821015610ae05783829060005260206000209060080201604051806101000160405290816000820154815260200160018201805461081c90614984565b80601f016020809104026020016040519081016040528092919081815260200182805461084890614984565b80156108955780601f1061086a57610100808354040283529160200191610895565b820191906000526020600020905b81548152906001019060200180831161087857829003601f168201915b505050505081526020016002820180546108ae90614984565b80601f01602080910402602001604051908101604052809291908181526020018280546108da90614984565b80156109275780601f106108fc57610100808354040283529160200191610927565b820191906000526020600020905b81548152906001019060200180831161090a57829003601f168201915b505050505081526020016003820160009054906101000a900460ff1660ff1660ff168152602001600482015481526020016005820160009054906101000a900473ffffffffffffffffffffffffffffffffffffffff1673ffffffffffffffffffffffffffffffffffffffff1673ffffffffffffffffffffffffffffffffffffffff1681526020016006820180546109bd90614984565b80601f01602080910402602001604051908101604052809291908181526020018280546109e990614984565b8015610a365780601f10610a0b57610100808354040283529160200191610a36565b820191906000526020600020905b815481529060010190602001808311610a1957829003601f168201915b50505050508152602001600782018054610a4f90614984565b80601f0160208091040260200160405190810160405280929190818152602001828054610a7b90614984565b8015610ac85780601f10610a9d57610100808354040283529160200191610ac8565b820191906000526020600020905b815481529060010190602001808311610aab57829003601f168201915b505050505081525050815260200190600101906107de565b50505050905092915050565b6000600260008373ffffffffffffffffffffffffffffffffffffffff1673ffffffffffffffffffffffffffffffffffffffff16815260200190815260200160002060009054906101000a900460ff169050919050565b60006003811115610b5657610b5561430d565b5b600260003373ffffffffffffffffffffffffffffffffffffffff1673ffffffffffffffffffffffffffffffffffffffff16815260200190815260200160002060009054906101000a900460ff166003811115610bb557610bb461430d565b5b14610bf5576040517f08c379a0000000000000000000000000000000000000000000000000000000008152600401610bec90614906565b60405180910390fd5b6001600260008373ffffffffffffffffffffffffffffffffffffffff1673ffffffffffffffffffffffffffffffffffffffff16815260200190815260200160002060006101000a81548160ff02191690836003811115610c5857610c5761430d565b5b021790555060018060008373ffffffffffffffffffffffffffffffffffffffff1673ffffffffffffffffffffffffffffffffffffffff16815260200190815260200160002060030160006101000a81548160ff02191690836003811115610cc257610cc161430d565b5b02179055508073ffffffffffffffffffffffffffffffffffffffff167f4ac36fa53f167ceb85964be512e01de2a3b8bdb9862f917da079deeeff689b386001604051610d0e9190614384565b60405180910390a250565b600060026003811115610d2f57610d2e61430d565b5b600260003373ffffffffffffffffffffffffffffffffffffffff1673ffffffffffffffffffffffffffffffffffffffff16815260200190815260200160002060009054906101000a900460ff166003811115610d8e57610d8d61430d565b5b14905090565b60006003811115610da857610da761430d565b5b600260003373ffffffffffffffffffffffffffffffffffffffff1673ffffffffffffffffffffffffffffffffffffffff16815260200190815260200160002060009054906101000a900460ff166003811115610e0757610e0661430d565b5b14610e47576040517f08c379a0000000000000000000000000000000000000000000000000000000008152600401610e3e90614906565b60405180910390fd5b60028060008373ffffffffffffffffffffffffffffffffffffffff1673ffffffffffffffffffffffffffffffffffffffff16815260200190815260200160002060006101000a81548160ff02191690836003811115610ea957610ea861430d565b5b02179055506002600160008373ffffffffffffffffffffffffffffffffffffffff1673ffffffffffffffffffffffffffffffffffffffff16815260200190815260200160002060030160006101000a81548160ff02191690836003811115610f1457610f1361430d565b5b02179055508073ffffffffffffffffffffffffffffffffffffffff167f4ac36fa53f167ceb85964be512e01de2a3b8bdb9862f917da079deeeff689b386002604051610f609190614384565b60405180910390a250565b60006003811115610f7f57610f7e61430d565b5b600260003373ffffffffffffffffffffffffffffffffffffffff1673ffffffffffffffffffffffffffffffffffffffff16815260200190815260200160002060009054906101000a900460ff166003811115610fde57610fdd61430d565b5b1461101e576040517f08c379a000000000000000000000000000000000000000000000000000000000815260040161101590614906565b60405180910390fd5b80600260008473ffffffffffffffffffffffffffffffffffffffff1673ffffffffffffffffffffffffffffffffffffffff16815260200190815260200160002060006101000a81548160ff021916908360038111156110805761107f61430d565b5b021790555080600160008473ffffffffffffffffffffffffffffffffffffffff1673ffffffffffffffffffffffffffffffffffffffff16815260200190815260200160002060030160006101000a81548160ff021916908360038111156110ea576110e961430d565b5b02179055508173ffffffffffffffffffffffffffffffffffffffff167f4ac36fa53f167ceb85964be512e01de2a3b8bdb9862f917da079deeeff689b38826040516111359190614384565b60405180910390a25050565b611149613cf9565b600160008373ffffffffffffffffffffffffffffffffffffffff1673ffffffffffffffffffffffffffffffffffffffff1681526020019081526020016000206040518060a00160405290816000820180546111a390614984565b80601f01602080910402602001604051908101604052809291908181526020018280546111cf90614984565b801561121c5780601f106111f15761010080835404028352916020019161121c565b820191906000526020600020905b8154815290600101906020018083116111ff57829003601f168201915b5050505050815260200160018201805461123590614984565b80601f016020809104026020016040519081016040528092919081815260200182805461126190614984565b80156112ae5780601f10611283576101008083540402835291602001916112ae565b820191906000526020600020905b81548152906001019060200180831161129157829003601f168201915b505050505081526020016002820180546112c790614984565b80601f01602080910402602001604051908101604052809291908181526020018280546112f390614984565b80156113405780601f1061131557610100808354040283529160200191611340565b820191906000526020600020905b81548152906001019060200180831161132357829003601f168201915b505050505081526020016003820160009054906101000a900460ff16600381111561136e5761136d61430d565b5b60038111156113805761137f61430d565b5b81526020016003820160019054906101000a900460ff1615151515815250509050919050565b6060600560008373ffffffffffffffffffffffffffffffffffffffff1673ffffffffffffffffffffffffffffffffffffffff168152602001908152602001600020805480602002602001604051908101604052809291908181526020016000905b828210156117095783829060005260206000209060080201604051806101000160405290816000820154815260200160018201805461144590614984565b80601f016020809104026020016040519081016040528092919081815260200182805461147190614984565b80156114be5780601f10611493576101008083540402835291602001916114be565b820191906000526020600020905b8154815290600101906020018083116114a157829003601f168201915b505050505081526020016002820180546114d790614984565b80601f016020809104026020016040519081016040528092919081815260200182805461150390614984565b80156115505780601f1061152557610100808354040283529160200191611550565b820191906000526020600020905b81548152906001019060200180831161153357829003601f168201915b505050505081526020016003820160009054906101000a900460ff1660ff1660ff168152602001600482015481526020016005820160009054906101000a900473ffffffffffffffffffffffffffffffffffffffff1673ffffffffffffffffffffffffffffffffffffffff1673ffffffffffffffffffffffffffffffffffffffff1681526020016006820180546115e690614984565b80601f016020809104026020016040519081016040528092919081815260200182805461161290614984565b801561165f5780601f106116345761010080835404028352916020019161165f565b820191906000526020600020905b81548152906001019060200180831161164257829003601f168201915b5050505050815260200160078201805461167890614984565b80601f01602080910402602001604051908101604052809291908181526020018280546116a490614984565b80156116f15780601f106116c6576101008083540402835291602001916116f1565b820191906000526020600020905b8154815290600101906020018083116116d457829003601f168201915b50505050508152505081526020019060010190611407565b505050509050919050565b60026020528060005260406000206000915054906101000a900460ff1681565b606060038383604051611748929190614e26565b9081526020016040518091039020805480602002602001604051908101604052809291908181526020016000905b82821015611a78578382906000526020600020906008020160405180610100016040529081600082015481526020016001820180546117b490614984565b80601f01602080910402602001604051908101604052809291908181526020018280546117e090614984565b801561182d5780601f106118025761010080835404028352916020019161182d565b820191906000526020600020905b81548152906001019060200180831161181057829003601f168201915b5050505050815260200160028201805461184690614984565b80601f016020809104026020016040519081016040528092919081815260200182805461187290614984565b80156118bf5780601f10611894576101008083540402835291602001916118bf565b820191906000526020600020905b8154815290600101906020018083116118a257829003601f168201915b505050505081526020016003820160009054906101000a900460ff1660ff1660ff168152602001600482015481526020016005820160009054906101000a900473ffffffffffffffffffffffffffffffffffffffff1673ffffffffffffffffffffffffffffffffffffffff1673ffffffffffffffffffffffffffffffffffffffff16815260200160068201805461195590614984565b80601f016020809104026020016040519081016040528092919081815260200182805461198190614984565b80156119ce5780601f106119a3576101008083540402835291602001916119ce565b820191906000526020600020905b8154815290600101906020018083116119b157829003601f168201915b505050505081526020016007820180546119e790614984565b80601f0160208091040260200160405190810160405280929190818152602001828054611a1390614984565b8015611a605780601f10611a3557610100808354040283529160200191611a60565b820191906000526020600020905b815481529060010190602001808311611a4357829003601f168201915b50505050508152505081526020019060010190611776565b50505050905092915050565b6000600380811115611a9957611a9861430d565b5b600260003373ffffffffffffffffffffffffffffffffffffffff1673ffffffffffffffffffffffffffffffffffffffff16815260200190815260200160002060009054906101000a900460ff166003811115611af857611af761430d565b5b14905090565b60006003811115611b1257611b1161430d565b5b600260003373ffffffffffffffffffffffffffffffffffffffff1673ffffffffffffffffffffffffffffffffffffffff16815260200190815260200160002060009054906101000a900460ff166003811115611b7157611b7061430d565b5b14611bb1576040517f08c379a0000000000000000000000000000000000000000000000000000000008152600401611ba890614906565b60405180910390fd5b600160008273ffffffffffffffffffffffffffffffffffffffff1673ffffffffffffffffffffffffffffffffffffffff16815260200190815260200160002060030160019054906101000a900460ff16611c40576040517f08c379a0000000000000000000000000000000000000000000000000000000008152600401611c3790614e8b565b60405180910390fd5b6003600160008373ffffffffffffffffffffffffffffffffffffffff1673ffffffffffffffffffffffffffffffffffffffff168152602001908152602001600020600001604051611c919190614f2e565b90815260200160405180910390206000611cab9190613d3c565b6004600160008373ffffffffffffffffffffffffffffffffffffffff1673ffffffffffffffffffffffffffffffffffffffff168152602001908152602001600020600001604051611cfc9190614f2e565b90815260200160405180910390206000611d169190613d3c565b600560008273ffffffffffffffffffffffffffffffffffffffff1673ffffffffffffffffffffffffffffffffffffffff1681526020019081526020016000206000611d619190613d3c565b600660008273ffffffffffffffffffffffffffffffffffffffff1673ffffffffffffffffffffffffffffffffffffffff1681526020019081526020016000206000611dac9190613d3c565b600160008273ffffffffffffffffffffffffffffffffffffffff1673ffffffffffffffffffffffffffffffffffffffff16815260200190815260200160002060008082016000611dfc9190613d60565b600182016000611e0c9190613d60565b600282016000611e1c9190613d60565b6003820160006101000a81549060ff02191690556003820160016101000a81549060ff021916905550508073ffffffffffffffffffffffffffffffffffffffff167fe9dce8c992623ce791725b21e857e33248d1f190a25b5168313420eebdaae99d60405160405180910390a250565b6001602052806000526040600020600091509050806000018054611eaf90614984565b80601f0160208091040260200160405190810160405280929190818152602001828054611edb90614984565b8015611f285780601f10611efd57610100808354040283529160200191611f28565b820191906000526020600020905b815481529060010190602001808311611f0b57829003601f168201915b505050505090806001018054611f3d90614984565b80601f0160208091040260200160405190810160405280929190818152602001828054611f6990614984565b8015611fb65780601f10611f8b57610100808354040283529160200191611fb6565b820191906000526020600020905b815481529060010190602001808311611f9957829003601f168201915b505050505090806002018054611fcb90614984565b80601f0160208091040260200160405190810160405280929190818152602001828054611ff790614984565b80156120445780601f1061201957610100808354040283529160200191612044565b820191906000526020600020905b81548152906001019060200180831161202757829003601f168201915b5050505050908060030160009054906101000a900460ff16908060030160019054906101000a900460ff16905085565b60008060038111156120895761208861430d565b5b600260003373ffffffffffffffffffffffffffffffffffffffff1673ffffffffffffffffffffffffffffffffffffffff16815260200190815260200160002060009054906101000a900460ff1660038111156120e8576120e761430d565b5b14905090565b6000600160038111156121045761210361430d565b5b600260003373ffffffffffffffffffffffffffffffffffffffff1673ffffffffffffffffffffffffffffffffffffffff16815260200190815260200160002060009054906101000a900460ff1660038111156121635761216261430d565b5b14905090565b6000600381111561217d5761217c61430d565b5b600260003373ffffffffffffffffffffffffffffffffffffffff1673ffffffffffffffffffffffffffffffffffffffff16815260200190815260200160002060009054906101000a900460ff1660038111156121dc576121db61430d565b5b0361221c576040517f08c379a000000000000000000000000000000000000000000000000000000000815260040161221390614f91565b60405180910390fd5b600160003373ffffffffffffffffffffffffffffffffffffffff1673ffffffffffffffffffffffffffffffffffffffff16815260200190815260200160002060030160019054906101000a900460ff16156122ac576040517f08c379a00000000000000000000000000000000000000000000000000000000081526004016122a390615023565b60405180910390fd5b6040518060a0016040528087878080601f016020809104026020016040519081016040528093929190818152602001838380828437600081840152601f19601f82011690508083019250505050505050815260200185858080601f016020809104026020016040519081016040528093929190818152602001838380828437600081840152601f19601f82011690508083019250505050505050815260200183838080601f016020809104026020016040519081016040528093929190818152602001838380828437600081840152601f19601f820116905080830192505050505050508152602001600260038111156123a9576123a861430d565b5b815260200160011515815250600160003373ffffffffffffffffffffffffffffffffffffffff1673ffffffffffffffffffffffffffffffffffffffff16815260200190815260200160002060008201518160000190816124099190615043565b50602082015181600101908161241f9190615043565b5060408201518160020190816124359190615043565b5060608201518160030160006101000a81548160ff021916908360038111156124615761246061430d565b5b021790555060808201518160030160016101000a81548160ff0219169083151502179055509050506007339080600181540180825580915050600190039060005260206000200160009091909190916101000a81548173ffffffffffffffffffffffffffffffffffffffff021916908373ffffffffffffffffffffffffffffffffffffffff1602179055503373ffffffffffffffffffffffffffffffffffffffff167f509c70f523067009f7db7f46db6956d7af8b679323680dc3821a8bad001ac1e187878787878760405161253c96959493929190615115565b60405180910390a2505050505050565b6060600060038111156125625761256161430d565b5b600260003373ffffffffffffffffffffffffffffffffffffffff1673ffffffffffffffffffffffffffffffffffffffff16815260200190815260200160002060009054906101000a900460ff1660038111156125c1576125c061430d565b5b14612601576040517f08c379a00000000000000000000000000000000000000000000000000000000081526004016125f890614906565b60405180910390fd5b600780548060200260200160405190810160405280929190818152602001828054801561268357602002820191906000526020600020905b8160009054906101000a900473ffffffffffffffffffffffffffffffffffffffff1673ffffffffffffffffffffffffffffffffffffffff1681526020019060010190808311612639575b5050505050905090565b60606000805b600780549050811015612859576000600782815481106126b6576126b5614926565b5b9060005260206000200160009054906101000a900473ffffffffffffffffffffffffffffffffffffffff1690506000600160008373ffffffffffffffffffffffffffffffffffffffff1673ffffffffffffffffffffffffffffffffffffffff168152602001908152602001600020600001805461273290614984565b80601f016020809104026020016040519081016040528092919081815260200182805461275e90614984565b80156127ab5780601f10612780576101008083540402835291602001916127ab565b820191906000526020600020905b81548152906001019060200180831161278e57829003601f168201915b5050505050905060006003826040516127c491906149f1565b9081526020016040518091039020905060005b818054905081101561284257603c8282815481106127f8576127f7614926565b5b906000526020600020906008020160030160009054906101000a900460ff1660ff16101561282f57858061282b90614d4d565b9650505b808061283a90614d4d565b9150506127d7565b50505050808061285190614d4d565b915050612693565b5060008167ffffffffffffffff81111561287657612875614a13565b5b6040519080825280602002602001820160405280156128af57816020015b61289c613da0565b8152602001906001900390816128945790505b5090506000805b600780549050811015612d96576000600782815481106128d9576128d8614926565b5b9060005260206000200160009054906101000a900473ffffffffffffffffffffffffffffffffffffffff1690506000600160008373ffffffffffffffffffffffffffffffffffffffff1673ffffffffffffffffffffffffffffffffffffffff168152602001908152602001600020600001805461295590614984565b80601f016020809104026020016040519081016040528092919081815260200182805461298190614984565b80156129ce5780601f106129a3576101008083540402835291602001916129ce565b820191906000526020600020905b8154815290600101906020018083116129b157829003601f168201915b5050505050905060006003826040516129e791906149f1565b9081526020016040518091039020905060005b8180549050811015612d7f57603c828281548110612a1b57612a1a614926565b5b906000526020600020906008020160030160009054906101000a900460ff1660ff161015612d6c57818181548110612a5657612a55614926565b5b90600052602060002090600802016040518061010001604052908160008201548152602001600182018054612a8a90614984565b80601f0160208091040260200160405190810160405280929190818152602001828054612ab690614984565b8015612b035780601f10612ad857610100808354040283529160200191612b03565b820191906000526020600020905b815481529060010190602001808311612ae657829003601f168201915b50505050508152602001600282018054612b1c90614984565b80601f0160208091040260200160405190810160405280929190818152602001828054612b4890614984565b8015612b955780601f10612b6a57610100808354040283529160200191612b95565b820191906000526020600020905b815481529060010190602001808311612b7857829003601f168201915b505050505081526020016003820160009054906101000a900460ff1660ff1660ff168152602001600482015481526020016005820160009054906101000a900473ffffffffffffffffffffffffffffffffffffffff1673ffffffffffffffffffffffffffffffffffffffff1673ffffffffffffffffffffffffffffffffffffffff168152602001600682018054612c2b90614984565b80601f0160208091040260200160405190810160405280929190818152602001828054612c5790614984565b8015612ca45780601f10612c7957610100808354040283529160200191612ca4565b820191906000526020600020905b815481529060010190602001808311612c8757829003601f168201915b50505050508152602001600782018054612cbd90614984565b80601f0160208091040260200160405190810160405280929190818152602001828054612ce990614984565b8015612d365780601f10612d0b57610100808354040283529160200191612d36565b820191906000526020600020905b815481529060010190602001808311612d1957829003601f168201915b505050505081525050878781518110612d5257612d51614926565b5b60200260200101819052508580612d6890614d4d565b9650505b8080612d7790614d4d565b9150506129fa565b505050508080612d8e90614d4d565b9150506128b6565b5081935050505090565b60006003811115612db457612db361430d565b5b600260003373ffffffffffffffffffffffffffffffffffffffff1673ffffffffffffffffffffffffffffffffffffffff16815260200190815260200160002060009054906101000a900460ff166003811115612e1357612e1261430d565b5b14612e53576040517f08c379a0000000000000000000000000000000000000000000000000000000008152600401612e4a90614906565b60405180910390fd5b6000805b6007805490508110156130ee57600060078281548110612e7a57612e79614926565b5b9060005260206000200160009054906101000a900473ffffffffffffffffffffffffffffffffffffffff1690506000600160008373ffffffffffffffffffffffffffffffffffffffff1673ffffffffffffffffffffffffffffffffffffffff1681526020019081526020016000206000018054612ef690614984565b80601f0160208091040260200160405190810160405280929190818152602001828054612f2290614984565b8015612f6f5780601f10612f4457610100808354040283529160200191612f6f565b820191906000526020600020905b815481529060010190602001808311612f5257829003601f168201915b505050505090506000600382604051612f8891906149f1565b9081526020016040518091039020905060005b81805490508110156130c95786828281548110612fbb57612fba614926565b5b906000526020600020906008020160000154036130b657603c828281548110612fe757612fe6614926565b5b906000526020600020906008020160030160009054906101000a900460ff1660ff1610156130b1576040518060400160405280600881526020017f72656a656374656400000000000000000000000000000000000000000000000081525082828154811061305857613057614926565b5b906000526020600020906008020160060190816130759190615043565b5060019550867f1e03591cf0112e5859e4565de39b4a69c1d97d36bdeb9e12f6cd725da41acc0c6040516130a8906151b3565b60405180910390a25b6130c9565b80806130c190614d4d565b915050612f9b565b5084156130d8575050506130ee565b50505080806130e690614d4d565b915050612e57565b508061312f576040517f08c379a000000000000000000000000000000000000000000000000000000000815260040161312690615245565b60405180910390fd5b5050565b60008054906101000a900473ffffffffffffffffffffffffffffffffffffffff1681565b6001600381111561316b5761316a61430d565b5b600260003373ffffffffffffffffffffffffffffffffffffffff1673ffffffffffffffffffffffffffffffffffffffff16815260200190815260200160002060009054906101000a900460ff1660038111156131ca576131c961430d565b5b1461320a576040517f08c379a0000000000000000000000000000000000000000000000000000000008152600401613201906152d7565b60405180910390fd5b60648460ff161115613251576040517f08c379a000000000000000000000000000000000000000000000000000000000815260040161324890615343565b60405180910390fd5b600160008273ffffffffffffffffffffffffffffffffffffffff1673ffffffffffffffffffffffffffffffffffffffff16815260200190815260200160002060030160019054906101000a900460ff166132e0576040517f08c379a00000000000000000000000000000000000000000000000000000000081526004016132d7906153af565b60405180910390fd5b60006008549050600860008154809291906132fa90614d4d565b919050555060006040518061010001604052808381526020018b8b8080601f016020809104026020016040519081016040528093929190818152602001838380828437600081840152601f19601f82011690508083019250505050505050815260200189898080601f016020809104026020016040519081016040528093929190818152602001838380828437600081840152601f19601f8201169050808301925050505050505081526020018760ff1681526020014281526020013373ffffffffffffffffffffffffffffffffffffffff1681526020016040518060400160405280600881526020017f617070726f766564000000000000000000000000000000000000000000000000815250815260200186868080601f016020809104026020016040519081016040528093929190818152602001838380828437600081840152601f19601f82011690508083019250505050505050815250905060038a8a604051613469929190614e26565b90815260200160405180910390208190806001815401808255809150506001900390600052602060002090600802016000909190919091506000820151816000015560208201518160010190816134c09190615043565b5060408201518160020190816134d69190615043565b5060608201518160030160006101000a81548160ff021916908360ff1602179055506080820151816004015560a08201518160050160006101000a81548173ffffffffffffffffffffffffffffffffffffffff021916908373ffffffffffffffffffffffffffffffffffffffff16021790555060c082015181600601908161355e9190615043565b5060e08201518160070190816135749190615043565b5050506004600160008573ffffffffffffffffffffffffffffffffffffffff1673ffffffffffffffffffffffffffffffffffffffff1681526020019081526020016000206000016040516135c89190614f2e565b908152602001604051809103902081908060018154018082558091505060019003906000526020600020906008020160009091909190915060008201518160000155602082015181600101908161361f9190615043565b5060408201518160020190816136359190615043565b5060608201518160030160006101000a81548160ff021916908360ff1602179055506080820151816004015560a08201518160050160006101000a81548173ffffffffffffffffffffffffffffffffffffffff021916908373ffffffffffffffffffffffffffffffffffffffff16021790555060c08201518160060190816136bd9190615043565b5060e08201518160070190816136d39190615043565b505050600560008473ffffffffffffffffffffffffffffffffffffffff1673ffffffffffffffffffffffffffffffffffffffff16815260200190815260200160002081908060018154018082558091505060019003906000526020600020906008020160009091909190915060008201518160000155602082015181600101908161375e9190615043565b5060408201518160020190816137749190615043565b5060608201518160030160006101000a81548160ff021916908360ff1602179055506080820151816004015560a08201518160050160006101000a81548173ffffffffffffffffffffffffffffffffffffffff021916908373ffffffffffffffffffffffffffffffffffffffff16021790555060c08201518160060190816137fc9190615043565b5060e08201518160070190816138129190615043565b505050600660003373ffffffffffffffffffffffffffffffffffffffff1673ffffffffffffffffffffffffffffffffffffffff16815260200190815260200160002081908060018154018082558091505060019003906000526020600020906008020160009091909190915060008201518160000155602082015181600101908161389d9190615043565b5060408201518160020190816138b39190615043565b5060608201518160030160006101000a81548160ff021916908360ff1602179055506080820151816004015560a08201518160050160006101000a81548173ffffffffffffffffffffffffffffffffffffffff021916908373ffffffffffffffffffffffffffffffffffffffff16021790555060c082015181600601908161393b9190615043565b5060e08201518160070190816139519190615043565b505050817ff13540323af89409fe93c67e00c842e9423704f885251600ad0b75708aa5fb728b8b8b8b8b3360405161398e969594939291906153de565b60405180910390a250505050505050505050565b600060038111156139b6576139b561430d565b5b600260003373ffffffffffffffffffffffffffffffffffffffff1673ffffffffffffffffffffffffffffffffffffffff16815260200190815260200160002060009054906101000a900460ff166003811115613a1557613a1461430d565b5b14613a55576040517f08c379a0000000000000000000000000000000000000000000000000000000008152600401613a4c90614906565b60405180910390fd5b6000805b600780549050811015613cb457600060078281548110613a7c57613a7b614926565b5b9060005260206000200160009054906101000a900473ffffffffffffffffffffffffffffffffffffffff1690506000600160008373ffffffffffffffffffffffffffffffffffffffff1673ffffffffffffffffffffffffffffffffffffffff1681526020019081526020016000206000018054613af890614984565b80601f0160208091040260200160405190810160405280929190818152602001828054613b2490614984565b8015613b715780601f10613b4657610100808354040283529160200191613b71565b820191906000526020600020905b815481529060010190602001808311613b5457829003601f168201915b505050505090506000600382604051613b8a91906149f1565b9081526020016040518091039020905060005b8180549050811015613c8f5786828281548110613bbd57613bbc614926565b5b90600052602060002090600802016000015403613c7c576040518060400160405280600881526020017f617070726f766564000000000000000000000000000000000000000000000000815250828281548110613c1d57613c1c614926565b5b90600052602060002090600802016006019081613c3a9190615043565b5060019550867f8e58cb05cdb686fe591c92fce9be3bb13e46c9149bcda55eba5daa4266ddef1b33604051613c6f9190614771565b60405180910390a2613c8f565b8080613c8790614d4d565b915050613b9d565b508415613c9e57505050613cb4565b5050508080613cac90614d4d565b915050613a59565b5080613cf5576040517f08c379a0000000000000000000000000000000000000000000000000000000008152600401613cec90614de1565b60405180910390fd5b5050565b6040518060a0016040528060608152602001606081526020016060815260200160006003811115613d2d57613d2c61430d565b5b81526020016000151581525090565b5080546000825560080290600052602060002090810190613d5d9190613dfe565b50565b508054613d6c90614984565b6000825580601f10613d7e5750613d9d565b601f016020900490600052602060002090810190613d9c9190613ea0565b5b50565b604051806101000160405280600081526020016060815260200160608152602001600060ff16815260200160008152602001600073ffffffffffffffffffffffffffffffffffffffff16815260200160608152602001606081525090565b5b80821115613e9c57600080820160009055600182016000613e209190613d60565b600282016000613e309190613d60565b6003820160006101000a81549060ff021916905560048201600090556005820160006101000a81549073ffffffffffffffffffffffffffffffffffffffff0219169055600682016000613e839190613d60565b600782016000613e939190613d60565b50600801613dff565b5090565b5b80821115613eb9576000816000905550600101613ea1565b5090565b600080fd5b600080fd5b6000819050919050565b613eda81613ec7565b8114613ee557600080fd5b50565b600081359050613ef781613ed1565b92915050565b600080fd5b600080fd5b600080fd5b60008083601f840112613f2257613f21613efd565b5b8235905067ffffffffffffffff811115613f3f57613f3e613f02565b5b602083019150836001820283011115613f5b57613f5a613f07565b5b9250929050565b600080600060408486031215613f7b57613f7a613ebd565b5b6000613f8986828701613ee8565b935050602084013567ffffffffffffffff811115613faa57613fa9613ec2565b5b613fb686828701613f0c565b92509250509250925092565b60008060208385031215613fd957613fd8613ebd565b5b600083013567ffffffffffffffff811115613ff757613ff6613ec2565b5b61400385828601613f0c565b92509250509250929050565b600081519050919050565b600082825260208201905092915050565b6000819050602082019050919050565b61404481613ec7565b82525050565b600081519050919050565b600082825260208201905092915050565b60005b83811015614084578082015181840152602081019050614069565b60008484015250505050565b6000601f19601f8301169050919050565b60006140ac8261404a565b6140b68185614055565b93506140c6818560208601614066565b6140cf81614090565b840191505092915050565b600060ff82169050919050565b6140f0816140da565b82525050565b600073ffffffffffffffffffffffffffffffffffffffff82169050919050565b6000614121826140f6565b9050919050565b61413181614116565b82525050565b600061010083016000830151614150600086018261403b565b506020830151848203602086015261416882826140a1565b9150506040830151848203604086015261418282826140a1565b915050606083015161419760608601826140e7565b5060808301516141aa608086018261403b565b5060a08301516141bd60a0860182614128565b5060c083015184820360c08601526141d582826140a1565b91505060e083015184820360e08601526141ef82826140a1565b9150508091505092915050565b60006142088383614137565b905092915050565b6000602082019050919050565b60006142288261400f565b614232818561401a565b9350836020820285016142448561402b565b8060005b85811015614280578484038952815161426185826141fc565b945061426c83614210565b925060208a01995050600181019050614248565b50829750879550505050505092915050565b600060208201905081810360008301526142ac818461421d565b905092915050565b6142bd81614116565b81146142c857600080fd5b50565b6000813590506142da816142b4565b92915050565b6000602082840312156142f6576142f5613ebd565b5b6000614304848285016142cb565b91505092915050565b7f4e487b7100000000000000000000000000000000000000000000000000000000600052602160045260246000fd5b6004811061434d5761434c61430d565b5b50565b600081905061435e8261433c565b919050565b600061436e82614350565b9050919050565b61437e81614363565b82525050565b60006020820190506143996000830184614375565b92915050565b60008115159050919050565b6143b48161439f565b82525050565b60006020820190506143cf60008301846143ab565b92915050565b600481106143e257600080fd5b50565b6000813590506143f4816143d5565b92915050565b6000806040838503121561441157614410613ebd565b5b600061441f858286016142cb565b9250506020614430858286016143e5565b9150509250929050565b61444381614363565b82525050565b6144528161439f565b82525050565b600060a083016000830151848203600086015261447582826140a1565b9150506020830151848203602086015261448f82826140a1565b915050604083015184820360408601526144a982826140a1565b91505060608301516144be606086018261443a565b5060808301516144d16080860182614449565b508091505092915050565b600060208201905081810360008301526144f68184614458565b905092915050565b600082825260208201905092915050565b600061451a8261404a565b61452481856144fe565b9350614534818560208601614066565b61453d81614090565b840191505092915050565b600060a0820190508181036000830152614562818861450f565b90508181036020830152614576818761450f565b9050818103604083015261458a818661450f565b90506145996060830185614375565b6145a660808301846143ab565b9695505050505050565b600080600080600080606087890312156145cd576145cc613ebd565b5b600087013567ffffffffffffffff8111156145eb576145ea613ec2565b5b6145f789828a01613f0c565b9650965050602087013567ffffffffffffffff81111561461a57614619613ec2565b5b61462689828a01613f0c565b9450945050604087013567ffffffffffffffff81111561464957614648613ec2565b5b61465589828a01613f0c565b92509250509295509295509295565b600081519050919050565b600082825260208201905092915050565b6000819050602082019050919050565b600061469c8383614128565b60208301905092915050565b6000602082019050919050565b60006146c082614664565b6146ca818561466f565b93506146d583614680565b8060005b838110156147065781516146ed8882614690565b97506146f8836146a8565b9250506001810190506146d9565b5085935050505092915050565b6000602082019050818103600083015261472d81846146b5565b905092915050565b60006020828403121561474b5761474a613ebd565b5b600061475984828501613ee8565b91505092915050565b61476b81614116565b82525050565b60006020820190506147866000830184614762565b92915050565b614795816140da565b81146147a057600080fd5b50565b6000813590506147b28161478c565b92915050565b60008060008060008060008060a0898b0312156147d8576147d7613ebd565b5b600089013567ffffffffffffffff8111156147f6576147f5613ec2565b5b6148028b828c01613f0c565b9850985050602089013567ffffffffffffffff81111561482557614824613ec2565b5b6148318b828c01613f0c565b965096505060406148448b828c016147a3565b945050606089013567ffffffffffffffff81111561486557614864613ec2565b5b6148718b828c01613f0c565b935093505060806148848b828c016142cb565b9150509295985092959890939650565b7f4f6e6c792061646d696e2063616e20706572666f726d2074686973206163746960008201527f6f6e000000000000000000000000000000000000000000000000000000000000602082015250565b60006148f06022836144fe565b91506148fb82614894565b604082019050919050565b6000602082019050818103600083015261491f816148e3565b9050919050565b7f4e487b7100000000000000000000000000000000000000000000000000000000600052603260045260246000fd5b7f4e487b7100000000000000000000000000000000000000000000000000000000600052602260045260246000fd5b6000600282049050600182168061499c57607f821691505b6020821081036149af576149ae614955565b5b50919050565b600081905092915050565b60006149cb8261404a565b6149d581856149b5565b93506149e5818560208601614066565b80840191505092915050565b60006149fd82846149c0565b915081905092915050565b600082905092915050565b7f4e487b7100000000000000000000000000000000000000000000000000000000600052604160045260246000fd5b60008190508160005260206000209050919050565b60006020601f8301049050919050565b600082821b905092915050565b600060088302614aa47fffffffffffffffffffffffffffffffffffffffffffffffffffffffffffffffff82614a67565b614aae8683614a67565b95508019841693508086168417925050509392505050565b6000819050919050565b6000614aeb614ae6614ae184613ec7565b614ac6565b613ec7565b9050919050565b6000819050919050565b614b0583614ad0565b614b19614b1182614af2565b848454614a74565b825550505050565b600090565b614b2e614b21565b614b39818484614afc565b505050565b5b81811015614b5d57614b52600082614b26565b600181019050614b3f565b5050565b601f821115614ba257614b7381614a42565b614b7c84614a57565b81016020851015614b8b578190505b614b9f614b9785614a57565b830182614b3e565b50505b505050565b600082821c905092915050565b6000614bc560001984600802614ba7565b1980831691505092915050565b6000614bde8383614bb4565b9150826002028217905092915050565b614bf88383614a08565b67ffffffffffffffff811115614c1157614c10614a13565b5b614c1b8254614984565b614c26828285614b61565b6000601f831160018114614c555760008415614c43578287013590505b614c4d8582614bd2565b865550614cb5565b601f198416614c6386614a42565b60005b82811015614c8b57848901358255600182019150602085019450602081019050614c66565b86831015614ca85784890135614ca4601f891682614bb4565b8355505b6001600288020188555050505b50505050505050565b82818337600083830152505050565b6000614cd983856144fe565b9350614ce6838584614cbe565b614cef83614090565b840190509392505050565b60006020820190508181036000830152614d15818486614ccd565b90509392505050565b7f4e487b7100000000000000000000000000000000000000000000000000000000600052601160045260246000fd5b6000614d5882613ec7565b91507fffffffffffffffffffffffffffffffffffffffffffffffffffffffffffffffff8203614d8a57614d89614d1e565b5b600182019050919050565b7f4772616465206e6f7420666f756e640000000000000000000000000000000000600082015250565b6000614dcb600f836144fe565b9150614dd682614d95565b602082019050919050565b60006020820190508181036000830152614dfa81614dbe565b9050919050565b6000614e0d83856149b5565b9350614e1a838584614cbe565b82840190509392505050565b6000614e33828486614e01565b91508190509392505050565b7f55736572206973206e6f7420726567697374657265642e000000000000000000600082015250565b6000614e756017836144fe565b9150614e8082614e3f565b602082019050919050565b60006020820190508181036000830152614ea481614e68565b9050919050565b60008154614eb881614984565b614ec281866149b5565b94506001821660008114614edd5760018114614ef257614f25565b60ff1983168652811515820286019350614f25565b614efb85614a42565b60005b83811015614f1d57815481890152600182019150602081019050614efe565b838801955050505b50505092915050565b6000614f3a8284614eab565b915081905092915050565b7f41646d696e732063616e6e6f7420726567697374657200000000000000000000600082015250565b6000614f7b6016836144fe565b9150614f8682614f45565b602082019050919050565b60006020820190508181036000830152614faa81614f6e565b9050919050565b7f54686973206164647265737320697320616c726561647920726567697374657260008201527f65642e0000000000000000000000000000000000000000000000000000000000602082015250565b600061500d6023836144fe565b915061501882614fb1565b604082019050919050565b6000602082019050818103600083015261503c81615000565b9050919050565b61504c8261404a565b67ffffffffffffffff81111561506557615064614a13565b5b61506f8254614984565b61507a828285614b61565b600060209050601f8311600181146150ad576000841561509b578287015190505b6150a58582614bd2565b86555061510d565b601f1984166150bb86614a42565b60005b828110156150e3578489015182556001820191506020850194506020810190506150be565b8683101561510057848901516150fc601f891682614bb4565b8355505b6001600288020188555050505b505050505050565b6000606082019050818103600083015261513081888a614ccd565b90508181036020830152615145818688614ccd565b9050818103604083015261515a818486614ccd565b9050979650505050505050565b7f72656a6563746564000000000000000000000000000000000000000000000000600082015250565b600061519d6008836144fe565b91506151a882615167565b602082019050919050565b600060208201905081810360008301526151cc81615190565b9050919050565b7f4772616465206e6f7420666f756e64206f7220646f65736e2774206d6565742060008201527f72656a656374696f6e2063726974657269610000000000000000000000000000602082015250565b600061522f6032836144fe565b915061523a826151d3565b604082019050919050565b6000602082019050818103600083015261525e81615222565b9050919050565b7f4f6e6c7920746561636865722063616e20706572666f726d207468697320616360008201527f74696f6e00000000000000000000000000000000000000000000000000000000602082015250565b60006152c16024836144fe565b91506152cc82615265565b604082019050919050565b600060208201905081810360008301526152f0816152b4565b9050919050565b7f496e76616c69642073636f726500000000000000000000000000000000000000600082015250565b600061532d600d836144fe565b9150615338826152f7565b602082019050919050565b6000602082019050818103600083015261535c81615320565b9050919050565b7f53747564656e74206973206e6f74207265676973746572656400000000000000600082015250565b60006153996019836144fe565b91506153a482615363565b602082019050919050565b600060208201905081810360008301526153c88161538c565b9050919050565b6153d8816140da565b82525050565b600060808201905081810360008301526153f981888a614ccd565b9050818103602083015261540e818688614ccd565b905061541d60408301856153cf565b61542a6060830184614762565b97965050505050505056fea2646970667358221220ef8672124b12cd176d26ec7e475d7fb0e7e66c79455972c8333782498c7ad18464736f6c63430008140033",
  "linkReferences": {},
  "deployedLinkReferences": {}
}